{
  "contractName": "Token",
  "abi": [
    {
      "inputs": [
        {
          "internalType": "uint256",
          "name": "cap_",
          "type": "uint256"
        },
        {
          "internalType": "uint256",
          "name": "amount_",
          "type": "uint256"
        }
      ],
      "stateMutability": "nonpayable",
      "type": "constructor"
    },
    {
      "anonymous": false,
      "inputs": [
        {
          "indexed": true,
          "internalType": "address",
          "name": "owner",
          "type": "address"
        },
        {
          "indexed": true,
          "internalType": "address",
          "name": "spender",
          "type": "address"
        },
        {
          "indexed": false,
          "internalType": "uint256",
          "name": "value",
          "type": "uint256"
        }
      ],
      "name": "Approval",
      "type": "event"
    },
    {
      "anonymous": false,
      "inputs": [
        {
          "indexed": false,
          "internalType": "address",
          "name": "account",
          "type": "address"
        }
      ],
      "name": "Paused",
      "type": "event"
    },
    {
      "anonymous": false,
      "inputs": [
        {
          "indexed": true,
          "internalType": "bytes32",
          "name": "role",
          "type": "bytes32"
        },
        {
          "indexed": true,
          "internalType": "bytes32",
          "name": "previousAdminRole",
          "type": "bytes32"
        },
        {
          "indexed": true,
          "internalType": "bytes32",
          "name": "newAdminRole",
          "type": "bytes32"
        }
      ],
      "name": "RoleAdminChanged",
      "type": "event"
    },
    {
      "anonymous": false,
      "inputs": [
        {
          "indexed": true,
          "internalType": "bytes32",
          "name": "role",
          "type": "bytes32"
        },
        {
          "indexed": true,
          "internalType": "address",
          "name": "account",
          "type": "address"
        },
        {
          "indexed": true,
          "internalType": "address",
          "name": "sender",
          "type": "address"
        }
      ],
      "name": "RoleGranted",
      "type": "event"
    },
    {
      "anonymous": false,
      "inputs": [
        {
          "indexed": true,
          "internalType": "bytes32",
          "name": "role",
          "type": "bytes32"
        },
        {
          "indexed": true,
          "internalType": "address",
          "name": "account",
          "type": "address"
        },
        {
          "indexed": true,
          "internalType": "address",
          "name": "sender",
          "type": "address"
        }
      ],
      "name": "RoleRevoked",
      "type": "event"
    },
    {
      "anonymous": false,
      "inputs": [
        {
          "indexed": true,
          "internalType": "address",
          "name": "from",
          "type": "address"
        },
        {
          "indexed": true,
          "internalType": "address",
          "name": "to",
          "type": "address"
        },
        {
          "indexed": false,
          "internalType": "uint256",
          "name": "value",
          "type": "uint256"
        }
      ],
      "name": "Transfer",
      "type": "event"
    },
    {
      "anonymous": false,
      "inputs": [
        {
          "indexed": false,
          "internalType": "address",
          "name": "account",
          "type": "address"
        }
      ],
      "name": "Unpaused",
      "type": "event"
    },
    {
      "inputs": [],
      "name": "CAP_ROLE",
      "outputs": [
        {
          "internalType": "bytes32",
          "name": "",
          "type": "bytes32"
        }
      ],
      "stateMutability": "view",
      "type": "function",
      "constant": true
    },
    {
      "inputs": [],
      "name": "DEFAULT_ADMIN_ROLE",
      "outputs": [
        {
          "internalType": "bytes32",
          "name": "",
          "type": "bytes32"
        }
      ],
      "stateMutability": "view",
      "type": "function",
      "constant": true
    },
    {
      "inputs": [],
      "name": "MINTER_ROLE",
      "outputs": [
        {
          "internalType": "bytes32",
          "name": "",
          "type": "bytes32"
        }
      ],
      "stateMutability": "view",
      "type": "function",
      "constant": true
    },
    {
      "inputs": [],
      "name": "PAUSER_ROLE",
      "outputs": [
        {
          "internalType": "bytes32",
          "name": "",
          "type": "bytes32"
        }
      ],
      "stateMutability": "view",
      "type": "function",
      "constant": true
    },
    {
      "inputs": [
        {
          "internalType": "address",
          "name": "owner",
          "type": "address"
        },
        {
          "internalType": "address",
          "name": "spender",
          "type": "address"
        }
      ],
      "name": "allowance",
      "outputs": [
        {
          "internalType": "uint256",
          "name": "",
          "type": "uint256"
        }
      ],
      "stateMutability": "view",
      "type": "function",
      "constant": true
    },
    {
      "inputs": [
        {
          "internalType": "address",
          "name": "spender",
          "type": "address"
        },
        {
          "internalType": "uint256",
          "name": "amount",
          "type": "uint256"
        }
      ],
      "name": "approve",
      "outputs": [
        {
          "internalType": "bool",
          "name": "",
          "type": "bool"
        }
      ],
      "stateMutability": "nonpayable",
      "type": "function"
    },
    {
      "inputs": [
        {
          "internalType": "address",
          "name": "account",
          "type": "address"
        }
      ],
      "name": "balanceOf",
      "outputs": [
        {
          "internalType": "uint256",
          "name": "",
          "type": "uint256"
        }
      ],
      "stateMutability": "view",
      "type": "function",
      "constant": true
    },
    {
      "inputs": [],
      "name": "decimals",
      "outputs": [
        {
          "internalType": "uint8",
          "name": "",
          "type": "uint8"
        }
      ],
      "stateMutability": "view",
      "type": "function",
      "constant": true
    },
    {
      "inputs": [
        {
          "internalType": "address",
          "name": "spender",
          "type": "address"
        },
        {
          "internalType": "uint256",
          "name": "subtractedValue",
          "type": "uint256"
        }
      ],
      "name": "decreaseAllowance",
      "outputs": [
        {
          "internalType": "bool",
          "name": "",
          "type": "bool"
        }
      ],
      "stateMutability": "nonpayable",
      "type": "function"
    },
    {
      "inputs": [
        {
          "internalType": "bytes32",
          "name": "role",
          "type": "bytes32"
        }
      ],
      "name": "getRoleAdmin",
      "outputs": [
        {
          "internalType": "bytes32",
          "name": "",
          "type": "bytes32"
        }
      ],
      "stateMutability": "view",
      "type": "function",
      "constant": true
    },
    {
      "inputs": [
        {
          "internalType": "bytes32",
          "name": "role",
          "type": "bytes32"
        },
        {
          "internalType": "uint256",
          "name": "index",
          "type": "uint256"
        }
      ],
      "name": "getRoleMember",
      "outputs": [
        {
          "internalType": "address",
          "name": "",
          "type": "address"
        }
      ],
      "stateMutability": "view",
      "type": "function",
      "constant": true
    },
    {
      "inputs": [
        {
          "internalType": "bytes32",
          "name": "role",
          "type": "bytes32"
        }
      ],
      "name": "getRoleMemberCount",
      "outputs": [
        {
          "internalType": "uint256",
          "name": "",
          "type": "uint256"
        }
      ],
      "stateMutability": "view",
      "type": "function",
      "constant": true
    },
    {
      "inputs": [
        {
          "internalType": "bytes32",
          "name": "role",
          "type": "bytes32"
        },
        {
          "internalType": "address",
          "name": "account",
          "type": "address"
        }
      ],
      "name": "grantRole",
      "outputs": [],
      "stateMutability": "nonpayable",
      "type": "function"
    },
    {
      "inputs": [
        {
          "internalType": "bytes32",
          "name": "role",
          "type": "bytes32"
        },
        {
          "internalType": "address",
          "name": "account",
          "type": "address"
        }
      ],
      "name": "hasRole",
      "outputs": [
        {
          "internalType": "bool",
          "name": "",
          "type": "bool"
        }
      ],
      "stateMutability": "view",
      "type": "function",
      "constant": true
    },
    {
      "inputs": [
        {
          "internalType": "address",
          "name": "spender",
          "type": "address"
        },
        {
          "internalType": "uint256",
          "name": "addedValue",
          "type": "uint256"
        }
      ],
      "name": "increaseAllowance",
      "outputs": [
        {
          "internalType": "bool",
          "name": "",
          "type": "bool"
        }
      ],
      "stateMutability": "nonpayable",
      "type": "function"
    },
    {
      "inputs": [],
      "name": "name",
      "outputs": [
        {
          "internalType": "string",
          "name": "",
          "type": "string"
        }
      ],
      "stateMutability": "view",
      "type": "function",
      "constant": true
    },
    {
      "inputs": [],
      "name": "paused",
      "outputs": [
        {
          "internalType": "bool",
          "name": "",
          "type": "bool"
        }
      ],
      "stateMutability": "view",
      "type": "function",
      "constant": true
    },
    {
      "inputs": [
        {
          "internalType": "bytes32",
          "name": "role",
          "type": "bytes32"
        },
        {
          "internalType": "address",
          "name": "account",
          "type": "address"
        }
      ],
      "name": "renounceRole",
      "outputs": [],
      "stateMutability": "nonpayable",
      "type": "function"
    },
    {
      "inputs": [
        {
          "internalType": "bytes32",
          "name": "role",
          "type": "bytes32"
        },
        {
          "internalType": "address",
          "name": "account",
          "type": "address"
        }
      ],
      "name": "revokeRole",
      "outputs": [],
      "stateMutability": "nonpayable",
      "type": "function"
    },
    {
      "inputs": [
        {
          "internalType": "bytes4",
          "name": "interfaceId",
          "type": "bytes4"
        }
      ],
      "name": "supportsInterface",
      "outputs": [
        {
          "internalType": "bool",
          "name": "",
          "type": "bool"
        }
      ],
      "stateMutability": "view",
      "type": "function",
      "constant": true
    },
    {
      "inputs": [],
      "name": "symbol",
      "outputs": [
        {
          "internalType": "string",
          "name": "",
          "type": "string"
        }
      ],
      "stateMutability": "view",
      "type": "function",
      "constant": true
    },
    {
      "inputs": [
        {
          "internalType": "address",
          "name": "sender",
          "type": "address"
        },
        {
          "internalType": "address",
          "name": "recipient",
          "type": "address"
        },
        {
          "internalType": "uint256",
          "name": "amount",
          "type": "uint256"
        }
      ],
      "name": "transferFrom",
      "outputs": [
        {
          "internalType": "bool",
          "name": "",
          "type": "bool"
        }
      ],
      "stateMutability": "nonpayable",
      "type": "function"
    },
    {
      "inputs": [
        {
          "internalType": "uint256",
          "name": "_amount",
          "type": "uint256"
        }
      ],
      "name": "increaseCap",
      "outputs": [],
      "stateMutability": "nonpayable",
      "type": "function"
    },
    {
      "inputs": [
        {
          "internalType": "uint256",
          "name": "_amount",
          "type": "uint256"
        }
      ],
      "name": "decreaseCap",
      "outputs": [],
      "stateMutability": "nonpayable",
      "type": "function"
    },
    {
      "inputs": [],
      "name": "cap",
      "outputs": [
        {
          "internalType": "uint256",
          "name": "",
          "type": "uint256"
        }
      ],
      "stateMutability": "view",
      "type": "function",
      "constant": true
    },
    {
      "inputs": [],
      "name": "totalSupply",
      "outputs": [
        {
          "internalType": "uint256",
          "name": "",
          "type": "uint256"
        }
      ],
      "stateMutability": "view",
      "type": "function",
      "constant": true
    },
    {
      "inputs": [
        {
          "internalType": "address",
          "name": "account",
          "type": "address"
        },
        {
          "internalType": "uint256",
          "name": "amount",
          "type": "uint256"
        }
      ],
      "name": "mint",
      "outputs": [],
      "stateMutability": "nonpayable",
      "type": "function"
    },
    {
      "inputs": [
        {
          "internalType": "address",
          "name": "recipient",
          "type": "address"
        },
        {
          "internalType": "uint256",
          "name": "amount",
          "type": "uint256"
        }
      ],
      "name": "transfer",
      "outputs": [
        {
          "internalType": "bool",
          "name": "",
          "type": "bool"
        }
      ],
      "stateMutability": "nonpayable",
      "type": "function"
    },
    {
      "inputs": [],
      "name": "pause",
      "outputs": [],
      "stateMutability": "nonpayable",
      "type": "function"
    },
    {
      "inputs": [],
      "name": "unpause",
      "outputs": [],
      "stateMutability": "nonpayable",
      "type": "function"
    },
    {
      "inputs": [
        {
          "internalType": "uint256",
          "name": "amount",
          "type": "uint256"
        }
      ],
      "name": "burn",
      "outputs": [],
      "stateMutability": "nonpayable",
      "type": "function"
    },
    {
      "inputs": [
        {
          "internalType": "address",
          "name": "account",
          "type": "address"
        },
        {
          "internalType": "uint256",
          "name": "amount",
          "type": "uint256"
        }
      ],
      "name": "burnFrom",
      "outputs": [],
      "stateMutability": "nonpayable",
      "type": "function"
    }
  ],
  "bytecode": "0x60806040523480156200001157600080fd5b506040516200451b3803806200451b8339818101604052810190620000379190620007d6565b6040518060400160405280600581526020017f546f6b656e0000000000000000000000000000000000000000000000000000008152506040518060400160405280600381526020017f544b4e00000000000000000000000000000000000000000000000000000000008152508160039080519060200190620000bb9291906200070f565b508060049080519060200190620000d49291906200070f565b5050506000600760006101000a81548160ff021916908315150217905550620001166000801b6200010a6200028660201b60201c565b6200028e60201b60201c565b620001577f9f2df0fed2c77648de5860a4cc508cd0818c85b8b8a1ab4ceeef8d981c8956a66200014b6200028660201b60201c565b6200028e60201b60201c565b620001987f65d7a28e3265b37a6474929f336521b332c1681b933f6cb9f3376673440d862a6200018c6200028660201b60201c565b6200028e60201b60201c565b620001d97f2865fb6486f1182ff260a98800c07add86e3bf298ef0eac98fcd12371e94abc9620001cd6200028660201b60201c565b6200028e60201b60201c565b600082116200021f576040517f08c379a0000000000000000000000000000000000000000000000000000000008152600401620002169062000956565b60405180910390fd5b81600881905550818111156200026c576040517f08c379a0000000000000000000000000000000000000000000000000000000008152600401620002639062000978565b60405180910390fd5b6200027e3382620002d660201b60201c565b505062000b21565b600033905090565b620002a582826200043b60201b620012431760201c565b620002d181600660008581526020019081526020016000206200045160201b620012511790919060201c565b505050565b600073ffffffffffffffffffffffffffffffffffffffff168273ffffffffffffffffffffffffffffffffffffffff16141562000349576040517f08c379a000000000000000000000000000000000000000000000000000000000815260040162000340906200099a565b60405180910390fd5b6200035d600083836200048960201b60201c565b806002600082825462000371919062000a0c565b92505081905550806000808473ffffffffffffffffffffffffffffffffffffffff1673ffffffffffffffffffffffffffffffffffffffff1681526020019081526020016000206000828254620003c8919062000a0c565b925050819055508173ffffffffffffffffffffffffffffffffffffffff16600073ffffffffffffffffffffffffffffffffffffffff167fddf252ad1be2c89b69c2b068fc378daa952ba7f163c4a11628f55a4df523b3ef836040516200042f9190620009de565b60405180910390a35050565b6200044d8282620004f960201b60201c565b5050565b600062000481836000018373ffffffffffffffffffffffffffffffffffffffff1660001b620005eb60201b60201c565b905092915050565b620004a18383836200066560201b620012811760201c565b620004b16200066a60201b60201c565b15620004f4576040517f08c379a0000000000000000000000000000000000000000000000000000000008152600401620004eb90620009bc565b60405180910390fd5b505050565b6200050b82826200068160201b60201c565b620005e75760016005600084815260200190815260200160002060000160008373ffffffffffffffffffffffffffffffffffffffff1673ffffffffffffffffffffffffffffffffffffffff16815260200190815260200160002060006101000a81548160ff0219169083151502179055506200058c6200028660201b60201c565b73ffffffffffffffffffffffffffffffffffffffff168173ffffffffffffffffffffffffffffffffffffffff16837f2f8788117e7eff1d82e926ec794901d17c78024a50270940304540a733656f0d60405160405180910390a45b5050565b6000620005ff8383620006ec60201b60201c565b6200065a5782600001829080600181540180825580915050600190039060005260206000200160009091909190915055826000018054905083600101600084815260200190815260200160002081905550600190506200065f565b600090505b92915050565b505050565b6000600760009054906101000a900460ff16905090565b60006005600084815260200190815260200160002060000160008373ffffffffffffffffffffffffffffffffffffffff1673ffffffffffffffffffffffffffffffffffffffff16815260200190815260200160002060009054906101000a900460ff16905092915050565b600080836001016000848152602001908152602001600020541415905092915050565b8280546200071d9062000a73565b90600052602060002090601f0160209004810192826200074157600085556200078d565b82601f106200075c57805160ff19168380011785556200078d565b828001600101855582156200078d579182015b828111156200078c5782518255916020019190600101906200076f565b5b5090506200079c9190620007a0565b5090565b5b80821115620007bb576000816000905550600101620007a1565b5090565b600081519050620007d08162000b07565b92915050565b60008060408385031215620007ea57600080fd5b6000620007fa85828601620007bf565b92505060206200080d85828601620007bf565b9150509250929050565b600062000826601583620009fb565b91507f45524332304361707065643a20636170206973203000000000000000000000006000830152602082019050919050565b600062000868601283620009fb565b91507f416d6f756e7420657863656564732063617000000000000000000000000000006000830152602082019050919050565b6000620008aa601f83620009fb565b91507f45524332303a206d696e7420746f20746865207a65726f2061646472657373006000830152602082019050919050565b6000620008ec602a83620009fb565b91507f45524332305061757361626c653a20746f6b656e207472616e7366657220776860008301527f696c6520706175736564000000000000000000000000000000000000000000006020830152604082019050919050565b620009508162000a69565b82525050565b60006020820190508181036000830152620009718162000817565b9050919050565b60006020820190508181036000830152620009938162000859565b9050919050565b60006020820190508181036000830152620009b5816200089b565b9050919050565b60006020820190508181036000830152620009d781620008dd565b9050919050565b6000602082019050620009f5600083018462000945565b92915050565b600082825260208201905092915050565b600062000a198262000a69565b915062000a268362000a69565b9250827fffffffffffffffffffffffffffffffffffffffffffffffffffffffffffffffff0382111562000a5e5762000a5d62000aa9565b5b828201905092915050565b6000819050919050565b6000600282049050600182168062000a8c57607f821691505b6020821081141562000aa35762000aa262000ad8565b5b50919050565b7f4e487b7100000000000000000000000000000000000000000000000000000000600052601160045260246000fd5b7f4e487b7100000000000000000000000000000000000000000000000000000000600052602260045260246000fd5b62000b128162000a69565b811462000b1e57600080fd5b50565b6139ea8062000b316000396000f3fe608060405234801561001057600080fd5b50600436106101f05760003560e01c806370a082311161010f578063a217fddf116100a2578063d539139311610071578063d5391393146105cd578063d547741f146105eb578063dd62ed3e14610607578063e63ab1e914610637576101f0565b8063a217fddf1461051f578063a457c2d71461053d578063a9059cbb1461056d578063ca15c8731461059d576101f0565b80638456cb59116100de5780638456cb59146104975780639010d07c146104a157806391d14854146104d157806395d89b4114610501576101f0565b806370a08231146104115780637430a6891461044157806379cc67901461045d57806382c95f9c14610479576101f0565b8063355274ea1161018757806340c10f191161015657806340c10f191461039f57806342966c68146103bb578063523e9551146103d75780635c975abb146103f3576101f0565b8063355274ea1461032b57806336568abe1461034957806339509351146103655780633f4ba83a14610395576101f0565b806323b872dd116101c357806323b872dd14610291578063248a9ca3146102c15780632f2ff15d146102f1578063313ce5671461030d576101f0565b806301ffc9a7146101f557806306fdde0314610225578063095ea7b31461024357806318160ddd14610273575b600080fd5b61020f600480360381019061020a9190612888565b610655565b60405161021c9190613336565b60405180910390f35b61022d6106cf565b60405161023a919061336c565b60405180910390f35b61025d600480360381019061025891906127ab565b610761565b60405161026a9190613336565b60405180910390f35b61027b61077f565b604051610288919061368e565b60405180910390f35b6102ab60048036038101906102a6919061275c565b61078e565b6040516102b89190613336565b60405180910390f35b6102db60048036038101906102d691906127e7565b61088f565b6040516102e89190613351565b60405180910390f35b61030b60048036038101906103069190612810565b6108af565b005b6103156108e3565b60405161032291906136a9565b60405180910390f35b6103336108ec565b604051610340919061368e565b60405180910390f35b610363600480360381019061035e9190612810565b6108f6565b005b61037f600480360381019061037a91906127ab565b61092a565b60405161038c9190613336565b60405180910390f35b61039d6109d6565b005b6103b960048036038101906103b491906127ab565b610a50565b005b6103d560048036038101906103d091906128b1565b610b72565b005b6103f160048036038101906103ec91906128b1565b610b86565b005b6103fb610c4a565b6040516104089190613336565b60405180910390f35b61042b600480360381019061042691906126f7565b610c61565b604051610438919061368e565b60405180910390f35b61045b600480360381019061045691906128b1565b610ca9565b005b610477600480360381019061047291906127ab565b610d6d565b005b610481610df1565b60405161048e9190613351565b60405180910390f35b61049f610e15565b005b6104bb60048036038101906104b6919061284c565b610e8f565b6040516104c8919061331b565b60405180910390f35b6104eb60048036038101906104e69190612810565b610ebe565b6040516104f89190613336565b60405180910390f35b610509610f29565b604051610516919061336c565b60405180910390f35b610527610fbb565b6040516105349190613351565b60405180910390f35b610557600480360381019061055291906127ab565b610fc2565b6040516105649190613336565b60405180910390f35b610587600480360381019061058291906127ab565b6110b6565b6040516105949190613336565b60405180910390f35b6105b760048036038101906105b291906127e7565b61111c565b6040516105c4919061368e565b60405180910390f35b6105d5611140565b6040516105e29190613351565b60405180910390f35b61060560048036038101906106009190612810565b611164565b005b610621600480360381019061061c9190612720565b611198565b60405161062e919061368e565b60405180910390f35b61063f61121f565b60405161064c9190613351565b60405180910390f35b60007f5a05180f000000000000000000000000000000000000000000000000000000007bffffffffffffffffffffffffffffffffffffffffffffffffffffffff1916827bffffffffffffffffffffffffffffffffffffffffffffffffffffffff191614806106c857506106c782611286565b5b9050919050565b6060600380546106de906138b7565b80601f016020809104026020016040519081016040528092919081815260200182805461070a906138b7565b80156107575780601f1061072c57610100808354040283529160200191610757565b820191906000526020600020905b81548152906001019060200180831161073a57829003601f168201915b5050505050905090565b600061077561076e611300565b8484611308565b6001905092915050565b60006107896114d3565b905090565b600061079b8484846114dd565b6000600160008673ffffffffffffffffffffffffffffffffffffffff1673ffffffffffffffffffffffffffffffffffffffff16815260200190815260200160002060006107e6611300565b73ffffffffffffffffffffffffffffffffffffffff1673ffffffffffffffffffffffffffffffffffffffff16815260200190815260200160002054905082811015610866576040517f08c379a000000000000000000000000000000000000000000000000000000000815260040161085d9061350e565b60405180910390fd5b61088385610872611300565b858461087e919061379b565b611308565b60019150509392505050565b600060056000838152602001908152602001600020600101549050919050565b6108b9828261175c565b6108de816006600085815260200190815260200160002061125190919063ffffffff16565b505050565b60006012905090565b6000600854905090565b6109008282611785565b610925816006600085815260200190815260200160002061180890919063ffffffff16565b505050565b60006109cc610937611300565b848460016000610945611300565b73ffffffffffffffffffffffffffffffffffffffff1673ffffffffffffffffffffffffffffffffffffffff16815260200190815260200160002060008873ffffffffffffffffffffffffffffffffffffffff1673ffffffffffffffffffffffffffffffffffffffff168152602001908152602001600020546109c791906136eb565b611308565b6001905092915050565b610a077f65d7a28e3265b37a6474929f336521b332c1681b933f6cb9f3376673440d862a610a02611300565b610ebe565b610a46576040517f08c379a0000000000000000000000000000000000000000000000000000000008152600401610a3d9061342e565b60405180910390fd5b610a4e611838565b565b610a58610c4a565b15610a98576040517f08c379a0000000000000000000000000000000000000000000000000000000008152600401610a8f9061348e565b60405180910390fd5b610ac97f9f2df0fed2c77648de5860a4cc508cd0818c85b8b8a1ab4ceeef8d981c8956a6610ac4611300565b610ebe565b610b08576040517f08c379a0000000000000000000000000000000000000000000000000000000008152600401610aff9061352e565b60405180910390fd5b610b106108ec565b81610b1961077f565b610b2391906136eb565b1115610b64576040517f08c379a0000000000000000000000000000000000000000000000000000000008152600401610b5b906135ae565b60405180910390fd5b610b6e82826118da565b5050565b610b83610b7d611300565b82611a2e565b50565b610b8e610c4a565b15610bce576040517f08c379a0000000000000000000000000000000000000000000000000000000008152600401610bc59061348e565b60405180910390fd5b610bff7f2865fb6486f1182ff260a98800c07add86e3bf298ef0eac98fcd12371e94abc9610bfa611300565b610ebe565b610c3e576040517f08c379a0000000000000000000000000000000000000000000000000000000008152600401610c35906134ee565b60405180910390fd5b610c4781611c02565b50565b6000600760009054906101000a900460ff16905090565b60008060008373ffffffffffffffffffffffffffffffffffffffff1673ffffffffffffffffffffffffffffffffffffffff168152602001908152602001600020549050919050565b610cb1610c4a565b15610cf1576040517f08c379a0000000000000000000000000000000000000000000000000000000008152600401610ce89061348e565b60405180910390fd5b610d227f2865fb6486f1182ff260a98800c07add86e3bf298ef0eac98fcd12371e94abc9610d1d611300565b610ebe565b610d61576040517f08c379a0000000000000000000000000000000000000000000000000000000008152600401610d58906134ae565b60405180910390fd5b610d6a81611c63565b50565b6000610d8083610d7b611300565b611198565b905081811015610dc5576040517f08c379a0000000000000000000000000000000000000000000000000000000008152600401610dbc9061354e565b60405180910390fd5b610de283610dd1611300565b8484610ddd919061379b565b611308565b610dec8383611a2e565b505050565b7f2865fb6486f1182ff260a98800c07add86e3bf298ef0eac98fcd12371e94abc981565b610e467f65d7a28e3265b37a6474929f336521b332c1681b933f6cb9f3376673440d862a610e41611300565b610ebe565b610e85576040517f08c379a0000000000000000000000000000000000000000000000000000000008152600401610e7c906135ee565b60405180910390fd5b610e8d611cd0565b565b6000610eb68260066000868152602001908152602001600020611d7390919063ffffffff16565b905092915050565b60006005600084815260200190815260200160002060000160008373ffffffffffffffffffffffffffffffffffffffff1673ffffffffffffffffffffffffffffffffffffffff16815260200190815260200160002060009054906101000a900460ff16905092915050565b606060048054610f38906138b7565b80601f0160208091040260200160405190810160405280929190818152602001828054610f64906138b7565b8015610fb15780601f10610f8657610100808354040283529160200191610fb1565b820191906000526020600020905b815481529060010190602001808311610f9457829003601f168201915b5050505050905090565b6000801b81565b60008060016000610fd1611300565b73ffffffffffffffffffffffffffffffffffffffff1673ffffffffffffffffffffffffffffffffffffffff16815260200190815260200160002060008573ffffffffffffffffffffffffffffffffffffffff1673ffffffffffffffffffffffffffffffffffffffff1681526020019081526020016000205490508281101561108e576040517f08c379a00000000000000000000000000000000000000000000000000000000081526004016110859061360e565b60405180910390fd5b6110ab611099611300565b8585846110a6919061379b565b611308565b600191505092915050565b60006110c0610c4a565b15611100576040517f08c379a00000000000000000000000000000000000000000000000000000000081526004016110f79061348e565b60405180910390fd5b61111261110b611300565b84846114dd565b6001905092915050565b600061113960066000848152602001908152602001600020611d8d565b9050919050565b7f9f2df0fed2c77648de5860a4cc508cd0818c85b8b8a1ab4ceeef8d981c8956a681565b61116e8282611da2565b611193816006600085815260200190815260200160002061180890919063ffffffff16565b505050565b6000600160008473ffffffffffffffffffffffffffffffffffffffff1673ffffffffffffffffffffffffffffffffffffffff16815260200190815260200160002060008373ffffffffffffffffffffffffffffffffffffffff1673ffffffffffffffffffffffffffffffffffffffff16815260200190815260200160002054905092915050565b7f65d7a28e3265b37a6474929f336521b332c1681b933f6cb9f3376673440d862a81565b61124d8282611dcb565b5050565b6000611279836000018373ffffffffffffffffffffffffffffffffffffffff1660001b611eac565b905092915050565b505050565b60007f7965db0b000000000000000000000000000000000000000000000000000000007bffffffffffffffffffffffffffffffffffffffffffffffffffffffff1916827bffffffffffffffffffffffffffffffffffffffffffffffffffffffff191614806112f957506112f882611f1c565b5b9050919050565b600033905090565b600073ffffffffffffffffffffffffffffffffffffffff168373ffffffffffffffffffffffffffffffffffffffff161415611378576040517f08c379a000000000000000000000000000000000000000000000000000000000815260040161136f906135ce565b60405180910390fd5b600073ffffffffffffffffffffffffffffffffffffffff168273ffffffffffffffffffffffffffffffffffffffff1614156113e8576040517f08c379a00000000000000000000000000000000000000000000000000000000081526004016113df9061344e565b60405180910390fd5b80600160008573ffffffffffffffffffffffffffffffffffffffff1673ffffffffffffffffffffffffffffffffffffffff16815260200190815260200160002060008473ffffffffffffffffffffffffffffffffffffffff1673ffffffffffffffffffffffffffffffffffffffff168152602001908152602001600020819055508173ffffffffffffffffffffffffffffffffffffffff168373ffffffffffffffffffffffffffffffffffffffff167f8c5be1e5ebec7d5bd14f71427d1e84f3dd0314c0f7b2291e5b200ac8c7c3b925836040516114c6919061368e565b60405180910390a3505050565b6000600254905090565b600073ffffffffffffffffffffffffffffffffffffffff168373ffffffffffffffffffffffffffffffffffffffff16141561154d576040517f08c379a00000000000000000000000000000000000000000000000000000000081526004016115449061358e565b60405180910390fd5b600073ffffffffffffffffffffffffffffffffffffffff168273ffffffffffffffffffffffffffffffffffffffff1614156115bd576040517f08c379a00000000000000000000000000000000000000000000000000000000081526004016115b4906133ce565b60405180910390fd5b6115c8838383611f86565b60008060008573ffffffffffffffffffffffffffffffffffffffff1673ffffffffffffffffffffffffffffffffffffffff1681526020019081526020016000205490508181101561164e576040517f08c379a00000000000000000000000000000000000000000000000000000000081526004016116459061346e565b60405180910390fd5b818161165a919061379b565b6000808673ffffffffffffffffffffffffffffffffffffffff1673ffffffffffffffffffffffffffffffffffffffff16815260200190815260200160002081905550816000808573ffffffffffffffffffffffffffffffffffffffff1673ffffffffffffffffffffffffffffffffffffffff16815260200190815260200160002060008282546116ea91906136eb565b925050819055508273ffffffffffffffffffffffffffffffffffffffff168473ffffffffffffffffffffffffffffffffffffffff167fddf252ad1be2c89b69c2b068fc378daa952ba7f163c4a11628f55a4df523b3ef8460405161174e919061368e565b60405180910390a350505050565b6117658261088f565b61177681611771611300565b611fde565b6117808383611dcb565b505050565b61178d611300565b73ffffffffffffffffffffffffffffffffffffffff168173ffffffffffffffffffffffffffffffffffffffff16146117fa576040517f08c379a00000000000000000000000000000000000000000000000000000000081526004016117f19061362e565b60405180910390fd5b611804828261207b565b5050565b6000611830836000018373ffffffffffffffffffffffffffffffffffffffff1660001b61215d565b905092915050565b611840610c4a565b61187f576040517f08c379a0000000000000000000000000000000000000000000000000000000008152600401611876906133ee565b60405180910390fd5b6000600760006101000a81548160ff0219169083151502179055507f5db9ee0a495bf2e6ff9c91a7834c1ba4fdd244a5e8aa4e537bd38aeae4b073aa6118c3611300565b6040516118d0919061331b565b60405180910390a1565b600073ffffffffffffffffffffffffffffffffffffffff168273ffffffffffffffffffffffffffffffffffffffff16141561194a576040517f08c379a00000000000000000000000000000000000000000000000000000000081526004016119419061364e565b60405180910390fd5b61195660008383611f86565b806002600082825461196891906136eb565b92505081905550806000808473ffffffffffffffffffffffffffffffffffffffff1673ffffffffffffffffffffffffffffffffffffffff16815260200190815260200160002060008282546119bd91906136eb565b925050819055508173ffffffffffffffffffffffffffffffffffffffff16600073ffffffffffffffffffffffffffffffffffffffff167fddf252ad1be2c89b69c2b068fc378daa952ba7f163c4a11628f55a4df523b3ef83604051611a22919061368e565b60405180910390a35050565b600073ffffffffffffffffffffffffffffffffffffffff168273ffffffffffffffffffffffffffffffffffffffff161415611a9e576040517f08c379a0000000000000000000000000000000000000000000000000000000008152600401611a959061356e565b60405180910390fd5b611aaa82600083611f86565b60008060008473ffffffffffffffffffffffffffffffffffffffff1673ffffffffffffffffffffffffffffffffffffffff16815260200190815260200160002054905081811015611b30576040517f08c379a0000000000000000000000000000000000000000000000000000000008152600401611b279061340e565b60405180910390fd5b8181611b3c919061379b565b6000808573ffffffffffffffffffffffffffffffffffffffff1673ffffffffffffffffffffffffffffffffffffffff168152602001908152602001600020819055508160026000828254611b90919061379b565b92505081905550600073ffffffffffffffffffffffffffffffffffffffff168373ffffffffffffffffffffffffffffffffffffffff167fddf252ad1be2c89b69c2b068fc378daa952ba7f163c4a11628f55a4df523b3ef84604051611bf5919061368e565b60405180910390a3505050565b8060086000828254611c1491906136eb565b92505081905550611c2361077f565b611c2b6108ec565b1015611c60577f4e487b7100000000000000000000000000000000000000000000000000000000600052600160045260246000fd5b50565b8060086000828254611c75919061379b565b92505081905550611c8461077f565b611c8c6108ec565b1015611ccd576040517f08c379a0000000000000000000000000000000000000000000000000000000008152600401611cc4906134ce565b60405180910390fd5b50565b611cd8610c4a565b15611d18576040517f08c379a0000000000000000000000000000000000000000000000000000000008152600401611d0f9061348e565b60405180910390fd5b6001600760006101000a81548160ff0219169083151502179055507f62e78cea01bee320cd4e420270b5ea74000d11b0c9f74754ebdbfc544b05a258611d5c611300565b604051611d69919061331b565b60405180910390a1565b6000611d8283600001836122db565b60001c905092915050565b6000611d9b82600001612375565b9050919050565b611dab8261088f565b611dbc81611db7611300565b611fde565b611dc6838361207b565b505050565b611dd58282610ebe565b611ea85760016005600084815260200190815260200160002060000160008373ffffffffffffffffffffffffffffffffffffffff1673ffffffffffffffffffffffffffffffffffffffff16815260200190815260200160002060006101000a81548160ff021916908315150217905550611e4d611300565b73ffffffffffffffffffffffffffffffffffffffff168173ffffffffffffffffffffffffffffffffffffffff16837f2f8788117e7eff1d82e926ec794901d17c78024a50270940304540a733656f0d60405160405180910390a45b5050565b6000611eb88383612386565b611f11578260000182908060018154018082558091505060019003906000526020600020016000909190919091505582600001805490508360010160008481526020019081526020016000208190555060019050611f16565b600090505b92915050565b60007f01ffc9a7000000000000000000000000000000000000000000000000000000007bffffffffffffffffffffffffffffffffffffffffffffffffffffffff1916827bffffffffffffffffffffffffffffffffffffffffffffffffffffffff1916149050919050565b611f91838383611281565b611f99610c4a565b15611fd9576040517f08c379a0000000000000000000000000000000000000000000000000000000008152600401611fd09061366e565b60405180910390fd5b505050565b611fe88282610ebe565b6120775761200d8173ffffffffffffffffffffffffffffffffffffffff1660146123a9565b61201b8360001c60206123a9565b60405160200161202c9291906132e1565b6040516020818303038152906040526040517f08c379a000000000000000000000000000000000000000000000000000000000815260040161206e919061336c565b60405180910390fd5b5050565b6120858282610ebe565b156121595760006005600084815260200190815260200160002060000160008373ffffffffffffffffffffffffffffffffffffffff1673ffffffffffffffffffffffffffffffffffffffff16815260200190815260200160002060006101000a81548160ff0219169083151502179055506120fe611300565b73ffffffffffffffffffffffffffffffffffffffff168173ffffffffffffffffffffffffffffffffffffffff16837ff6391f5c32d9c69d2a47ea670b442974b53935d1edc7fd64eb21e047a839171b60405160405180910390a45b5050565b600080836001016000848152602001908152602001600020549050600081146122cf57600060018261218f919061379b565b90506000600186600001805490506121a7919061379b565b905060008660000182815481106121e7577f4e487b7100000000000000000000000000000000000000000000000000000000600052603260045260246000fd5b9060005260206000200154905080876000018481548110612231577f4e487b7100000000000000000000000000000000000000000000000000000000600052603260045260246000fd5b9060005260206000200181905550838760010160008381526020019081526020016000208190555086600001805480612293577f4e487b7100000000000000000000000000000000000000000000000000000000600052603160045260246000fd5b600190038181906000526020600020016000905590558660010160008781526020019081526020016000206000905560019450505050506122d5565b60009150505b92915050565b600081836000018054905011612326576040517f08c379a000000000000000000000000000000000000000000000000000000000815260040161231d9061338e565b60405180910390fd5b826000018281548110612362577f4e487b7100000000000000000000000000000000000000000000000000000000600052603260045260246000fd5b9060005260206000200154905092915050565b600081600001805490509050919050565b600080836001016000848152602001908152602001600020541415905092915050565b6060600060028360026123bc9190613741565b6123c691906136eb565b67ffffffffffffffff811115612405577f4e487b7100000000000000000000000000000000000000000000000000000000600052604160045260246000fd5b6040519080825280601f01601f1916602001820160405280156124375781602001600182028036833780820191505090505b5090507f300000000000000000000000000000000000000000000000000000000000000081600081518110612495577f4e487b7100000000000000000000000000000000000000000000000000000000600052603260045260246000fd5b60200101907effffffffffffffffffffffffffffffffffffffffffffffffffffffffffffff1916908160001a9053507f78000000000000000000000000000000000000000000000000000000000000008160018151811061251f577f4e487b7100000000000000000000000000000000000000000000000000000000600052603260045260246000fd5b60200101907effffffffffffffffffffffffffffffffffffffffffffffffffffffffffffff1916908160001a9053506000600184600261255f9190613741565b61256991906136eb565b90505b6001811115612655577f3031323334353637383961626364656600000000000000000000000000000000600f8616601081106125d1577f4e487b7100000000000000000000000000000000000000000000000000000000600052603260045260246000fd5b1a60f81b82828151811061260e577f4e487b7100000000000000000000000000000000000000000000000000000000600052603260045260246000fd5b60200101907effffffffffffffffffffffffffffffffffffffffffffffffffffffffffffff1916908160001a905350600485901c94508061264e9061388d565b905061256c565b5060008414612699576040517f08c379a0000000000000000000000000000000000000000000000000000000008152600401612690906133ae565b60405180910390fd5b8091505092915050565b6000813590506126b281613958565b92915050565b6000813590506126c78161396f565b92915050565b6000813590506126dc81613986565b92915050565b6000813590506126f18161399d565b92915050565b60006020828403121561270957600080fd5b6000612717848285016126a3565b91505092915050565b6000806040838503121561273357600080fd5b6000612741858286016126a3565b9250506020612752858286016126a3565b9150509250929050565b60008060006060848603121561277157600080fd5b600061277f868287016126a3565b9350506020612790868287016126a3565b92505060406127a1868287016126e2565b9150509250925092565b600080604083850312156127be57600080fd5b60006127cc858286016126a3565b92505060206127dd858286016126e2565b9150509250929050565b6000602082840312156127f957600080fd5b6000612807848285016126b8565b91505092915050565b6000806040838503121561282357600080fd5b6000612831858286016126b8565b9250506020612842858286016126a3565b9150509250929050565b6000806040838503121561285f57600080fd5b600061286d858286016126b8565b925050602061287e858286016126e2565b9150509250929050565b60006020828403121561289a57600080fd5b60006128a8848285016126cd565b91505092915050565b6000602082840312156128c357600080fd5b60006128d1848285016126e2565b91505092915050565b6128e3816137cf565b82525050565b6128f2816137e1565b82525050565b612901816137ed565b82525050565b6000612912826136c4565b61291c81856136cf565b935061292c81856020860161385a565b61293581613947565b840191505092915050565b600061294b826136c4565b61295581856136e0565b935061296581856020860161385a565b80840191505092915050565b600061297e6022836136cf565b91507f456e756d657261626c655365743a20696e646578206f7574206f6620626f756e60008301527f64730000000000000000000000000000000000000000000000000000000000006020830152604082019050919050565b60006129e46020836136cf565b91507f537472696e67733a20686578206c656e67746820696e73756666696369656e746000830152602082019050919050565b6000612a246023836136cf565b91507f45524332303a207472616e7366657220746f20746865207a65726f206164647260008301527f65737300000000000000000000000000000000000000000000000000000000006020830152604082019050919050565b6000612a8a6014836136cf565b91507f5061757361626c653a206e6f74207061757365640000000000000000000000006000830152602082019050919050565b6000612aca6022836136cf565b91507f45524332303a206275726e20616d6f756e7420657863656564732062616c616e60008301527f63650000000000000000000000000000000000000000000000000000000000006020830152604082019050919050565b6000612b306039836136cf565b91507f45524332305072657365744d696e7465725061757365723a206d75737420686160008301527f76652070617573657220726f6c6520746f20756e7061757365000000000000006020830152604082019050919050565b6000612b966022836136cf565b91507f45524332303a20617070726f766520746f20746865207a65726f20616464726560008301527f73730000000000000000000000000000000000000000000000000000000000006020830152604082019050919050565b6000612bfc6026836136cf565b91507f45524332303a207472616e7366657220616d6f756e742065786365656473206260008301527f616c616e636500000000000000000000000000000000000000000000000000006020830152604082019050919050565b6000612c626010836136cf565b91507f5061757361626c653a20706175736564000000000000000000000000000000006000830152602082019050919050565b6000612ca26029836136cf565b91507f546f6b656e3a204d75737420686176652063617020726f6c6520746f2064656360008301527f72656173652063617000000000000000000000000000000000000000000000006020830152604082019050919050565b6000612d086027836136cf565b91507f4361702063616e6e6f7420626520736d616c6c6572207468616e20746f74616c60008301527f20737570706c79000000000000000000000000000000000000000000000000006020830152604082019050919050565b6000612d6e6029836136cf565b91507f546f6b656e3a204d75737420686176652063617020726f6c6520746f20696e6360008301527f72656173652063617000000000000000000000000000000000000000000000006020830152604082019050919050565b6000612dd46028836136cf565b91507f45524332303a207472616e7366657220616d6f756e742065786365656473206160008301527f6c6c6f77616e63650000000000000000000000000000000000000000000000006020830152604082019050919050565b6000612e3a6036836136cf565b91507f45524332305072657365744d696e7465725061757365723a206d75737420686160008301527f7665206d696e74657220726f6c6520746f206d696e74000000000000000000006020830152604082019050919050565b6000612ea06024836136cf565b91507f45524332303a206275726e20616d6f756e74206578636565647320616c6c6f7760008301527f616e6365000000000000000000000000000000000000000000000000000000006020830152604082019050919050565b6000612f066021836136cf565b91507f45524332303a206275726e2066726f6d20746865207a65726f2061646472657360008301527f73000000000000000000000000000000000000000000000000000000000000006020830152604082019050919050565b6000612f6c6025836136cf565b91507f45524332303a207472616e736665722066726f6d20746865207a65726f20616460008301527f64726573730000000000000000000000000000000000000000000000000000006020830152604082019050919050565b6000612fd26019836136cf565b91507f45524332304361707065643a20636170206578636565646564000000000000006000830152602082019050919050565b60006130126024836136cf565b91507f45524332303a20617070726f76652066726f6d20746865207a65726f2061646460008301527f72657373000000000000000000000000000000000000000000000000000000006020830152604082019050919050565b60006130786037836136cf565b91507f45524332305072657365744d696e7465725061757365723a206d75737420686160008301527f76652070617573657220726f6c6520746f2070617573650000000000000000006020830152604082019050919050565b60006130de6017836136e0565b91507f416363657373436f6e74726f6c3a206163636f756e74200000000000000000006000830152601782019050919050565b600061311e6025836136cf565b91507f45524332303a2064656372656173656420616c6c6f77616e63652062656c6f7760008301527f207a65726f0000000000000000000000000000000000000000000000000000006020830152604082019050919050565b60006131846011836136e0565b91507f206973206d697373696e6720726f6c65200000000000000000000000000000006000830152601182019050919050565b60006131c4602f836136cf565b91507f416363657373436f6e74726f6c3a2063616e206f6e6c792072656e6f756e636560008301527f20726f6c657320666f722073656c6600000000000000000000000000000000006020830152604082019050919050565b600061322a601f836136cf565b91507f45524332303a206d696e7420746f20746865207a65726f2061646472657373006000830152602082019050919050565b600061326a602a836136cf565b91507f45524332305061757361626c653a20746f6b656e207472616e7366657220776860008301527f696c6520706175736564000000000000000000000000000000000000000000006020830152604082019050919050565b6132cc81613843565b82525050565b6132db8161384d565b82525050565b60006132ec826130d1565b91506132f88285612940565b915061330382613177565b915061330f8284612940565b91508190509392505050565b600060208201905061333060008301846128da565b92915050565b600060208201905061334b60008301846128e9565b92915050565b600060208201905061336660008301846128f8565b92915050565b600060208201905081810360008301526133868184612907565b905092915050565b600060208201905081810360008301526133a781612971565b9050919050565b600060208201905081810360008301526133c7816129d7565b9050919050565b600060208201905081810360008301526133e781612a17565b9050919050565b6000602082019050818103600083015261340781612a7d565b9050919050565b6000602082019050818103600083015261342781612abd565b9050919050565b6000602082019050818103600083015261344781612b23565b9050919050565b6000602082019050818103600083015261346781612b89565b9050919050565b6000602082019050818103600083015261348781612bef565b9050919050565b600060208201905081810360008301526134a781612c55565b9050919050565b600060208201905081810360008301526134c781612c95565b9050919050565b600060208201905081810360008301526134e781612cfb565b9050919050565b6000602082019050818103600083015261350781612d61565b9050919050565b6000602082019050818103600083015261352781612dc7565b9050919050565b6000602082019050818103600083015261354781612e2d565b9050919050565b6000602082019050818103600083015261356781612e93565b9050919050565b6000602082019050818103600083015261358781612ef9565b9050919050565b600060208201905081810360008301526135a781612f5f565b9050919050565b600060208201905081810360008301526135c781612fc5565b9050919050565b600060208201905081810360008301526135e781613005565b9050919050565b600060208201905081810360008301526136078161306b565b9050919050565b6000602082019050818103600083015261362781613111565b9050919050565b60006020820190508181036000830152613647816131b7565b9050919050565b600060208201905081810360008301526136678161321d565b9050919050565b600060208201905081810360008301526136878161325d565b9050919050565b60006020820190506136a360008301846132c3565b92915050565b60006020820190506136be60008301846132d2565b92915050565b600081519050919050565b600082825260208201905092915050565b600081905092915050565b60006136f682613843565b915061370183613843565b9250827fffffffffffffffffffffffffffffffffffffffffffffffffffffffffffffffff03821115613736576137356138e9565b5b828201905092915050565b600061374c82613843565b915061375783613843565b9250817fffffffffffffffffffffffffffffffffffffffffffffffffffffffffffffffff04831182151516156137905761378f6138e9565b5b828202905092915050565b60006137a682613843565b91506137b183613843565b9250828210156137c4576137c36138e9565b5b828203905092915050565b60006137da82613823565b9050919050565b60008115159050919050565b6000819050919050565b60007fffffffff0000000000000000000000000000000000000000000000000000000082169050919050565b600073ffffffffffffffffffffffffffffffffffffffff82169050919050565b6000819050919050565b600060ff82169050919050565b60005b8381101561387857808201518184015260208101905061385d565b83811115613887576000848401525b50505050565b600061389882613843565b915060008214156138ac576138ab6138e9565b5b600182039050919050565b600060028204905060018216806138cf57607f821691505b602082108114156138e3576138e2613918565b5b50919050565b7f4e487b7100000000000000000000000000000000000000000000000000000000600052601160045260246000fd5b7f4e487b7100000000000000000000000000000000000000000000000000000000600052602260045260246000fd5b6000601f19601f8301169050919050565b613961816137cf565b811461396c57600080fd5b50565b613978816137ed565b811461398357600080fd5b50565b61398f816137f7565b811461399a57600080fd5b50565b6139a681613843565b81146139b157600080fd5b5056fea2646970667358221220221664698f82134351a0ea7844eb8d215a2bc18d443cbd8844a6423a8fd8b5ab64736f6c63430008000033",
  "immutableReferences": {},
  "source": "pragma solidity 0.8.0;\r\n\r\nimport \"../../node_modules/@openzeppelin/contracts/token/ERC20/ERC20.sol\";\r\nimport \"../../node_modules/@openzeppelin/contracts/access/AccessControlEnumerable.sol\";\r\nimport \"../../node_modules/@openzeppelin/contracts/utils/Context.sol\";\r\nimport \"../../node_modules/@openzeppelin/contracts/security/Pausable.sol\";\r\n\r\ncontract Token is ERC20, AccessControlEnumerable, Pausable {\r\n\r\n  bytes32 public constant MINTER_ROLE = keccak256(\"MINTER_ROLE\");\r\n  bytes32 public constant PAUSER_ROLE = keccak256(\"PAUSER_ROLE\");\r\n  bytes32 public constant CAP_ROLE = keccak256(\"CAP_ROLE\");\r\n\r\n  uint256 private _cap;\r\n\r\n  constructor(uint256 cap_, uint256 amount_) ERC20( \"Token\", \"TKN\") {\r\n\r\n    _setupRole(DEFAULT_ADMIN_ROLE, _msgSender());\r\n\r\n    _setupRole(MINTER_ROLE, _msgSender());\r\n    _setupRole(PAUSER_ROLE, _msgSender());\r\n    _setupRole(CAP_ROLE, _msgSender());\r\n\r\n    require(cap_ > 0, \"ERC20Capped: cap is 0\");\r\n      _cap = cap_;\r\n    require(amount_ <= cap_, \"Amount exceeds cap\");\r\n    _mint(msg.sender, amount_);\r\n  }\r\n\r\n\r\n  function increaseCap(uint256 _amount) public whenNotPaused {\r\n      require(hasRole(CAP_ROLE, _msgSender()), \"Token: Must have cap role to increase cap\");\r\n      _increaseCap(_amount);\r\n  }\r\n\r\n  function decreaseCap(uint256 _amount) public whenNotPaused {\r\n      require(hasRole(CAP_ROLE, _msgSender()), \"Token: Must have cap role to decrease cap\");\r\n      _decreaseCap(_amount);\r\n  }\r\n\r\n  function _increaseCap(uint256 _amount) internal {\r\n      _cap += _amount;\r\n      assert(cap() >= totalSupply());\r\n  }\r\n\r\n  function _decreaseCap(uint256 _amount) internal {\r\n      _cap -= _amount;\r\n      require(cap() >= totalSupply(), \"Cap cannot be smaller than total supply\");\r\n  }\r\n\r\n\r\n//Checks the current cap;\r\n    function cap() public view virtual returns (uint256) {\r\n        return _cap;\r\n    }\r\n\r\n//Checks the current circulating supply;\r\n    function totalSupply() public view virtual override returns (uint256) {\r\n        return ERC20.totalSupply();\r\n    }\r\n\r\n    function mint(address account, uint256 amount) public whenNotPaused {\r\n        require(hasRole(MINTER_ROLE, _msgSender()), \"ERC20PresetMinterPauser: must have minter role to mint\");\r\n        require(totalSupply() + amount <= cap(), \"ERC20Capped: cap exceeded\");\r\n        _mint(account, amount);\r\n    }\r\n\r\n\r\n\r\n    function transfer(address recipient, uint256 amount) public virtual override(ERC20) whenNotPaused returns (bool) {\r\n        _transfer(_msgSender(), recipient, amount);\r\n        return true;\r\n    }\r\n\r\n    function _beforeTokenTransfer(address from, address to, uint256 amount) internal virtual override {\r\n        super._beforeTokenTransfer(from, to, amount);\r\n\r\n        require(!paused(), \"ERC20Pausable: token transfer while paused\");\r\n    }\r\n\r\n    function pause() public virtual {\r\n        require(hasRole(PAUSER_ROLE, _msgSender()), \"ERC20PresetMinterPauser: must have pauser role to pause\");\r\n        _pause();\r\n    }\r\n\r\n    function unpause() public virtual {\r\n        require(hasRole(PAUSER_ROLE, _msgSender()), \"ERC20PresetMinterPauser: must have pauser role to unpause\");\r\n        _unpause();\r\n    }\r\n\r\n    function burn(uint256 amount) public virtual {\r\n        _burn(_msgSender(), amount);\r\n    }\r\n\r\n    function burnFrom(address account, uint256 amount) public virtual {\r\n        uint256 currentAllowance = allowance(account, _msgSender());\r\n        require(currentAllowance >= amount, \"ERC20: burn amount exceeds allowance\");\r\n        _approve(account, _msgSender(), currentAllowance - amount);\r\n        _burn(account, amount);\r\n    }\r\n\r\n}\r\n",
  "sourcePath": "c:/Users/Raychel Angel/Truffle/TestCoin/contracts/Token.sol",
  "compiler": {
    "name": "solc",
    "version": "0.8.0+commit.c7dfd78e.Emscripten.clang"
  },
  "schemaVersion": "3.3.4",
  "updatedAt": "2021-06-10T21:49:01.821Z",
  "networkType": "ethereum",
  "devdoc": {
    "kind": "dev",
    "methods": {
      "allowance(address,address)": {
        "details": "Returns the remaining number of tokens that `spender` will be allowed to spend on behalf of `owner` through {transferFrom}. This is zero by default. This value changes when {approve} or {transferFrom} are called."
      },
      "approve(address,uint256)": {
        "details": "Sets `amount` as the allowance of `spender` over the caller's tokens. Returns a boolean value indicating whether the operation succeeded. IMPORTANT: Beware that changing an allowance with this method brings the risk that someone may use both the old and the new allowance by unfortunate transaction ordering. One possible solution to mitigate this race condition is to first reduce the spender's allowance to 0 and set the desired value afterwards: https://github.com/ethereum/EIPs/issues/20#issuecomment-263524729 Emits an {Approval} event."
      },
      "balanceOf(address)": {
        "details": "Returns the amount of tokens owned by `account`."
      },
      "decimals()": {
        "details": "Returns the decimals places of the token."
      },
      "getRoleAdmin(bytes32)": {
        "details": "Returns the admin role that controls `role`. See {grantRole} and {revokeRole}. To change a role's admin, use {_setRoleAdmin}."
      },
      "getRoleMember(bytes32,uint256)": {
        "details": "Returns one of the accounts that have `role`. `index` must be a value between 0 and {getRoleMemberCount}, non-inclusive. Role bearers are not sorted in any particular way, and their ordering may change at any point. WARNING: When using {getRoleMember} and {getRoleMemberCount}, make sure you perform all queries on the same block. See the following https://forum.openzeppelin.com/t/iterating-over-elements-on-enumerableset-in-openzeppelin-contracts/2296[forum post] for more information."
      },
      "getRoleMemberCount(bytes32)": {
        "details": "Returns the number of accounts that have `role`. Can be used together with {getRoleMember} to enumerate all bearers of a role."
      },
      "grantRole(bytes32,address)": {
        "details": "Overload {grantRole} to track enumerable memberships"
      },
      "hasRole(bytes32,address)": {
        "details": "Returns `true` if `account` has been granted `role`."
      },
      "name()": {
        "details": "Returns the name of the token."
      },
      "renounceRole(bytes32,address)": {
        "details": "Overload {renounceRole} to track enumerable memberships"
      },
      "revokeRole(bytes32,address)": {
        "details": "Overload {revokeRole} to track enumerable memberships"
      },
      "supportsInterface(bytes4)": {
        "details": "See {IERC165-supportsInterface}."
      },
      "symbol()": {
        "details": "Returns the symbol of the token."
      },
      "totalSupply()": {
        "details": "Returns the amount of tokens in existence."
      },
      "transfer(address,uint256)": {
        "details": "Moves `amount` tokens from the caller's account to `recipient`. Returns a boolean value indicating whether the operation succeeded. Emits a {Transfer} event."
      },
      "transferFrom(address,address,uint256)": {
        "details": "Moves `amount` tokens from `sender` to `recipient` using the allowance mechanism. `amount` is then deducted from the caller's allowance. Returns a boolean value indicating whether the operation succeeded. Emits a {Transfer} event."
      }
    },
    "version": 1
  },
  "userdoc": {
    "kind": "user",
    "methods": {},
    "version": 1
  }
}