{
  "contractName": "MultiWallet",
  "abi": [
    {
      "inputs": [
        {
          "internalType": "string",
          "name": "_LeadName",
          "type": "string"
        },
        {
          "internalType": "address",
          "name": "_LeadAddress",
          "type": "address"
        }
      ],
      "stateMutability": "nonpayable",
      "type": "constructor"
    },
    {
      "anonymous": false,
      "inputs": [
        {
          "indexed": true,
          "internalType": "address",
          "name": "previousOwner",
          "type": "address"
        },
        {
          "indexed": true,
          "internalType": "address",
          "name": "newOwner",
          "type": "address"
        }
      ],
      "name": "OwnershipTransferred",
      "type": "event"
    },
    {
      "anonymous": false,
      "inputs": [
        {
          "indexed": false,
          "internalType": "uint256",
          "name": "txID",
          "type": "uint256"
        },
        {
          "indexed": false,
          "internalType": "uint256",
          "name": "adminID",
          "type": "uint256"
        }
      ],
      "name": "adminApproval",
      "type": "event"
    },
    {
      "anonymous": false,
      "inputs": [
        {
          "indexed": false,
          "internalType": "uint256",
          "name": "txID",
          "type": "uint256"
        }
      ],
      "name": "transactionApproved",
      "type": "event"
    },
    {
      "anonymous": false,
      "inputs": [
        {
          "indexed": false,
          "internalType": "uint256",
          "name": "txID",
          "type": "uint256"
        },
        {
          "indexed": false,
          "internalType": "uint256",
          "name": "adminID",
          "type": "uint256"
        }
      ],
      "name": "transactionCancelled",
      "type": "event"
    },
    {
      "anonymous": false,
      "inputs": [
        {
          "indexed": false,
          "internalType": "address",
          "name": "sender",
          "type": "address"
        },
        {
          "indexed": false,
          "internalType": "address",
          "name": "receiver",
          "type": "address"
        },
        {
          "indexed": false,
          "internalType": "uint256",
          "name": "amount",
          "type": "uint256"
        }
      ],
      "name": "transactionDetails",
      "type": "event"
    },
    {
      "anonymous": false,
      "inputs": [
        {
          "indexed": false,
          "internalType": "uint256",
          "name": "txID",
          "type": "uint256"
        }
      ],
      "name": "transactionFailure",
      "type": "event"
    },
    {
      "anonymous": false,
      "inputs": [
        {
          "indexed": false,
          "internalType": "uint256",
          "name": "txID",
          "type": "uint256"
        },
        {
          "indexed": false,
          "internalType": "uint256",
          "name": "adminID",
          "type": "uint256"
        },
        {
          "indexed": false,
          "internalType": "string",
          "name": "ApprovalStatus",
          "type": "string"
        }
      ],
      "name": "transactionSubmitted",
      "type": "event"
    },
    {
      "anonymous": false,
      "inputs": [
        {
          "indexed": false,
          "internalType": "uint256",
          "name": "txID",
          "type": "uint256"
        }
      ],
      "name": "transactionSuccess",
      "type": "event"
    },
    {
      "inputs": [
        {
          "internalType": "uint256",
          "name": "",
          "type": "uint256"
        }
      ],
      "name": "Admins",
      "outputs": [
        {
          "internalType": "uint256",
          "name": "adminID",
          "type": "uint256"
        },
        {
          "internalType": "string",
          "name": "adminName",
          "type": "string"
        },
        {
          "internalType": "address",
          "name": "adminAddress",
          "type": "address"
        }
      ],
      "stateMutability": "view",
      "type": "function"
    },
    {
      "inputs": [
        {
          "internalType": "uint256",
          "name": "",
          "type": "uint256"
        }
      ],
      "name": "ApprovalStatus",
      "outputs": [
        {
          "internalType": "enum MultiWallet.APPROVE",
          "name": "",
          "type": "uint8"
        }
      ],
      "stateMutability": "view",
      "type": "function"
    },
    {
      "inputs": [
        {
          "internalType": "uint256",
          "name": "",
          "type": "uint256"
        }
      ],
      "name": "IDToAddress",
      "outputs": [
        {
          "internalType": "address",
          "name": "",
          "type": "address"
        }
      ],
      "stateMutability": "view",
      "type": "function"
    },
    {
      "inputs": [],
      "name": "LeadAddress",
      "outputs": [
        {
          "internalType": "address payable",
          "name": "",
          "type": "address"
        }
      ],
      "stateMutability": "view",
      "type": "function"
    },
    {
      "inputs": [
        {
          "internalType": "string",
          "name": "_adminName",
          "type": "string"
        },
        {
          "internalType": "address payable",
          "name": "_address",
          "type": "address"
        }
      ],
      "name": "addAdmin",
      "outputs": [],
      "stateMutability": "nonpayable",
      "type": "function"
    },
    {
      "inputs": [
        {
          "internalType": "address",
          "name": "",
          "type": "address"
        }
      ],
      "name": "addressToID",
      "outputs": [
        {
          "internalType": "uint256",
          "name": "",
          "type": "uint256"
        }
      ],
      "stateMutability": "view",
      "type": "function"
    },
    {
      "inputs": [
        {
          "internalType": "uint256",
          "name": "_adminID",
          "type": "uint256"
        }
      ],
      "name": "getAdmin",
      "outputs": [
        {
          "internalType": "uint256",
          "name": "userID",
          "type": "uint256"
        },
        {
          "internalType": "string",
          "name": "userName",
          "type": "string"
        },
        {
          "internalType": "address",
          "name": "adminAddress",
          "type": "address"
        }
      ],
      "stateMutability": "view",
      "type": "function"
    },
    {
      "inputs": [],
      "name": "owner",
      "outputs": [
        {
          "internalType": "address",
          "name": "",
          "type": "address"
        }
      ],
      "stateMutability": "view",
      "type": "function"
    },
    {
      "inputs": [
        {
          "internalType": "uint256",
          "name": "_adminID",
          "type": "uint256"
        }
      ],
      "name": "removeAdmin",
      "outputs": [],
      "stateMutability": "nonpayable",
      "type": "function"
    },
    {
      "inputs": [],
      "name": "renounceOwnership",
      "outputs": [],
      "stateMutability": "nonpayable",
      "type": "function"
    },
    {
      "inputs": [
        {
          "internalType": "uint256",
          "name": "",
          "type": "uint256"
        }
      ],
      "name": "requestHistory",
      "outputs": [
        {
          "internalType": "uint256",
          "name": "txID",
          "type": "uint256"
        },
        {
          "internalType": "address payable",
          "name": "toAddress",
          "type": "address"
        },
        {
          "internalType": "address",
          "name": "fromAddress",
          "type": "address"
        },
        {
          "internalType": "uint256",
          "name": "amount",
          "type": "uint256"
        },
        {
          "internalType": "string",
          "name": "approvalStatus",
          "type": "string"
        }
      ],
      "stateMutability": "view",
      "type": "function"
    },
    {
      "inputs": [
        {
          "internalType": "address",
          "name": "newOwner",
          "type": "address"
        }
      ],
      "name": "transferOwnership",
      "outputs": [],
      "stateMutability": "nonpayable",
      "type": "function"
    },
    {
      "inputs": [
        {
          "internalType": "uint256",
          "name": "",
          "type": "uint256"
        }
      ],
      "name": "txnIDToIndex",
      "outputs": [
        {
          "internalType": "uint256",
          "name": "",
          "type": "uint256"
        }
      ],
      "stateMutability": "view",
      "type": "function"
    },
    {
      "inputs": [
        {
          "internalType": "address",
          "name": "",
          "type": "address"
        }
      ],
      "name": "walletBalance",
      "outputs": [
        {
          "internalType": "uint256",
          "name": "",
          "type": "uint256"
        }
      ],
      "stateMutability": "view",
      "type": "function"
    },
    {
      "inputs": [
        {
          "internalType": "address payable",
          "name": "_recipient",
          "type": "address"
        },
        {
          "internalType": "uint256",
          "name": "_amount",
          "type": "uint256"
        }
      ],
      "name": "submitTransaction",
      "outputs": [
        {
          "internalType": "bool",
          "name": "success",
          "type": "bool"
        }
      ],
      "stateMutability": "nonpayable",
      "type": "function"
    },
    {
      "inputs": [
        {
          "internalType": "uint256",
          "name": "_txID",
          "type": "uint256"
        }
      ],
      "name": "confirmTransfer",
      "outputs": [],
      "stateMutability": "nonpayable",
      "type": "function"
    },
    {
      "inputs": [
        {
          "internalType": "uint256",
          "name": "_txID",
          "type": "uint256"
        }
      ],
      "name": "cancelTransaction",
      "outputs": [],
      "stateMutability": "nonpayable",
      "type": "function"
    },
    {
      "inputs": [],
      "name": "clearFailed",
      "outputs": [],
      "stateMutability": "nonpayable",
      "type": "function"
    },
    {
      "inputs": [],
      "name": "depositETH",
      "outputs": [],
      "stateMutability": "payable",
      "type": "function"
    },
    {
      "inputs": [],
      "name": "getBalance",
      "outputs": [
        {
          "internalType": "uint256",
          "name": "",
          "type": "uint256"
        }
      ],
      "stateMutability": "view",
      "type": "function"
    },
    {
      "inputs": [
        {
          "internalType": "uint256",
          "name": "_txID",
          "type": "uint256"
        }
      ],
      "name": "getTransfer",
      "outputs": [
        {
          "internalType": "uint256",
          "name": "ID",
          "type": "uint256"
        },
        {
          "internalType": "address",
          "name": "fromAddress",
          "type": "address"
        },
        {
          "internalType": "address",
          "name": "toAddress",
          "type": "address"
        },
        {
          "internalType": "uint256",
          "name": "amount",
          "type": "uint256"
        },
        {
          "internalType": "string",
          "name": "approvalStatus",
          "type": "string"
        }
      ],
      "stateMutability": "view",
      "type": "function"
    },
    {
      "inputs": [],
      "name": "getPending",
      "outputs": [
        {
          "internalType": "uint256",
          "name": "",
          "type": "uint256"
        }
      ],
      "stateMutability": "view",
      "type": "function"
    },
    {
      "inputs": [],
      "name": "getRequestHistory",
      "outputs": [
        {
          "components": [
            {
              "internalType": "uint256",
              "name": "txID",
              "type": "uint256"
            },
            {
              "internalType": "address payable",
              "name": "toAddress",
              "type": "address"
            },
            {
              "internalType": "address",
              "name": "fromAddress",
              "type": "address"
            },
            {
              "internalType": "uint256",
              "name": "amount",
              "type": "uint256"
            },
            {
              "internalType": "string",
              "name": "approvalStatus",
              "type": "string"
            }
          ],
          "internalType": "struct MultiWallet.txnRequest[]",
          "name": "",
          "type": "tuple[]"
        }
      ],
      "stateMutability": "view",
      "type": "function"
    },
    {
      "inputs": [],
      "name": "getRequestHistoryLength",
      "outputs": [
        {
          "internalType": "uint256",
          "name": "length",
          "type": "uint256"
        }
      ],
      "stateMutability": "view",
      "type": "function"
    },
    {
      "inputs": [],
      "name": "Close",
      "outputs": [],
      "stateMutability": "nonpayable",
      "type": "function"
    }
  ],
  "bytecode": "0x6080604052600260065530600760006101000a81548173ffffffffffffffffffffffffffffffffffffffff021916908373ffffffffffffffffffffffffffffffffffffffff1602179055506000600c553480156200005c57600080fd5b506040516200487238038062004872833981810160405281019062000082919062000395565b6000620000946200025460201b60201c565b9050806000806101000a81548173ffffffffffffffffffffffffffffffffffffffff021916908373ffffffffffffffffffffffffffffffffffffffff1602179055508073ffffffffffffffffffffffffffffffffffffffff16600073ffffffffffffffffffffffffffffffffffffffff167f8be0079c531659141344cd1fd0a4f28419497f9722a3daafe3b4186f6b6457e060405160405180910390a35080600860006101000a81548173ffffffffffffffffffffffffffffffffffffffff021916908373ffffffffffffffffffffffffffffffffffffffff1602179055506000604051806060016040528060058054905081526020018481526020013373ffffffffffffffffffffffffffffffffffffffff1681525090506005819080600181540180825580915050600190039060005260206000209060030201600090919091909150600082015181600001556020820151816001019080519060200190620002019291906200025c565b5060408201518160020160006101000a81548173ffffffffffffffffffffffffffffffffffffffff021916908373ffffffffffffffffffffffffffffffffffffffff16021790555050505050506200056e565b600033905090565b8280546200026a90620004c0565b90600052602060002090601f0160209004810192826200028e5760008555620002da565b82601f10620002a957805160ff1916838001178555620002da565b82800160010185558215620002da579182015b82811115620002d9578251825591602001919060010190620002bc565b5b509050620002e99190620002ed565b5090565b5b8082111562000308576000816000905550600101620002ee565b5090565b6000620003236200031d8462000423565b620003ef565b9050828152602081018484840111156200033c57600080fd5b620003498482856200048a565b509392505050565b600081519050620003628162000554565b92915050565b600082601f8301126200037a57600080fd5b81516200038c8482602086016200030c565b91505092915050565b60008060408385031215620003a957600080fd5b600083015167ffffffffffffffff811115620003c457600080fd5b620003d28582860162000368565b9250506020620003e58582860162000351565b9150509250929050565b6000604051905081810181811067ffffffffffffffff8211171562000419576200041862000525565b5b8060405250919050565b600067ffffffffffffffff82111562000441576200044062000525565b5b601f19601f8301169050602081019050919050565b600062000463826200046a565b9050919050565b600073ffffffffffffffffffffffffffffffffffffffff82169050919050565b60005b83811015620004aa5780820151818401526020810190506200048d565b83811115620004ba576000848401525b50505050565b60006002820490506001821680620004d957607f821691505b60208210811415620004f057620004ef620004f6565b5b50919050565b7f4e487b7100000000000000000000000000000000000000000000000000000000600052602260045260246000fd5b7f4e487b7100000000000000000000000000000000000000000000000000000000600052604160045260246000fd5b6200055f8162000456565b81146200056b57600080fd5b50565b6142f4806200057e6000396000f3fe6080604052600436106101665760003560e01c80638da5cb5b116100d1578063bd28fa271161008a578063ccdbbc3811610064578063ccdbbc3814610570578063cf9cd8f814610587578063f2fde38b146105c4578063f6326fb3146105ed57610166565b8063bd28fa27146104db578063c16fe90714610518578063c35789cc1461055957610166565b80638da5cb5b146103a35780639f89a4b2146103ce578063aa2f45381461040d578063aaa86b081461044a578063ad7bbc2914610475578063b879b3b31461049e57610166565b80632c48e7db116101235780632c48e7db146102915780633380c0d8146102ba578063624f0026146102e3578063715018a61461030e5780638694142b146103255780638cfbf6ac1461036257610166565b80630831b05f1461016b578063111fd88b1461019457806311ae9ed2146101d357806312065fe0146101fe57806315bd5fd7146102295780631d43b65314610254575b600080fd5b34801561017757600080fd5b50610192600480360381019061018d919061369d565b6105f7565b005b3480156101a057600080fd5b506101bb60048036038101906101b691906136f1565b6107ec565b6040516101ca93929190613e32565b60405180910390f35b3480156101df57600080fd5b506101e861098e565b6040516101f59190613d63565b60405180910390f35b34801561020a57600080fd5b50610213610c85565b6040516102209190613d63565b60405180910390f35b34801561023557600080fd5b5061023e610cee565b60405161024b9190613bb9565b60405180910390f35b34801561026057600080fd5b5061027b60048036038101906102769190613661565b610d14565b6040516102889190613c2d565b60405180910390f35b34801561029d57600080fd5b506102b860048036038101906102b391906136f1565b611052565b005b3480156102c657600080fd5b506102e160048036038101906102dc91906136f1565b6116b5565b005b3480156102ef57600080fd5b506102f861187d565b6040516103059190613d63565b60405180910390f35b34801561031a57600080fd5b5061032361188a565b005b34801561033157600080fd5b5061034c60048036038101906103479190613638565b6119c4565b6040516103599190613d63565b60405180910390f35b34801561036e57600080fd5b50610389600480360381019061038491906136f1565b6119dc565b60405161039a959493929190613d7e565b60405180910390f35b3480156103af57600080fd5b506103b8611aea565b6040516103c59190613b9e565b60405180910390f35b3480156103da57600080fd5b506103f560048036038101906103f091906136f1565b611b13565b60405161040493929190613e32565b60405180910390f35b34801561041957600080fd5b50610434600480360381019061042f91906136f1565b611bf5565b6040516104419190613d63565b60405180910390f35b34801561045657600080fd5b5061045f611c0d565b60405161046c9190613c0b565b60405180910390f35b34801561048157600080fd5b5061049c600480360381019061049791906136f1565b611dbe565b005b3480156104aa57600080fd5b506104c560048036038101906104c091906136f1565b6121cd565b6040516104d29190613b9e565b60405180910390f35b3480156104e757600080fd5b5061050260048036038101906104fd91906136f1565b612200565b60405161050f9190613c48565b60405180910390f35b34801561052457600080fd5b5061053f600480360381019061053a91906136f1565b612220565b604051610550959493929190613dd8565b60405180910390f35b34801561056557600080fd5b5061056e61249b565b005b34801561057c57600080fd5b50610585612552565b005b34801561059357600080fd5b506105ae60048036038101906105a99190613638565b61261c565b6040516105bb9190613d63565b60405180910390f35b3480156105d057600080fd5b506105eb60048036038101906105e69190613638565b612634565b005b6105f56127dd565b005b6105ff61289a565b73ffffffffffffffffffffffffffffffffffffffff1661061d611aea565b73ffffffffffffffffffffffffffffffffffffffff1614610673576040517f08c379a000000000000000000000000000000000000000000000000000000000815260040161066a90613d03565b60405180910390fd5b6000604051806060016040528060058054905081526020018481526020018373ffffffffffffffffffffffffffffffffffffffff16815250905081600160008360000151815260200190815260200160002060006101000a81548173ffffffffffffffffffffffffffffffffffffffff021916908373ffffffffffffffffffffffffffffffffffffffff1602179055508060000151600260008473ffffffffffffffffffffffffffffffffffffffff1673ffffffffffffffffffffffffffffffffffffffff16815260200190815260200160002081905550600581908060018154018082558091505060019003906000526020600020906003020160009091909190915060008201518160000155602082015181600101908051906020019061079d9291906134ae565b5060408201518160020160006101000a81548173ffffffffffffffffffffffffffffffffffffffff021916908373ffffffffffffffffffffffffffffffffffffffff1602179055505050505050565b6000606060006005848154811061082c577f4e487b7100000000000000000000000000000000000000000000000000000000600052603260045260246000fd5b90600052602060002090600302016000015460058581548110610878577f4e487b7100000000000000000000000000000000000000000000000000000000600052603260045260246000fd5b9060005260206000209060030201600101600586815481106108c3577f4e487b7100000000000000000000000000000000000000000000000000000000600052603260045260246000fd5b906000526020600020906003020160020160009054906101000a900473ffffffffffffffffffffffffffffffffffffffff168180546109019061411d565b80601f016020809104026020016040519081016040528092919081815260200182805461092d9061411d565b801561097a5780601f1061094f5761010080835404028352916020019161097a565b820191906000526020600020905b81548152906001019060200180831161095d57829003601f168201915b505050505091509250925092509193909250565b6000806000905060005b6109a061187d565b811015610c7d57600160038111156109e1577f4e487b7100000000000000000000000000000000000000000000000000000000600052602160045260246000fd5b60096000600d8481548110610a1f577f4e487b7100000000000000000000000000000000000000000000000000000000600052603260045260246000fd5b906000526020600020906005020160000154815260200190815260200160002060009054906101000a900460ff166003811115610a85577f4e487b7100000000000000000000000000000000000000000000000000000000600052602160045260246000fd5b1480610b6c575060006003811115610ac6577f4e487b7100000000000000000000000000000000000000000000000000000000600052602160045260246000fd5b60096000600d8481548110610b04577f4e487b7100000000000000000000000000000000000000000000000000000000600052603260045260246000fd5b906000526020600020906005020160000154815260200190815260200160002060009054906101000a900460ff166003811115610b6a577f4e487b7100000000000000000000000000000000000000000000000000000000600052602160045260246000fd5b145b15610b80578180610b7c9061414f565b9250505b60026003811115610bba577f4e487b7100000000000000000000000000000000000000000000000000000000600052602160045260246000fd5b60096000600d8481548110610bf8577f4e487b7100000000000000000000000000000000000000000000000000000000600052603260045260246000fd5b906000526020600020906005020160000154815260200190815260200160002060009054906101000a900460ff166003811115610c5e577f4e487b7100000000000000000000000000000000000000000000000000000000600052602160045260246000fd5b1415610c6957610c6a565b5b8080610c759061414f565b915050610998565b508091505090565b6000600a6000600760009054906101000a900473ffffffffffffffffffffffffffffffffffffffff1673ffffffffffffffffffffffffffffffffffffffff1673ffffffffffffffffffffffffffffffffffffffff16815260200190815260200160002054905090565b600860009054906101000a900473ffffffffffffffffffffffffffffffffffffffff1681565b600081610d1f610c85565b1015610d60576040517f08c379a0000000000000000000000000000000000000000000000000000000008152600401610d5790613ca3565b60405180910390fd5b6000600c549050600033905060006009600084815260200190815260200160002060006101000a81548160ff02191690836003811115610dc9577f4e487b7100000000000000000000000000000000000000000000000000000000600052602160045260246000fd5b0217905550610dd661187d565b600b60008481526020019081526020016000208190555060006040518060400160405280600981526020017f5375626d6974746564000000000000000000000000000000000000000000000081525090507f65f66007cb7186c9f76d48e85b5866395f2edfea78687fc8faf8301149f3f1488360026000610e5561289a565b73ffffffffffffffffffffffffffffffffffffffff1673ffffffffffffffffffffffffffffffffffffffff16815260200190815260200160002054604051610e9e929190613e99565b60405180910390a17f41d0040598f49c0267ecce0551920820b622a5295cbb15148a4c5476bd2ec953610ecf61289a565b8787604051610ee093929190613bd4565b60405180910390a160006040518060a001604052808581526020018873ffffffffffffffffffffffffffffffffffffffff1681526020018473ffffffffffffffffffffffffffffffffffffffff168152602001878152602001838152509050600d8190806001815401808255809150506001900390600052602060002090600502016000909190919091506000820151816000015560208201518160010160006101000a81548173ffffffffffffffffffffffffffffffffffffffff021916908373ffffffffffffffffffffffffffffffffffffffff16021790555060408201518160020160006101000a81548173ffffffffffffffffffffffffffffffffffffffff021916908373ffffffffffffffffffffffffffffffffffffffff1602179055506060820151816003015560808201518160040190805190602001906110299291906134ae565b505050600c600081548092919061103f9061414f565b9190505550600194505050505092915050565b8060001515600360003373ffffffffffffffffffffffffffffffffffffffff1673ffffffffffffffffffffffffffffffffffffffff168152602001908152602001600020600083815260200190815260200160002060009054906101000a900460ff161515146110f7576040517f08c379a00000000000000000000000000000000000000000000000000000000081526004016110ee90613c63565b60405180910390fd5b6000600b600084815260200190815260200160002054905060026003811115611149577f4e487b7100000000000000000000000000000000000000000000000000000000600052602160045260246000fd5b6009600085815260200190815260200160002060009054906101000a900460ff1660038111156111a2577f4e487b7100000000000000000000000000000000000000000000000000000000600052602160045260246000fd5b14156111e3576040517f08c379a00000000000000000000000000000000000000000000000000000000081526004016111da90613d23565b60405180910390fd5b6000600381111561121d577f4e487b7100000000000000000000000000000000000000000000000000000000600052602160045260246000fd5b6009600085815260200190815260200160002060009054906101000a900460ff166003811115611276577f4e487b7100000000000000000000000000000000000000000000000000000000600052602160045260246000fd5b148061131157506003808111156112b6577f4e487b7100000000000000000000000000000000000000000000000000000000600052602160045260246000fd5b6009600085815260200190815260200160002060009054906101000a900460ff16600381111561130f577f4e487b7100000000000000000000000000000000000000000000000000000000600052602160045260246000fd5b145b1561140e5760016009600085815260200190815260200160002060006101000a81548160ff02191690836003811115611373577f4e487b7100000000000000000000000000000000000000000000000000000000600052602160045260246000fd5b02179055506040518060400160405280600781526020017f50656e64696e6700000000000000000000000000000000000000000000000000815250600d82815481106113e8577f4e487b7100000000000000000000000000000000000000000000000000000000600052603260045260246000fd5b9060005260206000209060050201600401908051906020019061140c9291906134ae565b505b6000600d828154811061144a577f4e487b7100000000000000000000000000000000000000000000000000000000600052603260045260246000fd5b90600052602060002090600502016040518060a0016040529081600082015481526020016001820160009054906101000a900473ffffffffffffffffffffffffffffffffffffffff1673ffffffffffffffffffffffffffffffffffffffff1673ffffffffffffffffffffffffffffffffffffffff1681526020016002820160009054906101000a900473ffffffffffffffffffffffffffffffffffffffff1673ffffffffffffffffffffffffffffffffffffffff1673ffffffffffffffffffffffffffffffffffffffff168152602001600382015481526020016004820180546115339061411d565b80601f016020809104026020016040519081016040528092919081815260200182805461155f9061411d565b80156115ac5780601f10611581576101008083540402835291602001916115ac565b820191906000526020600020905b81548152906001019060200180831161158f57829003601f168201915b50505050508152505090506001600360003373ffffffffffffffffffffffffffffffffffffffff1673ffffffffffffffffffffffffffffffffffffffff168152602001908152602001600020600086815260200190815260200160002060006101000a81548160ff0219169083151502179055507fd68f50ed5c52200dd12d73b575350f2609bda8ca754538a8d1bd14fbc40dd28784600260003373ffffffffffffffffffffffffffffffffffffffff1673ffffffffffffffffffffffffffffffffffffffff16815260200190815260200160002054604051611690929190613e70565b60405180910390a16116af8160000151826020015183606001516128a2565b50505050565b6000600b60008381526020019081526020016000205490506116d561289a565b73ffffffffffffffffffffffffffffffffffffffff16600d8281548110611725577f4e487b7100000000000000000000000000000000000000000000000000000000600052603260045260246000fd5b906000526020600020906005020160020160009054906101000a900473ffffffffffffffffffffffffffffffffffffffff1673ffffffffffffffffffffffffffffffffffffffff1614806117b2575061177c611aea565b73ffffffffffffffffffffffffffffffffffffffff1661179a61289a565b73ffffffffffffffffffffffffffffffffffffffff16145b6117f1576040517f08c379a00000000000000000000000000000000000000000000000000000000081526004016117e890613cc3565b60405180910390fd5b6117fa81612c70565b7f0e82efb8f71a93343b776a7f5af67a694c1d19c6004a7ad1dd4521b475d0f778826002600061182861289a565b73ffffffffffffffffffffffffffffffffffffffff1673ffffffffffffffffffffffffffffffffffffffff16815260200190815260200160002054604051611871929190613e70565b60405180910390a15050565b6000600d80549050905090565b61189261289a565b73ffffffffffffffffffffffffffffffffffffffff166118b0611aea565b73ffffffffffffffffffffffffffffffffffffffff1614611906576040517f08c379a00000000000000000000000000000000000000000000000000000000081526004016118fd90613d03565b60405180910390fd5b600073ffffffffffffffffffffffffffffffffffffffff1660008054906101000a900473ffffffffffffffffffffffffffffffffffffffff1673ffffffffffffffffffffffffffffffffffffffff167f8be0079c531659141344cd1fd0a4f28419497f9722a3daafe3b4186f6b6457e060405160405180910390a360008060006101000a81548173ffffffffffffffffffffffffffffffffffffffff021916908373ffffffffffffffffffffffffffffffffffffffff160217905550565b60026020528060005260406000206000915090505481565b600d81815481106119ec57600080fd5b90600052602060002090600502016000915090508060000154908060010160009054906101000a900473ffffffffffffffffffffffffffffffffffffffff16908060020160009054906101000a900473ffffffffffffffffffffffffffffffffffffffff1690806003015490806004018054611a679061411d565b80601f0160208091040260200160405190810160405280929190818152602001828054611a939061411d565b8015611ae05780601f10611ab557610100808354040283529160200191611ae0565b820191906000526020600020905b815481529060010190602001808311611ac357829003601f168201915b5050505050905085565b60008060009054906101000a900473ffffffffffffffffffffffffffffffffffffffff16905090565b60058181548110611b2357600080fd5b9060005260206000209060030201600091509050806000015490806001018054611b4c9061411d565b80601f0160208091040260200160405190810160405280929190818152602001828054611b789061411d565b8015611bc55780601f10611b9a57610100808354040283529160200191611bc5565b820191906000526020600020905b815481529060010190602001808311611ba857829003601f168201915b5050505050908060020160009054906101000a900473ffffffffffffffffffffffffffffffffffffffff16905083565b600b6020528060005260406000206000915090505481565b6060600d805480602002602001604051908101604052809291908181526020016000905b82821015611db557838290600052602060002090600502016040518060a0016040529081600082015481526020016001820160009054906101000a900473ffffffffffffffffffffffffffffffffffffffff1673ffffffffffffffffffffffffffffffffffffffff1673ffffffffffffffffffffffffffffffffffffffff1681526020016002820160009054906101000a900473ffffffffffffffffffffffffffffffffffffffff1673ffffffffffffffffffffffffffffffffffffffff1673ffffffffffffffffffffffffffffffffffffffff16815260200160038201548152602001600482018054611d249061411d565b80601f0160208091040260200160405190810160405280929190818152602001828054611d509061411d565b8015611d9d5780601f10611d7257610100808354040283529160200191611d9d565b820191906000526020600020905b815481529060010190602001808311611d8057829003601f168201915b50505050508152505081526020019060010190611c31565b50505050905090565b611dc661289a565b73ffffffffffffffffffffffffffffffffffffffff16611de4611aea565b73ffffffffffffffffffffffffffffffffffffffff1614611e3a576040517f08c379a0000000000000000000000000000000000000000000000000000000008152600401611e3190613d03565b60405180910390fd5b611e4261289a565b73ffffffffffffffffffffffffffffffffffffffff1660058281548110611e92577f4e487b7100000000000000000000000000000000000000000000000000000000600052603260045260246000fd5b906000526020600020906003020160020160009054906101000a900473ffffffffffffffffffffffffffffffffffffffff1673ffffffffffffffffffffffffffffffffffffffff161415611f1b576040517f08c379a0000000000000000000000000000000000000000000000000000000008152600401611f1290613ce3565b60405180910390fd5b600060056001600580549050611f319190613ff2565b81548110611f68577f4e487b7100000000000000000000000000000000000000000000000000000000600052603260045260246000fd5b906000526020600020906003020160405180606001604052908160008201548152602001600182018054611f9b9061411d565b80601f0160208091040260200160405190810160405280929190818152602001828054611fc79061411d565b80156120145780601f10611fe957610100808354040283529160200191612014565b820191906000526020600020905b815481529060010190602001808311611ff757829003601f168201915b505050505081526020016002820160009054906101000a900473ffffffffffffffffffffffffffffffffffffffff1673ffffffffffffffffffffffffffffffffffffffff1673ffffffffffffffffffffffffffffffffffffffff168152505090508181600001818152505080600583815481106120ba577f4e487b7100000000000000000000000000000000000000000000000000000000600052603260045260246000fd5b90600052602060002090600302016000820151816000015560208201518160010190805190602001906120ee9291906134ae565b5060408201518160020160006101000a81548173ffffffffffffffffffffffffffffffffffffffff021916908373ffffffffffffffffffffffffffffffffffffffff1602179055509050506005805480612171577f4e487b7100000000000000000000000000000000000000000000000000000000600052603160045260246000fd5b600190038181906000526020600020906003020160008082016000905560018201600061219e9190613534565b6002820160006101000a81549073ffffffffffffffffffffffffffffffffffffffff0219169055505090555050565b60016020528060005260406000206000915054906101000a900473ffffffffffffffffffffffffffffffffffffffff1681565b60096020528060005260406000206000915054906101000a900460ff1681565b60008060008060606000600b6000888152602001908152602001600020549050600d818154811061227a577f4e487b7100000000000000000000000000000000000000000000000000000000600052603260045260246000fd5b906000526020600020906005020160000154600d82815481106122c6577f4e487b7100000000000000000000000000000000000000000000000000000000600052603260045260246000fd5b906000526020600020906005020160020160009054906101000a900473ffffffffffffffffffffffffffffffffffffffff16600d8381548110612332577f4e487b7100000000000000000000000000000000000000000000000000000000600052603260045260246000fd5b906000526020600020906005020160010160009054906101000a900473ffffffffffffffffffffffffffffffffffffffff16600d848154811061239e577f4e487b7100000000000000000000000000000000000000000000000000000000600052603260045260246000fd5b906000526020600020906005020160030154600d85815481106123ea577f4e487b7100000000000000000000000000000000000000000000000000000000600052603260045260246000fd5b90600052602060002090600502016004018080546124079061411d565b80601f01602080910402602001604051908101604052809291908181526020018280546124339061411d565b80156124805780601f1061245557610100808354040283529160200191612480565b820191906000526020600020905b81548152906001019060200180831161246357829003601f168201915b50505050509050955095509550955095505091939590929450565b6124a361289a565b73ffffffffffffffffffffffffffffffffffffffff166124c1611aea565b73ffffffffffffffffffffffffffffffffffffffff1614612517576040517f08c379a000000000000000000000000000000000000000000000000000000000815260040161250e90613d03565b60405180910390fd5b600860009054906101000a900473ffffffffffffffffffffffffffffffffffffffff1673ffffffffffffffffffffffffffffffffffffffff16ff5b60005b61255d61187d565b8110156126195760038081111561259d577f4e487b7100000000000000000000000000000000000000000000000000000000600052602160045260246000fd5b6009600083815260200190815260200160002060009054906101000a900460ff1660038111156125f6577f4e487b7100000000000000000000000000000000000000000000000000000000600052602160045260246000fd5b14156126065761260581612c70565b5b80806126119061414f565b915050612555565b50565b600a6020528060005260406000206000915090505481565b61263c61289a565b73ffffffffffffffffffffffffffffffffffffffff1661265a611aea565b73ffffffffffffffffffffffffffffffffffffffff16146126b0576040517f08c379a00000000000000000000000000000000000000000000000000000000081526004016126a790613d03565b60405180910390fd5b600073ffffffffffffffffffffffffffffffffffffffff168173ffffffffffffffffffffffffffffffffffffffff161415612720576040517f08c379a000000000000000000000000000000000000000000000000000000000815260040161271790613c83565b60405180910390fd5b8073ffffffffffffffffffffffffffffffffffffffff1660008054906101000a900473ffffffffffffffffffffffffffffffffffffffff1673ffffffffffffffffffffffffffffffffffffffff167f8be0079c531659141344cd1fd0a4f28419497f9722a3daafe3b4186f6b6457e060405160405180910390a3806000806101000a81548173ffffffffffffffffffffffffffffffffffffffff021916908373ffffffffffffffffffffffffffffffffffffffff16021790555050565b60003411612820576040517f08c379a000000000000000000000000000000000000000000000000000000000815260040161281790613d43565b60405180910390fd5b34600a6000600760009054906101000a900473ffffffffffffffffffffffffffffffffffffffff1673ffffffffffffffffffffffffffffffffffffffff1673ffffffffffffffffffffffffffffffffffffffff16815260200190815260200160002060008282546128919190613f9c565b92505081905550565b600033905090565b6000600b60008581526020019081526020016000205490506000805b6005805490508110156129c75760011515600360006005848154811061290d577f4e487b7100000000000000000000000000000000000000000000000000000000600052603260045260246000fd5b906000526020600020906003020160020160009054906101000a900473ffffffffffffffffffffffffffffffffffffffff1673ffffffffffffffffffffffffffffffffffffffff1673ffffffffffffffffffffffffffffffffffffffff168152602001908152602001600020600088815260200190815260200160002060009054906101000a900460ff161515146129a557816129b3565b81806129b09061414f565b92505b5080806129bf9061414f565b9150506128be565b50600654811415612c695760026009600087815260200190815260200160002060006101000a81548160ff02191690836003811115612a2f577f4e487b7100000000000000000000000000000000000000000000000000000000600052602160045260246000fd5b02179055506040518060400160405280600881526020017f417070726f766564000000000000000000000000000000000000000000000000815250600d8381548110612aa4577f4e487b7100000000000000000000000000000000000000000000000000000000600052603260045260246000fd5b90600052602060002090600502016004019080519060200190612ac89291906134ae565b507fb39857c97345781fecf2a1f81e0e8e8966650414f58e86a213a139223bda0b3a85604051612af89190613d63565b60405180910390a17f41d0040598f49c0267ecce0551920820b622a5295cbb15148a4c5476bd2ec953600d8381548110612b5b577f4e487b7100000000000000000000000000000000000000000000000000000000600052603260045260246000fd5b906000526020600020906005020160020160009054906101000a900473ffffffffffffffffffffffffffffffffffffffff16600d8481548110612bc7577f4e487b7100000000000000000000000000000000000000000000000000000000600052603260045260246000fd5b906000526020600020906005020160010160009054906101000a900473ffffffffffffffffffffffffffffffffffffffff16600d8581548110612c33577f4e487b7100000000000000000000000000000000000000000000000000000000600052603260045260246000fd5b906000526020600020906005020160030154604051612c5493929190613bd4565b60405180910390a1612c67848487613027565b505b5050505050565b6000612c7a61187d565b1115612f65576000600d6001612c8e61187d565b612c989190613ff2565b81548110612ccf577f4e487b7100000000000000000000000000000000000000000000000000000000600052603260045260246000fd5b90600052602060002090600502016040518060a0016040529081600082015481526020016001820160009054906101000a900473ffffffffffffffffffffffffffffffffffffffff1673ffffffffffffffffffffffffffffffffffffffff1673ffffffffffffffffffffffffffffffffffffffff1681526020016002820160009054906101000a900473ffffffffffffffffffffffffffffffffffffffff1673ffffffffffffffffffffffffffffffffffffffff1673ffffffffffffffffffffffffffffffffffffffff16815260200160038201548152602001600482018054612db89061411d565b80601f0160208091040260200160405190810160405280929190818152602001828054612de49061411d565b8015612e315780601f10612e0657610100808354040283529160200191612e31565b820191906000526020600020905b815481529060010190602001808311612e1457829003601f168201915b505050505081525050905080600d8381548110612e77577f4e487b7100000000000000000000000000000000000000000000000000000000600052603260045260246000fd5b90600052602060002090600502016000820151816000015560208201518160010160006101000a81548173ffffffffffffffffffffffffffffffffffffffff021916908373ffffffffffffffffffffffffffffffffffffffff16021790555060408201518160020160006101000a81548173ffffffffffffffffffffffffffffffffffffffff021916908373ffffffffffffffffffffffffffffffffffffffff160217905550606082015181600301556080820151816004019080519060200190612f439291906134ae565b5090505081600b60008360000151815260200190815260200160002081905550505b600d805480612f9d577f4e487b7100000000000000000000000000000000000000000000000000000000600052603160045260246000fd5b60019003818190600052602060002090600502016000808201600090556001820160006101000a81549073ffffffffffffffffffffffffffffffffffffffff02191690556002820160006101000a81549073ffffffffffffffffffffffffffffffffffffffff021916905560038201600090556004820160006130209190613534565b5050905550565b600080600b600084815260200190815260200160002054905083613049610c85565b101561334c577f8a6879c0990f743a0da3ab3a5687937ba3296396962a6b2e50da4c77491044238360405161307e9190613d63565b60405180910390a16000915060005b60058054905081101561324f576001151560036000600584815481106130dc577f4e487b7100000000000000000000000000000000000000000000000000000000600052603260045260246000fd5b906000526020600020906003020160020160009054906101000a900473ffffffffffffffffffffffffffffffffffffffff1673ffffffffffffffffffffffffffffffffffffffff1673ffffffffffffffffffffffffffffffffffffffff168152602001908152602001600020600086815260200190815260200160002060009054906101000a900460ff161515141561323c576000151560036000600584815481106131b1577f4e487b7100000000000000000000000000000000000000000000000000000000600052603260045260246000fd5b906000526020600020906003020160020160009054906101000a900473ffffffffffffffffffffffffffffffffffffffff1673ffffffffffffffffffffffffffffffffffffffff1673ffffffffffffffffffffffffffffffffffffffff168152602001908152602001600020600086815260200190815260200160002060009054906101000a905050505b80806132479061414f565b91505061308d565b506040518060400160405280600681526020017f4661696c65640000000000000000000000000000000000000000000000000000815250600d82815481106132c0577f4e487b7100000000000000000000000000000000000000000000000000000000600052603260045260246000fd5b906000526020600020906005020160040190805190602001906132e49291906134ae565b5060006009600085815260200190815260200160002060006101000a81548160ff02191690836003811115613342577f4e487b7100000000000000000000000000000000000000000000000000000000600052602160045260246000fd5b02179055506134a5565b83613355610c85565b106134a4576000613364610c85565b905084600a6000600760009054906101000a900473ffffffffffffffffffffffffffffffffffffffff1673ffffffffffffffffffffffffffffffffffffffff1673ffffffffffffffffffffffffffffffffffffffff16815260200190815260200160002060008282546133d79190613ff2565b925050819055508573ffffffffffffffffffffffffffffffffffffffff166108fc869081150290604051600060405180830381858888f19350505050158015613424573d6000803e3d6000fd5b5061342d610c85565b8111613462577f4e487b7100000000000000000000000000000000000000000000000000000000600052600160045260246000fd5b7f28e6d5c1b83e712c99f724b607b281f6529d6e09104bccd58d3da803e0856d81846040516134919190613d63565b60405180910390a16001925050506134a7565b5b505b9392505050565b8280546134ba9061411d565b90600052602060002090601f0160209004810192826134dc5760008555613523565b82601f106134f557805160ff1916838001178555613523565b82800160010185558215613523579182015b82811115613522578251825591602001919060010190613507565b5b5090506135309190613574565b5090565b5080546135409061411d565b6000825580601f106135525750613571565b601f0160209004906000526020600020908101906135709190613574565b5b50565b5b8082111561358d576000816000905550600101613575565b5090565b60006135a461359f84613f06565b613ed5565b9050828152602081018484840111156135bc57600080fd5b6135c78482856140db565b509392505050565b6000813590506135de81614279565b92915050565b6000813590506135f381614290565b92915050565b600082601f83011261360a57600080fd5b813561361a848260208601613591565b91505092915050565b600081359050613632816142a7565b92915050565b60006020828403121561364a57600080fd5b6000613658848285016135cf565b91505092915050565b6000806040838503121561367457600080fd5b6000613682858286016135e4565b925050602061369385828601613623565b9150509250929050565b600080604083850312156136b057600080fd5b600083013567ffffffffffffffff8111156136ca57600080fd5b6136d6858286016135f9565b92505060206136e7858286016135e4565b9150509250929050565b60006020828403121561370357600080fd5b600061371184828501613623565b91505092915050565b60006137268383613b0a565b905092915050565b61373781614093565b82525050565b61374681614038565b82525050565b61375581614038565b82525050565b61376481614026565b82525050565b61377381614026565b82525050565b600061378482613f46565b61378e8185613f69565b9350836020820285016137a085613f36565b8060005b858110156137dc57848403895281516137bd858261371a565b94506137c883613f5c565b925060208a019950506001810190506137a4565b50829750879550505050505092915050565b6137f78161404a565b82525050565b613806816140a5565b82525050565b600061381782613f51565b6138218185613f7a565b93506138318185602086016140ea565b61383a81614254565b840191505092915050565b600061385082613f51565b61385a8185613f8b565b935061386a8185602086016140ea565b61387381614254565b840191505092915050565b600061388b601083613f8b565b91507f416c726561647920617070726f766564000000000000000000000000000000006000830152602082019050919050565b60006138cb602683613f8b565b91507f4f776e61626c653a206e6577206f776e657220697320746865207a65726f206160008301527f64647265737300000000000000000000000000000000000000000000000000006020830152604082019050919050565b6000613931601b83613f8b565b91507f4572726f723a20496e73756666696369656e742062616c616e636500000000006000830152602082019050919050565b6000613971602883613f8b565b91507f4f6e6c792073656e646572206f7220636f6e7472616374206f776e6572206d6160008301527f792063616e63656c0000000000000000000000000000000000000000000000006020830152604082019050919050565b60006139d7601383613f8b565b91507f43616e6e6f742072656d6f7665206f776e6572000000000000000000000000006000830152602082019050919050565b6000613a17602083613f8b565b91507f4f776e61626c653a2063616c6c6572206973206e6f7420746865206f776e65726000830152602082019050919050565b6000613a57600983613f8b565b91507f5375626d697474656400000000000000000000000000000000000000000000006000830152602082019050919050565b6000613a97601c83613f8b565b91507f5472616e73616374696f6e20616c726561647920617070726f766564000000006000830152602082019050919050565b6000613ad7601783613f8b565b91507f4572726f723a2043616e6e6f74206465706f73697420300000000000000000006000830152602082019050919050565b600060a083016000830151613b226000860182613b80565b506020830151613b35602086018261373d565b506040830151613b48604086018261375b565b506060830151613b5b6060860182613b80565b5060808301518482036080860152613b73828261380c565b9150508091505092915050565b613b8981614089565b82525050565b613b9881614089565b82525050565b6000602082019050613bb3600083018461376a565b92915050565b6000602082019050613bce600083018461374c565b92915050565b6000606082019050613be9600083018661376a565b613bf6602083018561372e565b613c036040830184613b8f565b949350505050565b60006020820190508181036000830152613c258184613779565b905092915050565b6000602082019050613c4260008301846137ee565b92915050565b6000602082019050613c5d60008301846137fd565b92915050565b60006020820190508181036000830152613c7c8161387e565b9050919050565b60006020820190508181036000830152613c9c816138be565b9050919050565b60006020820190508181036000830152613cbc81613924565b9050919050565b60006020820190508181036000830152613cdc81613964565b9050919050565b60006020820190508181036000830152613cfc816139ca565b9050919050565b60006020820190508181036000830152613d1c81613a0a565b9050919050565b60006020820190508181036000830152613d3c81613a8a565b9050919050565b60006020820190508181036000830152613d5c81613aca565b9050919050565b6000602082019050613d786000830184613b8f565b92915050565b600060a082019050613d936000830188613b8f565b613da0602083018761374c565b613dad604083018661376a565b613dba6060830185613b8f565b8181036080830152613dcc8184613845565b90509695505050505050565b600060a082019050613ded6000830188613b8f565b613dfa602083018761376a565b613e07604083018661376a565b613e146060830185613b8f565b8181036080830152613e268184613845565b90509695505050505050565b6000606082019050613e476000830186613b8f565b8181036020830152613e598185613845565b9050613e68604083018461376a565b949350505050565b6000604082019050613e856000830185613b8f565b613e926020830184613b8f565b9392505050565b6000606082019050613eae6000830185613b8f565b613ebb6020830184613b8f565b8181036040830152613ecc81613a4a565b90509392505050565b6000604051905081810181811067ffffffffffffffff82111715613efc57613efb614225565b5b8060405250919050565b600067ffffffffffffffff821115613f2157613f20614225565b5b601f19601f8301169050602081019050919050565b6000819050602082019050919050565b600081519050919050565b600081519050919050565b6000602082019050919050565b600082825260208201905092915050565b600082825260208201905092915050565b600082825260208201905092915050565b6000613fa782614089565b9150613fb283614089565b9250827fffffffffffffffffffffffffffffffffffffffffffffffffffffffffffffffff03821115613fe757613fe6614198565b5b828201905092915050565b6000613ffd82614089565b915061400883614089565b92508282101561401b5761401a614198565b5b828203905092915050565b600061403182614069565b9050919050565b600061404382614069565b9050919050565b60008115159050919050565b600081905061406482614265565b919050565b600073ffffffffffffffffffffffffffffffffffffffff82169050919050565b6000819050919050565b600061409e826140b7565b9050919050565b60006140b082614056565b9050919050565b60006140c2826140c9565b9050919050565b60006140d482614069565b9050919050565b82818337600083830152505050565b60005b838110156141085780820151818401526020810190506140ed565b83811115614117576000848401525b50505050565b6000600282049050600182168061413557607f821691505b60208210811415614149576141486141f6565b5b50919050565b600061415a82614089565b91507fffffffffffffffffffffffffffffffffffffffffffffffffffffffffffffffff82141561418d5761418c614198565b5b600182019050919050565b7f4e487b7100000000000000000000000000000000000000000000000000000000600052601160045260246000fd5b7f4e487b7100000000000000000000000000000000000000000000000000000000600052602160045260246000fd5b7f4e487b7100000000000000000000000000000000000000000000000000000000600052602260045260246000fd5b7f4e487b7100000000000000000000000000000000000000000000000000000000600052604160045260246000fd5b6000601f19601f8301169050919050565b60048110614276576142756141c7565b5b50565b61428281614026565b811461428d57600080fd5b50565b61429981614038565b81146142a457600080fd5b50565b6142b081614089565b81146142bb57600080fd5b5056fea2646970667358221220776de5b2ee4e24bef1122d8e7de2af0b40aea915ae1a7b616f35e450cae2e00264736f6c63430008000033",
  "immutableReferences": {},
  "source": "pragma solidity ^0.8.0;\r\npragma abicoder v2;\r\n\r\n/*\r\nThis is a simple multi-signature wallet that only uses ETH.\r\n*/\r\n\r\n//MODIFICIATIONS TO MAKE:\r\n//MAKE PAUSABLE\r\n//CONFIRMATION REQUIREMENTS CAN BE ALTERED, BUT REQUIRE A VOTE FROM ADMINS TO DO SO;\r\n\r\nimport \"./WalletUsers.sol\";\r\n\r\ncontract MultiWallet is WalletUsers {\r\n\r\n//Wallet address:\r\n  address Wallet = address(this);\r\n  address payable public LeadAddress;\r\n\r\n  constructor(string memory _LeadName, address _LeadAddress) public {\r\n    LeadAddress = payable(_LeadAddress);\r\n    admin memory NewLead = admin(Admins.length, _LeadName, msg.sender);\r\n    Admins.push(NewLead);\r\n  }\r\n\r\n  //Withdrawal request struct:\r\n  struct txnRequest {\r\n    uint txID;\r\n    address payable toAddress;\r\n    address fromAddress;\r\n    uint amount;\r\n    string approvalStatus;\r\n}\r\n\r\n  //Approval status enum:\r\n  enum APPROVE { SUBMITTED, PENDING, APPROVED, FAILED }\r\n\r\n  //Maps txID to APPROVE enum:\r\n  mapping(uint => APPROVE) public ApprovalStatus;\r\n\r\n  //Wallet balance:\r\n  mapping(address => uint) public walletBalance;\r\n\r\n  //ID to index mapping:\r\n  mapping(uint => uint) public txnIDToIndex;\r\n\r\n  //ID counter:\r\n  uint txIDCounter = 0;\r\n\r\n  //History of all withdrawal requests:\r\n  txnRequest[] public requestHistory;\r\n\r\n  //Events:\r\n  event transactionSubmitted(uint txID, uint adminID, string ApprovalStatus);\r\n  event transactionDetails(address sender, address receiver, uint amount);\r\n  event adminApproval(uint txID, uint adminID);\r\n  event transactionApproved(uint txID);\r\n  event transactionSuccess(uint txID);\r\n  event transactionFailure(uint txID);\r\n  event transactionCancelled(uint txID, uint adminID);\r\n\r\n  //Requires Admin has not already approved:\r\n  modifier AdminHasNOTApproved (uint txID) {\r\n    require(AdminApproved[msg.sender][txID] == false, \"Already approved\");\r\n    _;\r\n  }\r\n\r\n  //Transaction request submission:\r\n  //Add additional functionality for ERC20 tokens;\r\n  //Add functionality for transfers between users;\r\n  function submitTransaction(address payable _recipient, uint _amount) external returns (bool success) {\r\n    require (getBalance() >= _amount, \"Error: Insufficient balance\");\r\n\r\n    uint txID = txIDCounter;\r\n    address _sender = msg.sender;\r\n    ApprovalStatus[txID] = APPROVE.SUBMITTED;\r\n    txnIDToIndex[txID] = getRequestHistoryLength();\r\n    string memory approvalStatus = \"Submitted\";\r\n\r\n    emit transactionSubmitted(txID, addressToID[_msgSender()], \"Submitted\");\r\n    emit transactionDetails(_msgSender(), _recipient, _amount);\r\n\r\n\r\n    txnRequest memory pendingRequest =\r\n    txnRequest(\r\n              txID,\r\n              _recipient,\r\n              _sender,\r\n              _amount,\r\n              approvalStatus);\r\n\r\n    requestHistory.push(pendingRequest);\r\n    txIDCounter++;\r\n    success = true;\r\n  }\r\n\r\n  //Confirms transfer requests awaiting confirmation:\r\n  function confirmTransfer(uint _txID) external AdminHasNOTApproved(_txID) {\r\n      uint txIDIndex = txnIDToIndex[_txID];\r\n      require (ApprovalStatus[_txID] != APPROVE.APPROVED, \"Transaction already approved\");\r\n\r\n      if (ApprovalStatus[_txID] == APPROVE.SUBMITTED || ApprovalStatus[_txID] == APPROVE.FAILED) {\r\n        ApprovalStatus[_txID] = APPROVE.PENDING;\r\n        requestHistory[txIDIndex].approvalStatus = \"Pending\";\r\n      }\r\n\r\n      txnRequest memory approvedTxn = requestHistory[txIDIndex];\r\n      AdminApproved[msg.sender][_txID] = true;\r\n\r\n      emit adminApproval(_txID, addressToID[msg.sender]);\r\n\r\n      _approval(approvedTxn.txID, approvedTxn.toAddress, approvedTxn.amount);\r\n\r\n  }\r\n\r\n  //VARIANT 1:\r\n  //If approval count is met but balance is too low, txn will fail and will be cancelled;\r\n  //VARIANT 2:\r\n  //If approval count is met but balance is too low, txn will fail and approval count is reset;\r\n  //This function tallies up Admin approvals for a transaction before running a withdraw function on it:\r\n  function _approval(uint _txID, address payable _toAddress, uint _amount) private {\r\n    uint txIDIndex = txnIDToIndex[_txID];\r\n    uint numApproved = 0;\r\n    for (uint n = 0; n < Admins.length; n++) {\r\n\r\n      AdminApproved[Admins[n].adminAddress][_txID] == true ?\r\n        numApproved++ :\r\n        numApproved;\r\n    }\r\n\r\n    if (numApproved == adminsRequired) {\r\n      ApprovalStatus[_txID] = APPROVE.APPROVED;\r\n      requestHistory[txIDIndex].approvalStatus = \"Approved\";\r\n\r\n      emit transactionApproved(_txID);\r\n      emit transactionDetails(requestHistory[txIDIndex].fromAddress, requestHistory[txIDIndex].toAddress, requestHistory[txIDIndex].amount);\r\n\r\n      _withdraw(_toAddress, _amount, _txID);\r\n    }\r\n  }\r\n\r\n//VARIANT 1: PERFORMS _cancelPending WHEN TXN FAILS\r\n  //This function performs the withdrawal:\r\n  //Withdraws to private wallet;\r\n/*  function _withdraw(address payable _toAddress, uint _amount, uint _txID) private returns (bool success) {\r\n      uint txIDIndex = txnIDToIndex[_txID];\r\n      if (getBalance() < _amount) {\r\n        emit transactionFailure(_txID);\r\n        _cancelPending(txIDIndex);\r\n        success = false;\r\n      }\r\n      else if (getBalance() >= _amount) {\r\n\r\n        uint initialBalance = getBalance();\r\n        walletBalance[Wallet] -= _amount;\r\n\r\n        _toAddress.transfer(_amount);\r\n\r\n        assert(initialBalance > getBalance());\r\n        emit transactionSuccess(_txID);\r\n        return success = true;\r\n      }\r\n  }\r\n*/\r\n//  mapping(address => mapping(uint => HASAPPROVED)) AdminApproved;\r\n//  enum HASAPPROVED { NO , YES }\r\n\r\n//VARIANT 2: APPROVALS RESET TO 0 WHEN TXN FAILS, approvalStatus SET TO \"Failed\"\r\n//--Admins must re-approve withdrawal;\r\n  function _withdraw(address payable _toAddress, uint _amount, uint _txID) private returns (bool success) {\r\n      uint txIDIndex = txnIDToIndex[_txID];\r\n      if (getBalance() < _amount) {\r\n        emit transactionFailure(_txID);\r\n        success = false;\r\n        for (uint i = 0; i < Admins.length; i++) {\r\n          if (AdminApproved[Admins[i].adminAddress][_txID] == true) {\r\n            (AdminApproved[Admins[i].adminAddress][_txID] == false);\r\n          }\r\n        }\r\n        requestHistory[txIDIndex].approvalStatus = \"Failed\";\r\n        ApprovalStatus[_txID] = APPROVE.SUBMITTED;\r\n      }\r\n      else if (getBalance() >= _amount) {\r\n\r\n        uint initialBalance = getBalance();\r\n        walletBalance[Wallet] -= _amount;\r\n\r\n        _toAddress.transfer(_amount);\r\n\r\n        assert(initialBalance > getBalance());\r\n        emit transactionSuccess(_txID);\r\n        return success = true;\r\n      }\r\n  }\r\n\r\n\r\n//Cancels transaction, permissioned for sender of txn and for contract owner;\r\n  function cancelTransaction(uint _txID) external {\r\n    uint txIDIndex = txnIDToIndex[_txID];\r\n    require (requestHistory[txIDIndex].fromAddress == _msgSender() || _msgSender() == owner(),\r\n      \"Only sender or contract owner may cancel\");\r\n    _cancelPending(txIDIndex);\r\n    emit transactionCancelled(_txID, addressToID[_msgSender()]);\r\n  }\r\n\r\n//Clears all failed transactions from history;\r\n  function clearFailed() external {\r\n    for (uint i = 0; i < getRequestHistoryLength(); i++) {\r\n      if (ApprovalStatus[i] == APPROVE.FAILED) {\r\n        _cancelPending(i);\r\n      }\r\n    }\r\n  }\r\n\r\n  //Cancels pending transaction, internal, uses index value:\r\n  function _cancelPending(uint _txIDIndex) internal {\r\n    if (getRequestHistoryLength() > 0) {\r\n      txnRequest memory newTxn = requestHistory[getRequestHistoryLength() - 1];\r\n      requestHistory[_txIDIndex] = newTxn;\r\n      txnIDToIndex[newTxn.txID] = _txIDIndex;\r\n    }\r\n    requestHistory.pop();\r\n  }\r\n\r\n  //This deposits ether into the smart contract:\r\n  function depositETH() external payable {\r\n    require(msg.value > 0, \"Error: Cannot deposit 0\");\r\n    walletBalance[Wallet] += msg.value;\r\n  }\r\n\r\n  //Create function for depositing ERC20 tokens;\r\n\r\n  //This shows the current balance of the Wallet:\r\n  //Add functionality for ERC20 tokens;\r\n  function getBalance() public view returns (uint) {\r\n      return walletBalance[Wallet];\r\n  }\r\n\r\n  //This checks any pending transaction by txID--returns txID, who requested it, where it's going, how much, and its approval status:\r\n  function getTransfer(uint _txID) public view\r\n  returns (\r\n    uint ID,\r\n    address fromAddress,\r\n    address toAddress,\r\n    uint amount,\r\n    string memory approvalStatus)\r\n    {\r\n      uint txID = txnIDToIndex[_txID];\r\n      return (requestHistory[txID].txID,\r\n              requestHistory[txID].fromAddress,\r\n              requestHistory[txID].toAddress,\r\n              requestHistory[txID].amount,\r\n              requestHistory[txID].approvalStatus);\r\n  }\r\n\r\n  //Returns number of pending transactions:\r\n  /*\r\n  function getPending() public view returns (uint Pending) {\r\n    uint _numberPending;\r\n    for (uint n = 0; n < requestHistory.length; n++) {\r\n        ApprovalStatus[requestHistory[n].txID] == APPROVE.PENDING ? _numberPending ++: _numberPending;\r\n    }\r\n    return _numberPending;\r\n  }\r\n*/\r\n\r\n  //Returns number of pending transactions:\r\n  function getPending() public view returns (uint) {\r\n    uint _numberPending = 0;\r\n    for (uint n = 0; n < getRequestHistoryLength(); n++) {\r\n\r\n        if (ApprovalStatus[requestHistory[n].txID] == APPROVE.PENDING ||\r\n          ApprovalStatus[requestHistory[n].txID] == APPROVE.SUBMITTED) {\r\n            _numberPending ++;\r\n        }\r\n        if (ApprovalStatus[requestHistory[n].txID] == APPROVE.APPROVED) {\r\n            continue;\r\n        }\r\n    }\r\n    return _numberPending;\r\n  }\r\n\r\n\r\n  function getRequestHistory() public view returns(txnRequest[] memory) {\r\n    return requestHistory;\r\n  }\r\n\r\n  function getRequestHistoryLength() public view returns(uint length) {\r\n    return requestHistory.length;\r\n  }\r\n\r\n //Destroyes contract and transfers all amounts to CEO;\r\n    function Close() public onlyOwner() {\r\n        selfdestruct(LeadAddress);\r\n    }\r\n\r\n\r\n}\r\n",
  "sourcePath": "C:/Users/solus/documents/solidity/multiwallet/contracts/MultiWallet.sol",
  "compiler": {
    "name": "solc",
    "version": "0.8.0+commit.c7dfd78e.Emscripten.clang"
  },
  "schemaVersion": "3.4.1",
  "updatedAt": "2021-06-28T19:41:43.758Z",
  "devdoc": {
    "kind": "dev",
    "methods": {
      "owner()": {
        "details": "Returns the address of the current owner."
      },
      "renounceOwnership()": {
        "details": "Leaves the contract without owner. It will not be possible to call `onlyOwner` functions anymore. Can only be called by the current owner. NOTE: Renouncing ownership will leave the contract without an owner, thereby removing any functionality that is only available to the owner."
      },
      "transferOwnership(address)": {
        "details": "Transfers ownership of the contract to a new account (`newOwner`). Can only be called by the current owner."
      }
    },
    "version": 1
  },
  "userdoc": {
    "kind": "user",
    "methods": {},
    "version": 1
  }
}