{
  "contractName": "WalletUsers",
  "abi": [
    {
      "anonymous": false,
      "inputs": [
        {
          "indexed": true,
          "internalType": "address",
          "name": "previousOwner",
          "type": "address"
        },
        {
          "indexed": true,
          "internalType": "address",
          "name": "newOwner",
          "type": "address"
        }
      ],
      "name": "OwnershipTransferred",
      "type": "event"
    },
    {
      "inputs": [
        {
          "internalType": "uint256",
          "name": "",
          "type": "uint256"
        }
      ],
      "name": "Admins",
      "outputs": [
        {
          "internalType": "uint256",
          "name": "adminID",
          "type": "uint256"
        },
        {
          "internalType": "string",
          "name": "adminName",
          "type": "string"
        },
        {
          "internalType": "address",
          "name": "adminAddress",
          "type": "address"
        }
      ],
      "stateMutability": "view",
      "type": "function"
    },
    {
      "inputs": [
        {
          "internalType": "uint256",
          "name": "",
          "type": "uint256"
        }
      ],
      "name": "IDToAddress",
      "outputs": [
        {
          "internalType": "address",
          "name": "",
          "type": "address"
        }
      ],
      "stateMutability": "view",
      "type": "function"
    },
    {
      "inputs": [
        {
          "internalType": "address",
          "name": "",
          "type": "address"
        }
      ],
      "name": "addressToID",
      "outputs": [
        {
          "internalType": "uint256",
          "name": "",
          "type": "uint256"
        }
      ],
      "stateMutability": "view",
      "type": "function"
    },
    {
      "inputs": [],
      "name": "owner",
      "outputs": [
        {
          "internalType": "address",
          "name": "",
          "type": "address"
        }
      ],
      "stateMutability": "view",
      "type": "function"
    },
    {
      "inputs": [],
      "name": "renounceOwnership",
      "outputs": [],
      "stateMutability": "nonpayable",
      "type": "function"
    },
    {
      "inputs": [
        {
          "internalType": "address",
          "name": "newOwner",
          "type": "address"
        }
      ],
      "name": "transferOwnership",
      "outputs": [],
      "stateMutability": "nonpayable",
      "type": "function"
    },
    {
      "inputs": [
        {
          "internalType": "uint256",
          "name": "_adminID",
          "type": "uint256"
        }
      ],
      "name": "getAdmin",
      "outputs": [
        {
          "internalType": "uint256",
          "name": "userID",
          "type": "uint256"
        },
        {
          "internalType": "string",
          "name": "userName",
          "type": "string"
        },
        {
          "internalType": "address",
          "name": "adminAddress",
          "type": "address"
        }
      ],
      "stateMutability": "view",
      "type": "function"
    },
    {
      "inputs": [
        {
          "internalType": "string",
          "name": "_adminName",
          "type": "string"
        },
        {
          "internalType": "address payable",
          "name": "_address",
          "type": "address"
        }
      ],
      "name": "addAdmin",
      "outputs": [],
      "stateMutability": "nonpayable",
      "type": "function"
    },
    {
      "inputs": [
        {
          "internalType": "uint256",
          "name": "_adminID",
          "type": "uint256"
        }
      ],
      "name": "removeAdmin",
      "outputs": [],
      "stateMutability": "nonpayable",
      "type": "function"
    }
  ],
  "bytecode": "0x6080604052600260065534801561001557600080fd5b5060006100266100c960201b60201c565b9050806000806101000a81548173ffffffffffffffffffffffffffffffffffffffff021916908373ffffffffffffffffffffffffffffffffffffffff1602179055508073ffffffffffffffffffffffffffffffffffffffff16600073ffffffffffffffffffffffffffffffffffffffff167f8be0079c531659141344cd1fd0a4f28419497f9722a3daafe3b4186f6b6457e060405160405180910390a3506100d1565b600033905090565b61148c806100e06000396000f3fe608060405234801561001057600080fd5b50600436106100935760003560e01c80638da5cb5b116100665780638da5cb5b146101205780639f89a4b21461013e578063ad7bbc2914610170578063b879b3b31461018c578063f2fde38b146101bc57610093565b80630831b05f14610098578063111fd88b146100b4578063715018a6146100e65780638694142b146100f0575b600080fd5b6100b260048036038101906100ad9190610f72565b6101d8565b005b6100ce60048036038101906100c99190610fc6565b6103cd565b6040516100dd939291906111c2565b60405180910390f35b6100ee61056f565b005b61010a60048036038101906101059190610f49565b6106a9565b60405161011791906111a7565b60405180910390f35b6101286106c1565b604051610135919061112c565b60405180910390f35b61015860048036038101906101539190610fc6565b6106ea565b604051610167939291906111c2565b60405180910390f35b61018a60048036038101906101859190610fc6565b6107cc565b005b6101a660048036038101906101a19190610fc6565b610bdb565b6040516101b3919061112c565b60405180910390f35b6101d660048036038101906101d19190610f49565b610c0e565b005b6101e0610db7565b73ffffffffffffffffffffffffffffffffffffffff166101fe6106c1565b73ffffffffffffffffffffffffffffffffffffffff1614610254576040517f08c379a000000000000000000000000000000000000000000000000000000000815260040161024b90611187565b60405180910390fd5b6000604051806060016040528060058054905081526020018481526020018373ffffffffffffffffffffffffffffffffffffffff16815250905081600160008360000151815260200190815260200160002060006101000a81548173ffffffffffffffffffffffffffffffffffffffff021916908373ffffffffffffffffffffffffffffffffffffffff1602179055508060000151600260008473ffffffffffffffffffffffffffffffffffffffff1673ffffffffffffffffffffffffffffffffffffffff16815260200190815260200160002081905550600581908060018154018082558091505060019003906000526020600020906003020160009091909190915060008201518160000155602082015181600101908051906020019061037e929190610dbf565b5060408201518160020160006101000a81548173ffffffffffffffffffffffffffffffffffffffff021916908373ffffffffffffffffffffffffffffffffffffffff1602179055505050505050565b6000606060006005848154811061040d577f4e487b7100000000000000000000000000000000000000000000000000000000600052603260045260246000fd5b90600052602060002090600302016000015460058581548110610459577f4e487b7100000000000000000000000000000000000000000000000000000000600052603260045260246000fd5b9060005260206000209060030201600101600586815481106104a4577f4e487b7100000000000000000000000000000000000000000000000000000000600052603260045260246000fd5b906000526020600020906003020160020160009054906101000a900473ffffffffffffffffffffffffffffffffffffffff168180546104e290611341565b80601f016020809104026020016040519081016040528092919081815260200182805461050e90611341565b801561055b5780601f106105305761010080835404028352916020019161055b565b820191906000526020600020905b81548152906001019060200180831161053e57829003601f168201915b505050505091509250925092509193909250565b610577610db7565b73ffffffffffffffffffffffffffffffffffffffff166105956106c1565b73ffffffffffffffffffffffffffffffffffffffff16146105eb576040517f08c379a00000000000000000000000000000000000000000000000000000000081526004016105e290611187565b60405180910390fd5b600073ffffffffffffffffffffffffffffffffffffffff1660008054906101000a900473ffffffffffffffffffffffffffffffffffffffff1673ffffffffffffffffffffffffffffffffffffffff167f8be0079c531659141344cd1fd0a4f28419497f9722a3daafe3b4186f6b6457e060405160405180910390a360008060006101000a81548173ffffffffffffffffffffffffffffffffffffffff021916908373ffffffffffffffffffffffffffffffffffffffff160217905550565b60026020528060005260406000206000915090505481565b60008060009054906101000a900473ffffffffffffffffffffffffffffffffffffffff16905090565b600581815481106106fa57600080fd5b906000526020600020906003020160009150905080600001549080600101805461072390611341565b80601f016020809104026020016040519081016040528092919081815260200182805461074f90611341565b801561079c5780601f106107715761010080835404028352916020019161079c565b820191906000526020600020905b81548152906001019060200180831161077f57829003601f168201915b5050505050908060020160009054906101000a900473ffffffffffffffffffffffffffffffffffffffff16905083565b6107d4610db7565b73ffffffffffffffffffffffffffffffffffffffff166107f26106c1565b73ffffffffffffffffffffffffffffffffffffffff1614610848576040517f08c379a000000000000000000000000000000000000000000000000000000000815260040161083f90611187565b60405180910390fd5b610850610db7565b73ffffffffffffffffffffffffffffffffffffffff16600582815481106108a0577f4e487b7100000000000000000000000000000000000000000000000000000000600052603260045260246000fd5b906000526020600020906003020160020160009054906101000a900473ffffffffffffffffffffffffffffffffffffffff1673ffffffffffffffffffffffffffffffffffffffff161415610929576040517f08c379a000000000000000000000000000000000000000000000000000000000815260040161092090611167565b60405180910390fd5b60006005600160058054905061093f919061127d565b81548110610976577f4e487b7100000000000000000000000000000000000000000000000000000000600052603260045260246000fd5b9060005260206000209060030201604051806060016040529081600082015481526020016001820180546109a990611341565b80601f01602080910402602001604051908101604052809291908181526020018280546109d590611341565b8015610a225780601f106109f757610100808354040283529160200191610a22565b820191906000526020600020905b815481529060010190602001808311610a0557829003601f168201915b505050505081526020016002820160009054906101000a900473ffffffffffffffffffffffffffffffffffffffff1673ffffffffffffffffffffffffffffffffffffffff1673ffffffffffffffffffffffffffffffffffffffff16815250509050818160000181815250508060058381548110610ac8577f4e487b7100000000000000000000000000000000000000000000000000000000600052603260045260246000fd5b9060005260206000209060030201600082015181600001556020820151816001019080519060200190610afc929190610dbf565b5060408201518160020160006101000a81548173ffffffffffffffffffffffffffffffffffffffff021916908373ffffffffffffffffffffffffffffffffffffffff1602179055509050506005805480610b7f577f4e487b7100000000000000000000000000000000000000000000000000000000600052603160045260246000fd5b6001900381819060005260206000209060030201600080820160009055600182016000610bac9190610e45565b6002820160006101000a81549073ffffffffffffffffffffffffffffffffffffffff0219169055505090555050565b60016020528060005260406000206000915054906101000a900473ffffffffffffffffffffffffffffffffffffffff1681565b610c16610db7565b73ffffffffffffffffffffffffffffffffffffffff16610c346106c1565b73ffffffffffffffffffffffffffffffffffffffff1614610c8a576040517f08c379a0000000000000000000000000000000000000000000000000000000008152600401610c8190611187565b60405180910390fd5b600073ffffffffffffffffffffffffffffffffffffffff168173ffffffffffffffffffffffffffffffffffffffff161415610cfa576040517f08c379a0000000000000000000000000000000000000000000000000000000008152600401610cf190611147565b60405180910390fd5b8073ffffffffffffffffffffffffffffffffffffffff1660008054906101000a900473ffffffffffffffffffffffffffffffffffffffff1673ffffffffffffffffffffffffffffffffffffffff167f8be0079c531659141344cd1fd0a4f28419497f9722a3daafe3b4186f6b6457e060405160405180910390a3806000806101000a81548173ffffffffffffffffffffffffffffffffffffffff021916908373ffffffffffffffffffffffffffffffffffffffff16021790555050565b600033905090565b828054610dcb90611341565b90600052602060002090601f016020900481019282610ded5760008555610e34565b82601f10610e0657805160ff1916838001178555610e34565b82800160010185558215610e34579182015b82811115610e33578251825591602001919060010190610e18565b5b509050610e419190610e85565b5090565b508054610e5190611341565b6000825580601f10610e635750610e82565b601f016020900490600052602060002090810190610e819190610e85565b5b50565b5b80821115610e9e576000816000905550600101610e86565b5090565b6000610eb5610eb084611231565b611200565b905082815260208101848484011115610ecd57600080fd5b610ed88482856112ff565b509392505050565b600081359050610eef81611411565b92915050565b600081359050610f0481611428565b92915050565b600082601f830112610f1b57600080fd5b8135610f2b848260208601610ea2565b91505092915050565b600081359050610f438161143f565b92915050565b600060208284031215610f5b57600080fd5b6000610f6984828501610ee0565b91505092915050565b60008060408385031215610f8557600080fd5b600083013567ffffffffffffffff811115610f9f57600080fd5b610fab85828601610f0a565b9250506020610fbc85828601610ef5565b9150509250929050565b600060208284031215610fd857600080fd5b6000610fe684828501610f34565b91505092915050565b610ff8816112b1565b82525050565b600061100982611261565b611013818561126c565b935061102381856020860161130e565b61102c81611400565b840191505092915050565b600061104460268361126c565b91507f4f776e61626c653a206e6577206f776e657220697320746865207a65726f206160008301527f64647265737300000000000000000000000000000000000000000000000000006020830152604082019050919050565b60006110aa60138361126c565b91507f43616e6e6f742072656d6f7665206f776e6572000000000000000000000000006000830152602082019050919050565b60006110ea60208361126c565b91507f4f776e61626c653a2063616c6c6572206973206e6f7420746865206f776e65726000830152602082019050919050565b611126816112f5565b82525050565b60006020820190506111416000830184610fef565b92915050565b6000602082019050818103600083015261116081611037565b9050919050565b600060208201905081810360008301526111808161109d565b9050919050565b600060208201905081810360008301526111a0816110dd565b9050919050565b60006020820190506111bc600083018461111d565b92915050565b60006060820190506111d7600083018661111d565b81810360208301526111e98185610ffe565b90506111f86040830184610fef565b949350505050565b6000604051905081810181811067ffffffffffffffff82111715611227576112266113d1565b5b8060405250919050565b600067ffffffffffffffff82111561124c5761124b6113d1565b5b601f19601f8301169050602081019050919050565b600081519050919050565b600082825260208201905092915050565b6000611288826112f5565b9150611293836112f5565b9250828210156112a6576112a5611373565b5b828203905092915050565b60006112bc826112d5565b9050919050565b60006112ce826112d5565b9050919050565b600073ffffffffffffffffffffffffffffffffffffffff82169050919050565b6000819050919050565b82818337600083830152505050565b60005b8381101561132c578082015181840152602081019050611311565b8381111561133b576000848401525b50505050565b6000600282049050600182168061135957607f821691505b6020821081141561136d5761136c6113a2565b5b50919050565b7f4e487b7100000000000000000000000000000000000000000000000000000000600052601160045260246000fd5b7f4e487b7100000000000000000000000000000000000000000000000000000000600052602260045260246000fd5b7f4e487b7100000000000000000000000000000000000000000000000000000000600052604160045260246000fd5b6000601f19601f8301169050919050565b61141a816112b1565b811461142557600080fd5b50565b611431816112c3565b811461143c57600080fd5b50565b611448816112f5565b811461145357600080fd5b5056fea264697066735822122077978d25d74417c3e791540fe2460a66e6bcb658146ce1861bcbb8bbdb475ba164736f6c63430008000033",
  "immutableReferences": {},
  "source": "pragma solidity ^0.8.0;\r\npragma abicoder v2;\r\n\r\nimport \"../../node_modules/@openzeppelin/contracts/access/Ownable.sol\";\r\nimport \"../../node_modules/@openzeppelin/contracts/utils/math/SafeMath.sol\";\r\n\r\ncontract WalletUsers is Ownable {\r\n  using SafeMath for uint256;\r\n  //Address and ID mappings:\r\n  mapping(uint => address) public IDToAddress;\r\n  mapping(address => uint) public addressToID;\r\n\r\n  //Maps Admin address and txID for approval:\r\n  mapping(address => mapping(uint => bool)) AdminApproved;\r\n  bool hasApproved;\r\n\r\n      //Defines a User struct:\r\n  struct admin {\r\n    uint adminID;\r\n    string adminName;\r\n    address adminAddress;\r\n   }\r\n\r\n    //List of all Users in the contract:\r\n    admin[] public Admins;\r\n\r\n  uint adminsRequired = 2;\r\n\r\n  function getAdmin(uint _adminID) public view returns (uint userID, string memory userName, address adminAddress) {\r\n    return (\r\n      Admins[_adminID].adminID,\r\n      Admins[_adminID].adminName,\r\n      Admins[_adminID].adminAddress);\r\n  }\r\n\r\n\r\n  function addAdmin (string memory _adminName, address payable _address) external onlyOwner() {\r\n      admin memory NewAdmin = admin(Admins.length, _adminName, _address);\r\n      IDToAddress[NewAdmin.adminID] = _address;\r\n      addressToID[_address] = NewAdmin.adminID;\r\n      Admins.push(NewAdmin);\r\n  }\r\n\r\n  function removeAdmin(uint _adminID) public onlyOwner() {\r\n      require(Admins[_adminID].adminAddress != _msgSender(), \"Cannot remove owner\");\r\n      admin memory NewAdmin = Admins[Admins.length - 1];\r\n      NewAdmin.adminID = _adminID;\r\n      Admins[_adminID] = NewAdmin;\r\n      Admins.pop();\r\n  }\r\n\r\n}\r\n",
  "sourcePath": "C:\\Users\\solus\\documents\\solidity\\multiwallet\\contracts\\WalletUsers.sol",
  "compiler": {
    "name": "solc",
    "version": "0.8.0+commit.c7dfd78e.Emscripten.clang"
  },
  "schemaVersion": "3.4.1",
  "updatedAt": "2021-06-28T19:41:43.851Z",
  "devdoc": {
    "kind": "dev",
    "methods": {
      "owner()": {
        "details": "Returns the address of the current owner."
      },
      "renounceOwnership()": {
        "details": "Leaves the contract without owner. It will not be possible to call `onlyOwner` functions anymore. Can only be called by the current owner. NOTE: Renouncing ownership will leave the contract without an owner, thereby removing any functionality that is only available to the owner."
      },
      "transferOwnership(address)": {
        "details": "Transfers ownership of the contract to a new account (`newOwner`). Can only be called by the current owner."
      }
    },
    "version": 1
  },
  "userdoc": {
    "kind": "user",
    "methods": {},
    "version": 1
  }
}