{
  "contractName": "DEX",
  "abi": [
    {
      "anonymous": false,
      "inputs": [
        {
          "indexed": true,
          "internalType": "address",
          "name": "previousOwner",
          "type": "address"
        },
        {
          "indexed": true,
          "internalType": "address",
          "name": "newOwner",
          "type": "address"
        }
      ],
      "name": "OwnershipTransferred",
      "type": "event"
    },
    {
      "inputs": [
        {
          "internalType": "bytes32",
          "name": "_ticker",
          "type": "bytes32"
        },
        {
          "internalType": "uint256",
          "name": "_amount",
          "type": "uint256"
        }
      ],
      "name": "_marketBuyCost",
      "outputs": [
        {
          "internalType": "uint256",
          "name": "orderCost",
          "type": "uint256"
        }
      ],
      "stateMutability": "view",
      "type": "function",
      "constant": true
    },
    {
      "inputs": [
        {
          "internalType": "bytes32",
          "name": "_ticker",
          "type": "bytes32"
        },
        {
          "internalType": "address",
          "name": "_tokenAddress",
          "type": "address"
        }
      ],
      "name": "addToken",
      "outputs": [],
      "stateMutability": "nonpayable",
      "type": "function"
    },
    {
      "inputs": [
        {
          "internalType": "address",
          "name": "",
          "type": "address"
        },
        {
          "internalType": "bytes32",
          "name": "",
          "type": "bytes32"
        }
      ],
      "name": "balances",
      "outputs": [
        {
          "internalType": "uint256",
          "name": "",
          "type": "uint256"
        }
      ],
      "stateMutability": "view",
      "type": "function",
      "constant": true
    },
    {
      "inputs": [
        {
          "internalType": "bytes32",
          "name": "_ticker",
          "type": "bytes32"
        },
        {
          "internalType": "uint256",
          "name": "_amount",
          "type": "uint256"
        }
      ],
      "name": "deposit",
      "outputs": [],
      "stateMutability": "nonpayable",
      "type": "function"
    },
    {
      "inputs": [],
      "name": "depositETH",
      "outputs": [],
      "stateMutability": "payable",
      "type": "function",
      "payable": true
    },
    {
      "inputs": [
        {
          "internalType": "bytes32",
          "name": "_ticker",
          "type": "bytes32"
        }
      ],
      "name": "getBalance",
      "outputs": [
        {
          "internalType": "uint256",
          "name": "",
          "type": "uint256"
        }
      ],
      "stateMutability": "view",
      "type": "function",
      "constant": true
    },
    {
      "inputs": [
        {
          "internalType": "bytes32",
          "name": "_ticker",
          "type": "bytes32"
        },
        {
          "internalType": "enum DEXGetters.SIDE",
          "name": "_side",
          "type": "uint8"
        },
        {
          "internalType": "uint256",
          "name": "_index",
          "type": "uint256"
        }
      ],
      "name": "getLimitPrice",
      "outputs": [
        {
          "internalType": "uint256",
          "name": "",
          "type": "uint256"
        }
      ],
      "stateMutability": "view",
      "type": "function",
      "constant": true
    },
    {
      "inputs": [
        {
          "internalType": "bytes32",
          "name": "_ticker",
          "type": "bytes32"
        },
        {
          "internalType": "enum DEXGetters.SIDE",
          "name": "_side",
          "type": "uint8"
        },
        {
          "internalType": "uint256",
          "name": "_index",
          "type": "uint256"
        }
      ],
      "name": "getOrderAmount",
      "outputs": [
        {
          "internalType": "uint256",
          "name": "",
          "type": "uint256"
        }
      ],
      "stateMutability": "view",
      "type": "function",
      "constant": true
    },
    {
      "inputs": [
        {
          "internalType": "bytes32",
          "name": "_ticker",
          "type": "bytes32"
        },
        {
          "internalType": "enum DEXGetters.SIDE",
          "name": "_side",
          "type": "uint8"
        }
      ],
      "name": "getOrderBook",
      "outputs": [
        {
          "components": [
            {
              "internalType": "uint256",
              "name": "id",
              "type": "uint256"
            },
            {
              "internalType": "address",
              "name": "trader",
              "type": "address"
            },
            {
              "internalType": "enum DEXGetters.SIDE",
              "name": "side",
              "type": "uint8"
            },
            {
              "internalType": "bytes32",
              "name": "ticker",
              "type": "bytes32"
            },
            {
              "internalType": "uint256",
              "name": "amount",
              "type": "uint256"
            },
            {
              "internalType": "uint256",
              "name": "price",
              "type": "uint256"
            }
          ],
          "internalType": "struct DEXGetters.Order[]",
          "name": "",
          "type": "tuple[]"
        }
      ],
      "stateMutability": "view",
      "type": "function",
      "constant": true
    },
    {
      "inputs": [
        {
          "internalType": "bytes32",
          "name": "_ticker",
          "type": "bytes32"
        },
        {
          "internalType": "enum DEXGetters.SIDE",
          "name": "_side",
          "type": "uint8"
        }
      ],
      "name": "getOrderBookLength",
      "outputs": [
        {
          "internalType": "uint256",
          "name": "",
          "type": "uint256"
        }
      ],
      "stateMutability": "view",
      "type": "function",
      "constant": true
    },
    {
      "inputs": [
        {
          "internalType": "bytes32",
          "name": "_ticker",
          "type": "bytes32"
        },
        {
          "internalType": "enum DEXGetters.SIDE",
          "name": "_side",
          "type": "uint8"
        },
        {
          "internalType": "uint256",
          "name": "_index",
          "type": "uint256"
        }
      ],
      "name": "getOrderID",
      "outputs": [
        {
          "internalType": "uint256",
          "name": "",
          "type": "uint256"
        }
      ],
      "stateMutability": "view",
      "type": "function",
      "constant": true
    },
    {
      "inputs": [
        {
          "internalType": "bytes32",
          "name": "_ticker",
          "type": "bytes32"
        },
        {
          "internalType": "enum DEXGetters.SIDE",
          "name": "_side",
          "type": "uint8"
        },
        {
          "internalType": "uint256",
          "name": "_index",
          "type": "uint256"
        }
      ],
      "name": "getOrderPrice",
      "outputs": [
        {
          "internalType": "uint256",
          "name": "",
          "type": "uint256"
        }
      ],
      "stateMutability": "view",
      "type": "function",
      "constant": true
    },
    {
      "inputs": [
        {
          "internalType": "bytes32",
          "name": "",
          "type": "bytes32"
        },
        {
          "internalType": "enum DEXGetters.SIDE",
          "name": "",
          "type": "uint8"
        },
        {
          "internalType": "uint256",
          "name": "",
          "type": "uint256"
        }
      ],
      "name": "orderBook",
      "outputs": [
        {
          "internalType": "uint256",
          "name": "id",
          "type": "uint256"
        },
        {
          "internalType": "address",
          "name": "trader",
          "type": "address"
        },
        {
          "internalType": "enum DEXGetters.SIDE",
          "name": "side",
          "type": "uint8"
        },
        {
          "internalType": "bytes32",
          "name": "ticker",
          "type": "bytes32"
        },
        {
          "internalType": "uint256",
          "name": "amount",
          "type": "uint256"
        },
        {
          "internalType": "uint256",
          "name": "price",
          "type": "uint256"
        }
      ],
      "stateMutability": "view",
      "type": "function",
      "constant": true
    },
    {
      "inputs": [],
      "name": "orderID",
      "outputs": [
        {
          "internalType": "uint256",
          "name": "",
          "type": "uint256"
        }
      ],
      "stateMutability": "view",
      "type": "function",
      "constant": true
    },
    {
      "inputs": [],
      "name": "owner",
      "outputs": [
        {
          "internalType": "address",
          "name": "",
          "type": "address"
        }
      ],
      "stateMutability": "view",
      "type": "function",
      "constant": true
    },
    {
      "inputs": [],
      "name": "renounceOwnership",
      "outputs": [],
      "stateMutability": "nonpayable",
      "type": "function"
    },
    {
      "inputs": [
        {
          "internalType": "uint256",
          "name": "",
          "type": "uint256"
        }
      ],
      "name": "tokenList",
      "outputs": [
        {
          "internalType": "bytes32",
          "name": "",
          "type": "bytes32"
        }
      ],
      "stateMutability": "view",
      "type": "function",
      "constant": true
    },
    {
      "inputs": [
        {
          "internalType": "bytes32",
          "name": "",
          "type": "bytes32"
        }
      ],
      "name": "tokenMapping",
      "outputs": [
        {
          "internalType": "bytes32",
          "name": "ticker",
          "type": "bytes32"
        },
        {
          "internalType": "address",
          "name": "tokenAddress",
          "type": "address"
        }
      ],
      "stateMutability": "view",
      "type": "function",
      "constant": true
    },
    {
      "inputs": [
        {
          "internalType": "address",
          "name": "newOwner",
          "type": "address"
        }
      ],
      "name": "transferOwnership",
      "outputs": [],
      "stateMutability": "nonpayable",
      "type": "function"
    },
    {
      "inputs": [
        {
          "internalType": "bytes32",
          "name": "_ticker",
          "type": "bytes32"
        },
        {
          "internalType": "uint256",
          "name": "_amount",
          "type": "uint256"
        }
      ],
      "name": "withdraw",
      "outputs": [],
      "stateMutability": "nonpayable",
      "type": "function"
    },
    {
      "inputs": [
        {
          "internalType": "bytes32",
          "name": "_ticker",
          "type": "bytes32"
        },
        {
          "internalType": "enum DEXGetters.SIDE",
          "name": "_side",
          "type": "uint8"
        },
        {
          "internalType": "uint256",
          "name": "_amount",
          "type": "uint256"
        },
        {
          "internalType": "uint256",
          "name": "_price",
          "type": "uint256"
        }
      ],
      "name": "CreateLimitOrder",
      "outputs": [],
      "stateMutability": "nonpayable",
      "type": "function"
    },
    {
      "inputs": [
        {
          "internalType": "bytes32",
          "name": "_ticker",
          "type": "bytes32"
        },
        {
          "internalType": "enum DEXGetters.SIDE",
          "name": "_side",
          "type": "uint8"
        },
        {
          "internalType": "uint256",
          "name": "_amount",
          "type": "uint256"
        }
      ],
      "name": "CreateMarketOrder",
      "outputs": [],
      "stateMutability": "nonpayable",
      "type": "function"
    },
    {
      "inputs": [
        {
          "internalType": "bytes32",
          "name": "_ticker",
          "type": "bytes32"
        },
        {
          "internalType": "enum DEXGetters.SIDE",
          "name": "_side",
          "type": "uint8"
        },
        {
          "internalType": "uint256",
          "name": "_ID",
          "type": "uint256"
        }
      ],
      "name": "RemoveOrder",
      "outputs": [],
      "stateMutability": "nonpayable",
      "type": "function"
    }
  ],
  "bytecode": "0x608060405260405160200162000015906200023f565b6040516020818303038152906040528051906020012060045560006006556040518060400160405280600f81526020017f4f72646572626f6f6b20656d7074790000000000000000000000000000000000815250600a9080519060200190620000809291906200014d565b503480156200008e57600080fd5b506000620000a16200014560201b60201c565b9050806000806101000a81548173ffffffffffffffffffffffffffffffffffffffff021916908373ffffffffffffffffffffffffffffffffffffffff1602179055508073ffffffffffffffffffffffffffffffffffffffff16600073ffffffffffffffffffffffffffffffffffffffff167f8be0079c531659141344cd1fd0a4f28419497f9722a3daafe3b4186f6b6457e060405160405180910390a350620002c6565b600033905090565b8280546200015b9062000261565b90600052602060002090601f0160209004810192826200017f5760008555620001cb565b82601f106200019a57805160ff1916838001178555620001cb565b82800160010185558215620001cb579182015b82811115620001ca578251825591602001919060010190620001ad565b5b509050620001da9190620001de565b5090565b5b80821115620001f9576000816000905550600101620001df565b5090565b60006200020c60038362000256565b91507f45544800000000000000000000000000000000000000000000000000000000006000830152600382019050919050565b60006200024c82620001fd565b9150819050919050565b600081905092915050565b600060028204905060018216806200027a57607f821691505b6020821081141562000291576200029062000297565b5b50919050565b7f4e487b7100000000000000000000000000000000000000000000000000000000600052602260045260246000fd5b61575080620002d66000396000f3fe6080604052600436106101405760003560e01c80638c29bec0116100b6578063a0a9773d1161006f578063a0a9773d146104aa578063ba58ea68146104e7578063c7156c3e14610524578063eb2d37a61461054d578063f2fde38b1461058a578063f6326fb3146105b357610140565b80638c29bec01461035d5780638da5cb5b1461039f5780638df2af06146103ca5780638e739461146104075780639776aacf146104445780639ead72221461046d57610140565b80632cbd88c2116101085780632cbd88c21461024e57806342a0ca9014610277578063667cb4ba146102a0578063715018a6146102de5780637db295a6146102f557806381203d031461033257610140565b8063040cf02014610145578063166beeaf1461016e5780631de26e16146101ab5780631f14df69146101d45780631ff901a814610211575b600080fd5b34801561015157600080fd5b5061016c60048036038101906101679190614bfb565b6105bd565b005b34801561017a57600080fd5b5061019560048036038101906101909190614b0d565b6108dd565b6040516101a29190615332565b60405180910390f35b3480156101b757600080fd5b506101d260048036038101906101cd9190614bfb565b61097f565b005b3480156101e057600080fd5b506101fb60048036038101906101f69190614a43565b610bb2565b6040516102089190615332565b60405180910390f35b34801561021d57600080fd5b5061023860048036038101906102339190614b49565b610bd7565b6040516102459190615332565b60405180910390f35b34801561025a57600080fd5b5061027560048036038101906102709190614b49565b610ef9565b005b34801561028357600080fd5b5061029e60048036038101906102999190614b49565b6112f1565b005b3480156102ac57600080fd5b506102c760048036038101906102c29190614aa8565b6115b7565b6040516102d59291906151a7565b60405180910390f35b3480156102ea57600080fd5b506102f36115fb565b005b34801561030157600080fd5b5061031c60048036038101906103179190614bfb565b611735565b6040516103299190615332565b60405180910390f35b34801561033e57600080fd5b50610347611b04565b6040516103549190615332565b60405180910390f35b34801561036957600080fd5b50610384600480360381019061037f9190614b49565b611b0a565b6040516103969695949392919061534d565b60405180910390f35b3480156103ab57600080fd5b506103b4611b9d565b6040516103c191906150ef565b60405180910390f35b3480156103d657600080fd5b506103f160048036038101906103ec9190614b49565b611bc6565b6040516103fe9190615332565b60405180910390f35b34801561041357600080fd5b5061042e60048036038101906104299190614aa8565b611e09565b60405161043b9190615332565b60405180910390f35b34801561045057600080fd5b5061046b60048036038101906104669190614ad1565b611e63565b005b34801561047957600080fd5b50610494600480360381019061048f9190614c37565b611f9e565b6040516104a1919061518c565b60405180910390f35b3480156104b657600080fd5b506104d160048036038101906104cc9190614b49565b611fc2565b6040516104de9190615332565b60405180910390f35b3480156104f357600080fd5b5061050e60048036038101906105099190614b0d565b6122e4565b60405161051b919061516a565b60405180910390f35b34801561053057600080fd5b5061054b60048036038101906105469190614b98565b6125bc565b005b34801561055957600080fd5b50610574600480360381019061056f9190614b49565b612800565b6040516105819190615332565b60405180910390f35b34801561059657600080fd5b506105b160048036038101906105ac9190614a1a565b61291c565b005b6105bb612ac5565b005b81600454811461066e57600073ffffffffffffffffffffffffffffffffffffffff166001600083815260200190815260200160002060010160009054906101000a900473ffffffffffffffffffffffffffffffffffffffff1673ffffffffffffffffffffffffffffffffffffffff16141561066d576040517f08c379a000000000000000000000000000000000000000000000000000000000815260040161066490615232565b60405180910390fd5b5b81600260003373ffffffffffffffffffffffffffffffffffffffff1673ffffffffffffffffffffffffffffffffffffffff1681526020019081526020016000206000858152602001908152602001600020541015610701576040517f08c379a00000000000000000000000000000000000000000000000000000000081526004016106f890615292565b60405180910390fd5b61076482600260003373ffffffffffffffffffffffffffffffffffffffff1673ffffffffffffffffffffffffffffffffffffffff168152602001908152602001600020600086815260200190815260200160002054612bcb90919063ffffffff16565b600260003373ffffffffffffffffffffffffffffffffffffffff1673ffffffffffffffffffffffffffffffffffffffff1681526020019081526020016000206000858152602001908152602001600020819055506004548314610886576001600084815260200190815260200160002060010160009054906101000a900473ffffffffffffffffffffffffffffffffffffffff1673ffffffffffffffffffffffffffffffffffffffff1663a9059cbb33846040518363ffffffff1660e01b8152600401610832929190615141565b602060405180830381600087803b15801561084c57600080fd5b505af1158015610860573d6000803e3d6000fd5b505050506040513d601f19601f820116820180604052508101906108849190614a7f565b505b6004548314156108d8573373ffffffffffffffffffffffffffffffffffffffff166108fc839081150290604051600060405180830381858888f193505050501580156108d6573d6000803e3d6000fd5b505b505050565b600060096000848152602001908152602001600020600083600181111561092d577f4e487b7100000000000000000000000000000000000000000000000000000000600052602160045260246000fd5b6001811115610965577f4e487b7100000000000000000000000000000000000000000000000000000000600052602160045260246000fd5b815260200190815260200160002080549050905092915050565b816004548114610a3057600073ffffffffffffffffffffffffffffffffffffffff166001600083815260200190815260200160002060010160009054906101000a900473ffffffffffffffffffffffffffffffffffffffff1673ffffffffffffffffffffffffffffffffffffffff161415610a2f576040517f08c379a0000000000000000000000000000000000000000000000000000000008152600401610a2690615232565b60405180910390fd5b5b610a9382600260003373ffffffffffffffffffffffffffffffffffffffff1673ffffffffffffffffffffffffffffffffffffffff168152602001908152602001600020600086815260200190815260200160002054612be190919063ffffffff16565b600260003373ffffffffffffffffffffffffffffffffffffffff1673ffffffffffffffffffffffffffffffffffffffff1681526020019081526020016000206000858152602001908152602001600020819055506001600084815260200190815260200160002060010160009054906101000a900473ffffffffffffffffffffffffffffffffffffffff1673ffffffffffffffffffffffffffffffffffffffff166323b872dd3330856040518463ffffffff1660e01b8152600401610b5a9392919061510a565b602060405180830381600087803b158015610b7457600080fd5b505af1158015610b88573d6000803e3d6000fd5b505050506040513d601f19601f82011682018060405250810190610bac9190614a7f565b50505050565b6002602052816000526040600020602052806000526040600020600091509150505481565b600080600960008681526020019081526020016000206000856001811115610c28577f4e487b7100000000000000000000000000000000000000000000000000000000600052602160045260246000fd5b6001811115610c60577f4e487b7100000000000000000000000000000000000000000000000000000000600052602160045260246000fd5b81526020019081526020016000208054905011600a90610cb6576040517f08c379a0000000000000000000000000000000000000000000000000000000008152600401610cad91906151d0565b60405180910390fd5b506000600960008681526020019081526020016000206000856001811115610d07577f4e487b7100000000000000000000000000000000000000000000000000000000600052602160045260246000fd5b6001811115610d3f577f4e487b7100000000000000000000000000000000000000000000000000000000600052602160045260246000fd5b8152602001908152602001600020805480602002602001604051908101604052809291908181526020016000905b82821015610ea457838290600052602060002090600502016040518060c0016040529081600082015481526020016001820160009054906101000a900473ffffffffffffffffffffffffffffffffffffffff1673ffffffffffffffffffffffffffffffffffffffff1673ffffffffffffffffffffffffffffffffffffffff1681526020016001820160149054906101000a900460ff166001811115610e3b577f4e487b7100000000000000000000000000000000000000000000000000000000600052602160045260246000fd5b6001811115610e73577f4e487b7100000000000000000000000000000000000000000000000000000000600052602160045260246000fd5b8152602001600282015481526020016003820154815260200160048201548152505081526020019060010190610d6d565b505050509050808381518110610ee3577f4e487b7100000000000000000000000000000000000000000000000000000000600052603260045260246000fd5b602002602001015160a001519150509392505050565b6000600180811115610f34577f4e487b7100000000000000000000000000000000000000000000000000000000600052602160045260246000fd5b836001811115610f6d577f4e487b7100000000000000000000000000000000000000000000000000000000600052602160045260246000fd5b14156110e95781600260003373ffffffffffffffffffffffffffffffffffffffff1673ffffffffffffffffffffffffffffffffffffffff1681526020019081526020016000206000868152602001908152602001600020541015611006576040517f08c379a0000000000000000000000000000000000000000000000000000000008152600401610ffd906152f2565b60405180910390fd5b6000600960008681526020019081526020016000206000806001811115611056577f4e487b7100000000000000000000000000000000000000000000000000000000600052602160045260246000fd5b600181111561108e577f4e487b7100000000000000000000000000000000000000000000000000000000600052602160045260246000fd5b815260200190815260200160002080549050116110e0576040517f08c379a00000000000000000000000000000000000000000000000000000000081526004016110d790615252565b60405180910390fd5b600090506112e0565b60006001811115611123577f4e487b7100000000000000000000000000000000000000000000000000000000600052602160045260246000fd5b83600181111561115c577f4e487b7100000000000000000000000000000000000000000000000000000000600052602160045260246000fd5b14156112df5761116c8483611735565b600260003373ffffffffffffffffffffffffffffffffffffffff1673ffffffffffffffffffffffffffffffffffffffff16815260200190815260200160002060006004548152602001908152602001600020541015611200576040517f08c379a00000000000000000000000000000000000000000000000000000000081526004016111f7906151f2565b60405180910390fd5b6000600960008681526020019081526020016000206000600180811115611250577f4e487b7100000000000000000000000000000000000000000000000000000000600052602160045260246000fd5b6001811115611288577f4e487b7100000000000000000000000000000000000000000000000000000000600052602160045260246000fd5b815260200190815260200160002080549050116112da576040517f08c379a00000000000000000000000000000000000000000000000000000000081526004016112d190615252565b60405180910390fd5b600190505b5b6112eb848284612bf7565b50505050565b6000600960008581526020019081526020016000206000846001811115611341577f4e487b7100000000000000000000000000000000000000000000000000000000600052602160045260246000fd5b6001811115611379577f4e487b7100000000000000000000000000000000000000000000000000000000600052602160045260246000fd5b8152602001908152602001600020805480602002602001604051908101604052809291908181526020016000905b828210156114de57838290600052602060002090600502016040518060c0016040529081600082015481526020016001820160009054906101000a900473ffffffffffffffffffffffffffffffffffffffff1673ffffffffffffffffffffffffffffffffffffffff1673ffffffffffffffffffffffffffffffffffffffff1681526020016001820160149054906101000a900460ff166001811115611475577f4e487b7100000000000000000000000000000000000000000000000000000000600052602160045260246000fd5b60018111156114ad577f4e487b7100000000000000000000000000000000000000000000000000000000600052602160045260246000fd5b81526020016002820154815260200160038201548152602001600482015481525050815260200190600101906113a7565b50505050905060006114f1838686613137565b90503373ffffffffffffffffffffffffffffffffffffffff16828281518110611543577f4e487b7100000000000000000000000000000000000000000000000000000000600052603260045260246000fd5b60200260200101516020015173ffffffffffffffffffffffffffffffffffffffff16146115a5576040517f08c379a000000000000000000000000000000000000000000000000000000000815260040161159c906152b2565b60405180910390fd5b6115b08585836133a7565b5050505050565b60016020528060005260406000206000915090508060000154908060010160009054906101000a900473ffffffffffffffffffffffffffffffffffffffff16905082565b611603613883565b73ffffffffffffffffffffffffffffffffffffffff16611621611b9d565b73ffffffffffffffffffffffffffffffffffffffff1614611677576040517f08c379a000000000000000000000000000000000000000000000000000000000815260040161166e906152d2565b60405180910390fd5b600073ffffffffffffffffffffffffffffffffffffffff1660008054906101000a900473ffffffffffffffffffffffffffffffffffffffff1673ffffffffffffffffffffffffffffffffffffffff167f8be0079c531659141344cd1fd0a4f28419497f9722a3daafe3b4186f6b6457e060405160405180910390a360008060006101000a81548173ffffffffffffffffffffffffffffffffffffffff021916908373ffffffffffffffffffffffffffffffffffffffff160217905550565b600080600960008581526020019081526020016000206000600180811115611786577f4e487b7100000000000000000000000000000000000000000000000000000000600052602160045260246000fd5b60018111156117be577f4e487b7100000000000000000000000000000000000000000000000000000000600052602160045260246000fd5b8152602001908152602001600020805480602002602001604051908101604052809291908181526020016000905b8282101561192357838290600052602060002090600502016040518060c0016040529081600082015481526020016001820160009054906101000a900473ffffffffffffffffffffffffffffffffffffffff1673ffffffffffffffffffffffffffffffffffffffff1673ffffffffffffffffffffffffffffffffffffffff1681526020016001820160149054906101000a900460ff1660018111156118ba577f4e487b7100000000000000000000000000000000000000000000000000000000600052602160045260246000fd5b60018111156118f2577f4e487b7100000000000000000000000000000000000000000000000000000000600052602160045260246000fd5b81526020016002820154815260200160038201548152602001600482015481525050815260200190600101906117ec565b5050505090506000915060008151141561193d5750611afe565b60005b60008410611afb57818181518110611981577f4e487b7100000000000000000000000000000000000000000000000000000000600052603260045260246000fd5b6020026020010151608001518410611a135760006119a186600184612800565b90506119b68185612be190919063ffffffff16565b9350611a0f8383815181106119f4577f4e487b7100000000000000000000000000000000000000000000000000000000600052603260045260246000fd5b60200260200101516080015186612bcb90919063ffffffff16565b9450505b818181518110611a4c577f4e487b7100000000000000000000000000000000000000000000000000000000600052603260045260246000fd5b60200260200101516080015184108015611a665750600084115b15611ada576000828281518110611aa6577f4e487b7100000000000000000000000000000000000000000000000000000000600052603260045260246000fd5b602002602001015160a0015185611abd9190615463565b9050611ad28185612be190919063ffffffff16565b935050611afb565b6000841415611ae857611afb565b8080611af3906155c4565b915050611940565b50505b92915050565b60065481565b60096020528260005260406000206020528160005260406000208181548110611b3257600080fd5b906000526020600020906005020160009250925050508060000154908060010160009054906101000a900473ffffffffffffffffffffffffffffffffffffffff16908060010160149054906101000a900460ff16908060020154908060030154908060040154905086565b60008060009054906101000a900473ffffffffffffffffffffffffffffffffffffffff16905090565b600080600960008681526020019081526020016000206000856001811115611c17577f4e487b7100000000000000000000000000000000000000000000000000000000600052602160045260246000fd5b6001811115611c4f577f4e487b7100000000000000000000000000000000000000000000000000000000600052602160045260246000fd5b8152602001908152602001600020805480602002602001604051908101604052809291908181526020016000905b82821015611db457838290600052602060002090600502016040518060c0016040529081600082015481526020016001820160009054906101000a900473ffffffffffffffffffffffffffffffffffffffff1673ffffffffffffffffffffffffffffffffffffffff1673ffffffffffffffffffffffffffffffffffffffff1681526020016001820160149054906101000a900460ff166001811115611d4b577f4e487b7100000000000000000000000000000000000000000000000000000000600052602160045260246000fd5b6001811115611d83577f4e487b7100000000000000000000000000000000000000000000000000000000600052602160045260246000fd5b8152602001600282015481526020016003820154815260200160048201548152505081526020019060010190611c7d565b505050509050808381518110611df3577f4e487b7100000000000000000000000000000000000000000000000000000000600052603260045260246000fd5b6020026020010151600001519150509392505050565b6000600260003373ffffffffffffffffffffffffffffffffffffffff1673ffffffffffffffffffffffffffffffffffffffff1681526020019081526020016000206000838152602001908152602001600020549050919050565b611e6b613883565b73ffffffffffffffffffffffffffffffffffffffff16611e89611b9d565b73ffffffffffffffffffffffffffffffffffffffff1614611edf576040517f08c379a0000000000000000000000000000000000000000000000000000000008152600401611ed6906152d2565b60405180910390fd5b60405180604001604052808381526020018273ffffffffffffffffffffffffffffffffffffffff16815250600160008481526020019081526020016000206000820151816000015560208201518160010160006101000a81548173ffffffffffffffffffffffffffffffffffffffff021916908373ffffffffffffffffffffffffffffffffffffffff16021790555090505060038290806001815401808255809150506001900390600052602060002001600090919091909150555050565b60038181548110611fae57600080fd5b906000526020600020016000915090505481565b600080600960008681526020019081526020016000206000856001811115612013577f4e487b7100000000000000000000000000000000000000000000000000000000600052602160045260246000fd5b600181111561204b577f4e487b7100000000000000000000000000000000000000000000000000000000600052602160045260246000fd5b81526020019081526020016000208054905011600a906120a1576040517f08c379a000000000000000000000000000000000000000000000000000000000815260040161209891906151d0565b60405180910390fd5b5060006009600086815260200190815260200160002060008560018111156120f2577f4e487b7100000000000000000000000000000000000000000000000000000000600052602160045260246000fd5b600181111561212a577f4e487b7100000000000000000000000000000000000000000000000000000000600052602160045260246000fd5b8152602001908152602001600020805480602002602001604051908101604052809291908181526020016000905b8282101561228f57838290600052602060002090600502016040518060c0016040529081600082015481526020016001820160009054906101000a900473ffffffffffffffffffffffffffffffffffffffff1673ffffffffffffffffffffffffffffffffffffffff1673ffffffffffffffffffffffffffffffffffffffff1681526020016001820160149054906101000a900460ff166001811115612226577f4e487b7100000000000000000000000000000000000000000000000000000000600052602160045260246000fd5b600181111561225e577f4e487b7100000000000000000000000000000000000000000000000000000000600052602160045260246000fd5b8152602001600282015481526020016003820154815260200160048201548152505081526020019060010190612158565b5050505090508083815181106122ce577f4e487b7100000000000000000000000000000000000000000000000000000000600052603260045260246000fd5b6020026020010151608001519150509392505050565b60606000600960008581526020019081526020016000206000846001811115612336577f4e487b7100000000000000000000000000000000000000000000000000000000600052602160045260246000fd5b600181111561236e577f4e487b7100000000000000000000000000000000000000000000000000000000600052602160045260246000fd5b81526020019081526020016000208054905011600a906123c4576040517f08c379a00000000000000000000000000000000000000000000000000000000081526004016123bb91906151d0565b60405180910390fd5b50600960008481526020019081526020016000206000836001811115612413577f4e487b7100000000000000000000000000000000000000000000000000000000600052602160045260246000fd5b600181111561244b577f4e487b7100000000000000000000000000000000000000000000000000000000600052602160045260246000fd5b8152602001908152602001600020805480602002602001604051908101604052809291908181526020016000905b828210156125b057838290600052602060002090600502016040518060c0016040529081600082015481526020016001820160009054906101000a900473ffffffffffffffffffffffffffffffffffffffff1673ffffffffffffffffffffffffffffffffffffffff1673ffffffffffffffffffffffffffffffffffffffff1681526020016001820160149054906101000a900460ff166001811115612547577f4e487b7100000000000000000000000000000000000000000000000000000000600052602160045260246000fd5b600181111561257f577f4e487b7100000000000000000000000000000000000000000000000000000000600052602160045260246000fd5b8152602001600282015481526020016003820154815260200160048201548152505081526020019060010190612479565b50505050905092915050565b6001808111156125f5577f4e487b7100000000000000000000000000000000000000000000000000000000600052602160045260246000fd5b83600181111561262e577f4e487b7100000000000000000000000000000000000000000000000000000000600052602160045260246000fd5b14156126cc5781600260003373ffffffffffffffffffffffffffffffffffffffff1673ffffffffffffffffffffffffffffffffffffffff16815260200190815260200160002060008681526020019081526020016000205410156126c7576040517f08c379a00000000000000000000000000000000000000000000000000000000081526004016126be90615312565b60405180910390fd5b6127ee565b60006001811115612706577f4e487b7100000000000000000000000000000000000000000000000000000000600052602160045260246000fd5b83600181111561273f577f4e487b7100000000000000000000000000000000000000000000000000000000600052602160045260246000fd5b14156127ed57612758818361388b90919063ffffffff16565b600260003373ffffffffffffffffffffffffffffffffffffffff1673ffffffffffffffffffffffffffffffffffffffff168152602001908152602001600020600060045481526020019081526020016000205410156127ec576040517f08c379a00000000000000000000000000000000000000000000000000000000081526004016127e3906151f2565b60405180910390fd5b5b5b6127fa848484846138a1565b50505050565b600080600960008681526020019081526020016000206000856001811115612851577f4e487b7100000000000000000000000000000000000000000000000000000000600052602160045260246000fd5b6001811115612889577f4e487b7100000000000000000000000000000000000000000000000000000000600052602160045260246000fd5b81526020019081526020016000208054905011600a906128df576040517f08c379a00000000000000000000000000000000000000000000000000000000081526004016128d691906151d0565b60405180910390fd5b5060006128ed858585610bd7565b905060006128fc868686611fc2565b9050612911818361388b90919063ffffffff16565b925050509392505050565b612924613883565b73ffffffffffffffffffffffffffffffffffffffff16612942611b9d565b73ffffffffffffffffffffffffffffffffffffffff1614612998576040517f08c379a000000000000000000000000000000000000000000000000000000000815260040161298f906152d2565b60405180910390fd5b600073ffffffffffffffffffffffffffffffffffffffff168173ffffffffffffffffffffffffffffffffffffffff161415612a08576040517f08c379a00000000000000000000000000000000000000000000000000000000081526004016129ff90615212565b60405180910390fd5b8073ffffffffffffffffffffffffffffffffffffffff1660008054906101000a900473ffffffffffffffffffffffffffffffffffffffff1673ffffffffffffffffffffffffffffffffffffffff167f8be0079c531659141344cd1fd0a4f28419497f9722a3daafe3b4186f6b6457e060405160405180910390a3806000806101000a81548173ffffffffffffffffffffffffffffffffffffffff021916908373ffffffffffffffffffffffffffffffffffffffff16021790555050565b60003411612b08576040517f08c379a0000000000000000000000000000000000000000000000000000000008152600401612aff90615272565b60405180910390fd5b6000349050612b7281600260003373ffffffffffffffffffffffffffffffffffffffff1673ffffffffffffffffffffffffffffffffffffffff1681526020019081526020016000206000600454815260200190815260200160002054612be190919063ffffffff16565b600260003373ffffffffffffffffffffffffffffffffffffffff1673ffffffffffffffffffffffffffffffffffffffff168152602001908152602001600020600060045481526020019081526020016000208190555050565b60008183612bd991906154bd565b905092915050565b60008183612bef919061540d565b905092915050565b6000819050600080600080600960008981526020019081526020016000206000886001811115612c50577f4e487b7100000000000000000000000000000000000000000000000000000000600052602160045260246000fd5b6001811115612c88577f4e487b7100000000000000000000000000000000000000000000000000000000600052602160045260246000fd5b8152602001908152602001600020905060006001811115612cd2577f4e487b7100000000000000000000000000000000000000000000000000000000600052602160045260246000fd5b876001811115612d0b577f4e487b7100000000000000000000000000000000000000000000000000000000600052602160045260246000fd5b1415612d8657339350808281548110612d4d577f4e487b7100000000000000000000000000000000000000000000000000000000600052603260045260246000fd5b906000526020600020906005020160010160009054906101000a900473ffffffffffffffffffffffffffffffffffffffff169250612df7565b808281548110612dbf577f4e487b7100000000000000000000000000000000000000000000000000000000600052603260045260246000fd5b906000526020600020906005020160010160009054906101000a900473ffffffffffffffffffffffffffffffffffffffff1693503392505b600091505b60018180549050612e0d91906154bd565b8211613088576000818381548110612e4e577f4e487b7100000000000000000000000000000000000000000000000000000000600052603260045260246000fd5b90600052602060002090600502016003015490508086108015612e715750600086115b15612f56576000828481548110612eb1577f4e487b7100000000000000000000000000000000000000000000000000000000600052603260045260246000fd5b90600052602060002090600502016004015490506000612eda828961388b90919063ffffffff16565b9050612ee98b8888848c613afb565b612efc8884612bcb90919063ffffffff16565b848681548110612f35577f4e487b7100000000000000000000000000000000000000000000000000000000600052603260045260246000fd5b90600052602060002090600502016003018190555060009750505050613088565b808610158015612f665750600081115b15613046576000828481548110612fa6577f4e487b7100000000000000000000000000000000000000000000000000000000600052603260045260246000fd5b90600052602060002090600502016004015490506000612fcf828461388b90919063ffffffff16565b9050612fde8b88888487613afb565b612ff18389612bcb90919063ffffffff16565b9750600084868154811061302e577f4e487b7100000000000000000000000000000000000000000000000000000000600052603260045260246000fd5b90600052602060002090600502016003018190555050505b6001828054905061305791906154bd565b831480156130655750600086115b15613074576000955050613088565b508180613080906155c4565b925050612dfc565b6001818054905061309991906154bd565b91505b600082111561312d5760008183815481106130e0577f4e487b7100000000000000000000000000000000000000000000000000000000600052603260045260246000fd5b9060005260206000209060050201600301541415613104576131038888846133a7565b5b600182141561311a57613119888860006133a7565b5b818061312590615568565b92505061309c565b5050505050505050565b600080600960008581526020019081526020016000206000846001811115613188577f4e487b7100000000000000000000000000000000000000000000000000000000600052602160045260246000fd5b60018111156131c0577f4e487b7100000000000000000000000000000000000000000000000000000000600052602160045260246000fd5b8152602001908152602001600020805480602002602001604051908101604052809291908181526020016000905b8282101561332557838290600052602060002090600502016040518060c0016040529081600082015481526020016001820160009054906101000a900473ffffffffffffffffffffffffffffffffffffffff1673ffffffffffffffffffffffffffffffffffffffff1673ffffffffffffffffffffffffffffffffffffffff1681526020016001820160149054906101000a900460ff1660018111156132bc577f4e487b7100000000000000000000000000000000000000000000000000000000600052602160045260246000fd5b60018111156132f4577f4e487b7100000000000000000000000000000000000000000000000000000000600052602160045260246000fd5b81526020016002820154815260200160038201548152602001600482015481525050815260200190600101906131ee565b505050509050600091505b805182101561339e5784818381518110613373577f4e487b7100000000000000000000000000000000000000000000000000000000600052603260045260246000fd5b602002602001015160000151141561338b57506133a0565b8180613396906155c4565b925050613330565b505b9392505050565b60006009600085815260200190815260200160002060008460018111156133f7577f4e487b7100000000000000000000000000000000000000000000000000000000600052602160045260246000fd5b600181111561342f577f4e487b7100000000000000000000000000000000000000000000000000000000600052602160045260246000fd5b815260200190815260200160002090506001818054905061345091906154bd565b821415613507578080548061348e577f4e487b7100000000000000000000000000000000000000000000000000000000600052603160045260246000fd5b60019003818190600052602060002090600502016000808201600090556001820160006101000a81549073ffffffffffffffffffffffffffffffffffffffff02191690556001820160146101000a81549060ff02191690556002820160009055600382016000905560048201600090555050905561387d565b6001818054905061351891906154bd565b82101561387c576000816001838054905061353391906154bd565b8154811061356a577f4e487b7100000000000000000000000000000000000000000000000000000000600052603260045260246000fd5b90600052602060002090600502016040518060c0016040529081600082015481526020016001820160009054906101000a900473ffffffffffffffffffffffffffffffffffffffff1673ffffffffffffffffffffffffffffffffffffffff1673ffffffffffffffffffffffffffffffffffffffff1681526020016001820160149054906101000a900460ff16600181111561362e577f4e487b7100000000000000000000000000000000000000000000000000000000600052602160045260246000fd5b6001811115613666577f4e487b7100000000000000000000000000000000000000000000000000000000600052602160045260246000fd5b815260200160028201548152602001600382015481526020016004820154815250509050808284815481106136c4577f4e487b7100000000000000000000000000000000000000000000000000000000600052603260045260246000fd5b90600052602060002090600502016000820151816000015560208201518160010160006101000a81548173ffffffffffffffffffffffffffffffffffffffff021916908373ffffffffffffffffffffffffffffffffffffffff16021790555060408201518160010160146101000a81548160ff02191690836001811115613774577f4e487b7100000000000000000000000000000000000000000000000000000000600052602160045260246000fd5b0217905550606082015181600201556080820151816003015560a08201518160040155905050818054806137d1577f4e487b7100000000000000000000000000000000000000000000000000000000600052603160045260246000fd5b60019003818190600052602060002090600502016000808201600090556001820160006101000a81549073ffffffffffffffffffffffffffffffffffffffff02191690556001820160146101000a81549060ff0219169055600282016000905560038201600090556004820160009055505090556001600760006101000a81548160ff02191690831515021790555061387a8585600760009054906101000a900460ff16613de6565b505b5b50505050565b600033905090565b600081836138999190615463565b905092915050565b60006040518060c0016040528060065481526020013373ffffffffffffffffffffffffffffffffffffffff16815260200185600181111561390b577f4e487b7100000000000000000000000000000000000000000000000000000000600052602160045260246000fd5b8152602001868152602001848152602001838152509050600960008681526020019081526020016000206000856001811115613970577f4e487b7100000000000000000000000000000000000000000000000000000000600052602160045260246000fd5b60018111156139a8577f4e487b7100000000000000000000000000000000000000000000000000000000600052602160045260246000fd5b81526020019081526020016000208190806001815401808255809150506001900390600052602060002090600502016000909190919091506000820151816000015560208201518160010160006101000a81548173ffffffffffffffffffffffffffffffffffffffff021916908373ffffffffffffffffffffffffffffffffffffffff16021790555060408201518160010160146101000a81548160ff02191690836001811115613a82577f4e487b7100000000000000000000000000000000000000000000000000000000600052602160045260246000fd5b0217905550606082015181600201556080820151816003015560a08201518160040155505060066000815480929190613aba906155c4565b91905055506000600760006101000a81548160ff021916908315150217905550613af48585600760009054906101000a900460ff16613de6565b5050505050565b613b6082600260008773ffffffffffffffffffffffffffffffffffffffff1673ffffffffffffffffffffffffffffffffffffffff1681526020019081526020016000206000600454815260200190815260200160002054612be190919063ffffffff16565b600260008673ffffffffffffffffffffffffffffffffffffffff1673ffffffffffffffffffffffffffffffffffffffff1681526020019081526020016000206000600454815260200190815260200160002081905550613c1981600260008773ffffffffffffffffffffffffffffffffffffffff1673ffffffffffffffffffffffffffffffffffffffff168152602001908152602001600020600088815260200190815260200160002054612bcb90919063ffffffff16565b600260008673ffffffffffffffffffffffffffffffffffffffff1673ffffffffffffffffffffffffffffffffffffffff168152602001908152602001600020600087815260200190815260200160002081905550613cd282600260008673ffffffffffffffffffffffffffffffffffffffff1673ffffffffffffffffffffffffffffffffffffffff1681526020019081526020016000206000600454815260200190815260200160002054612bcb90919063ffffffff16565b600260008573ffffffffffffffffffffffffffffffffffffffff1673ffffffffffffffffffffffffffffffffffffffff1681526020019081526020016000206000600454815260200190815260200160002081905550613d8b81600260008673ffffffffffffffffffffffffffffffffffffffff1673ffffffffffffffffffffffffffffffffffffffff168152602001908152602001600020600088815260200190815260200160002054612be190919063ffffffff16565b600260008573ffffffffffffffffffffffffffffffffffffffff1673ffffffffffffffffffffffffffffffffffffffff1681526020019081526020016000206000878152602001908152602001600020819055505050505050565b6000600960008581526020019081526020016000206000846001811115613e36577f4e487b7100000000000000000000000000000000000000000000000000000000600052602160045260246000fd5b6001811115613e6e577f4e487b7100000000000000000000000000000000000000000000000000000000600052602160045260246000fd5b81526020019081526020016000209050600060018280549050613e9191906154bd565b90506001151583151514156141425760006001811115613eda577f4e487b7100000000000000000000000000000000000000000000000000000000600052602160045260246000fd5b846001811115613f13577f4e487b7100000000000000000000000000000000000000000000000000000000600052602160045260246000fd5b1415613fef5760005b81811015613fed5782600182613f32919061540d565b81548110613f69577f4e487b7100000000000000000000000000000000000000000000000000000000600052603260045260246000fd5b906000526020600020906005020160040154838281548110613fb4577f4e487b7100000000000000000000000000000000000000000000000000000000600052603260045260246000fd5b9060005260206000209060050201600401541015613fd957613fd886868387614407565b5b600181613fe6919061540d565b9050613f1c565b505b600180811115614028577f4e487b7100000000000000000000000000000000000000000000000000000000600052602160045260246000fd5b846001811115614061577f4e487b7100000000000000000000000000000000000000000000000000000000600052602160045260246000fd5b141561413d5760005b8181101561413b5782600182614080919061540d565b815481106140b7577f4e487b7100000000000000000000000000000000000000000000000000000000600052603260045260246000fd5b906000526020600020906005020160040154838281548110614102577f4e487b7100000000000000000000000000000000000000000000000000000000600052603260045260246000fd5b90600052602060002090600502016004015411156141275761412686868387614407565b5b600181614134919061540d565b905061406a565b505b614400565b6000151583151514156143ff5760006001811115614189577f4e487b7100000000000000000000000000000000000000000000000000000000600052602160045260246000fd5b8460018111156141c2577f4e487b7100000000000000000000000000000000000000000000000000000000600052602160045260246000fd5b14156142a45760008190505b6001811061429e57826001826141e491906154bd565b8154811061421b577f4e487b7100000000000000000000000000000000000000000000000000000000600052603260045260246000fd5b906000526020600020906005020160040154838281548110614266577f4e487b7100000000000000000000000000000000000000000000000000000000600052603260045260246000fd5b906000526020600020906005020160040154111561428b5761428a86868387614407565b5b808061429690615568565b9150506141ce565b506143fe565b6001808111156142dd577f4e487b7100000000000000000000000000000000000000000000000000000000600052602160045260246000fd5b846001811115614316577f4e487b7100000000000000000000000000000000000000000000000000000000600052602160045260246000fd5b14156143fd5760008190505b600181106143fb578260018261433891906154bd565b8154811061436f577f4e487b7100000000000000000000000000000000000000000000000000000000600052603260045260246000fd5b9060005260206000209060050201600401548382815481106143ba577f4e487b7100000000000000000000000000000000000000000000000000000000600052603260045260246000fd5b90600052602060002090600502016004015410156143e3576143de86868387614407565b6143e8565b6143fb565b80806143f390615568565b915050614322565b505b5b5b5b5050505050565b600080151582151514156144295760018361442291906154bd565b9050614439565b600183614436919061540d565b90505b6000600960008781526020019081526020016000206000866001811115614489577f4e487b7100000000000000000000000000000000000000000000000000000000600052602160045260246000fd5b60018111156144c1577f4e487b7100000000000000000000000000000000000000000000000000000000600052602160045260246000fd5b81526020019081526020016000209050600081858154811061450c577f4e487b7100000000000000000000000000000000000000000000000000000000600052603260045260246000fd5b90600052602060002090600502016040518060c0016040529081600082015481526020016001820160009054906101000a900473ffffffffffffffffffffffffffffffffffffffff1673ffffffffffffffffffffffffffffffffffffffff1673ffffffffffffffffffffffffffffffffffffffff1681526020016001820160149054906101000a900460ff1660018111156145d0577f4e487b7100000000000000000000000000000000000000000000000000000000600052602160045260246000fd5b6001811115614608577f4e487b7100000000000000000000000000000000000000000000000000000000600052602160045260246000fd5b8152602001600282015481526020016003820154815260200160048201548152505090506000828481548110614667577f4e487b7100000000000000000000000000000000000000000000000000000000600052603260045260246000fd5b90600052602060002090600502016040518060c0016040529081600082015481526020016001820160009054906101000a900473ffffffffffffffffffffffffffffffffffffffff1673ffffffffffffffffffffffffffffffffffffffff1673ffffffffffffffffffffffffffffffffffffffff1681526020016001820160149054906101000a900460ff16600181111561472b577f4e487b7100000000000000000000000000000000000000000000000000000000600052602160045260246000fd5b6001811115614763577f4e487b7100000000000000000000000000000000000000000000000000000000600052602160045260246000fd5b815260200160028201548152602001600382015481526020016004820154815250509050818385815481106147c1577f4e487b7100000000000000000000000000000000000000000000000000000000600052603260045260246000fd5b90600052602060002090600502016000820151816000015560208201518160010160006101000a81548173ffffffffffffffffffffffffffffffffffffffff021916908373ffffffffffffffffffffffffffffffffffffffff16021790555060408201518160010160146101000a81548160ff02191690836001811115614871577f4e487b7100000000000000000000000000000000000000000000000000000000600052602160045260246000fd5b0217905550606082015181600201556080820151816003015560a08201518160040155905050808387815481106148d1577f4e487b7100000000000000000000000000000000000000000000000000000000600052603260045260246000fd5b90600052602060002090600502016000820151816000015560208201518160010160006101000a81548173ffffffffffffffffffffffffffffffffffffffff021916908373ffffffffffffffffffffffffffffffffffffffff16021790555060408201518160010160146101000a81548160ff02191690836001811115614981577f4e487b7100000000000000000000000000000000000000000000000000000000600052602160045260246000fd5b0217905550606082015181600201556080820151816003015560a082015181600401559050505050505050505050565b6000813590506149c0816156ae565b92915050565b6000815190506149d5816156c5565b92915050565b6000813590506149ea816156dc565b92915050565b6000813590506149ff816156f3565b92915050565b600081359050614a1481615703565b92915050565b600060208284031215614a2c57600080fd5b6000614a3a848285016149b1565b91505092915050565b60008060408385031215614a5657600080fd5b6000614a64858286016149b1565b9250506020614a75858286016149db565b9150509250929050565b600060208284031215614a9157600080fd5b6000614a9f848285016149c6565b91505092915050565b600060208284031215614aba57600080fd5b6000614ac8848285016149db565b91505092915050565b60008060408385031215614ae457600080fd5b6000614af2858286016149db565b9250506020614b03858286016149b1565b9150509250929050565b60008060408385031215614b2057600080fd5b6000614b2e858286016149db565b9250506020614b3f858286016149f0565b9150509250929050565b600080600060608486031215614b5e57600080fd5b6000614b6c868287016149db565b9350506020614b7d868287016149f0565b9250506040614b8e86828701614a05565b9150509250925092565b60008060008060808587031215614bae57600080fd5b6000614bbc878288016149db565b9450506020614bcd878288016149f0565b9350506040614bde87828801614a05565b9250506060614bef87828801614a05565b91505092959194509250565b60008060408385031215614c0e57600080fd5b6000614c1c858286016149db565b9250506020614c2d85828601614a05565b9150509250929050565b600060208284031215614c4957600080fd5b6000614c5784828501614a05565b91505092915050565b6000614c6c8383615056565b60c08301905092915050565b614c81816154f1565b82525050565b614c90816154f1565b82525050565b6000614ca1826153d3565b614cab81856153eb565b9350614cb6836153ae565b8060005b83811015614ce7578151614cce8882614c60565b9750614cd9836153de565b925050600181019050614cba565b5085935050505092915050565b614cfd8161550f565b82525050565b614d0c8161550f565b82525050565b614d1b81615556565b82525050565b614d2a81615556565b82525050565b60008154614d3d81615592565b614d4781866153fc565b94506001821660008114614d625760018114614d7457614da7565b60ff1983168652602086019350614da7565b614d7d856153be565b60005b83811015614d9f57815481890152600182019150602081019050614d80565b808801955050505b50505092915050565b6000614dbd6010836153fc565b91507f496e73756666696369656e7420455448000000000000000000000000000000006000830152602082019050919050565b6000614dfd6026836153fc565b91507f4f776e61626c653a206e6577206f776e657220697320746865207a65726f206160008301527f64647265737300000000000000000000000000000000000000000000000000006020830152604082019050919050565b6000614e636012836153fc565b91507f546f6b656e206e6f6e2d6578697374656e7400000000000000000000000000006000830152602082019050919050565b6000614ea3600f836153fc565b91507f4e6f206f726465727320657869737400000000000000000000000000000000006000830152602082019050919050565b6000614ee36011836153fc565b91507f4572726f723a2076616c7565203c3d20300000000000000000000000000000006000830152602082019050919050565b6000614f236014836153fc565b91507f496e73756666696369656e742062616c616e63650000000000000000000000006000830152602082019050919050565b6000614f636016836153fc565b91507f4f6e6c79207472616465722063616e2072656d6f7665000000000000000000006000830152602082019050919050565b6000614fa36020836153fc565b91507f4f776e61626c653a2063616c6c6572206973206e6f7420746865206f776e65726000830152602082019050919050565b6000614fe3601a836153fc565b91507f496e73756666696369656e7420746f6b656e2062616c616e63650000000000006000830152602082019050919050565b60006150236013836153fc565b91507f496e73756666696369656e7420746f6b656e73000000000000000000000000006000830152602082019050919050565b60c08201600082015161506c60008501826150d1565b50602082015161507f6020850182614c78565b5060408201516150926040850182614d12565b5060608201516150a56060850182614cf4565b5060808201516150b860808501826150d1565b5060a08201516150cb60a08501826150d1565b50505050565b6150da8161554c565b82525050565b6150e98161554c565b82525050565b60006020820190506151046000830184614c87565b92915050565b600060608201905061511f6000830186614c87565b61512c6020830185614c87565b61513960408301846150e0565b949350505050565b60006040820190506151566000830185614c87565b61516360208301846150e0565b9392505050565b600060208201905081810360008301526151848184614c96565b905092915050565b60006020820190506151a16000830184614d03565b92915050565b60006040820190506151bc6000830185614d03565b6151c96020830184614c87565b9392505050565b600060208201905081810360008301526151ea8184614d30565b905092915050565b6000602082019050818103600083015261520b81614db0565b9050919050565b6000602082019050818103600083015261522b81614df0565b9050919050565b6000602082019050818103600083015261524b81614e56565b9050919050565b6000602082019050818103600083015261526b81614e96565b9050919050565b6000602082019050818103600083015261528b81614ed6565b9050919050565b600060208201905081810360008301526152ab81614f16565b9050919050565b600060208201905081810360008301526152cb81614f56565b9050919050565b600060208201905081810360008301526152eb81614f96565b9050919050565b6000602082019050818103600083015261530b81614fd6565b9050919050565b6000602082019050818103600083015261532b81615016565b9050919050565b600060208201905061534760008301846150e0565b92915050565b600060c08201905061536260008301896150e0565b61536f6020830188614c87565b61537c6040830187614d21565b6153896060830186614d03565b61539660808301856150e0565b6153a360a08301846150e0565b979650505050505050565b6000819050602082019050919050565b60008190508160005260206000209050919050565b600081519050919050565b6000602082019050919050565b600082825260208201905092915050565b600082825260208201905092915050565b60006154188261554c565b91506154238361554c565b9250827fffffffffffffffffffffffffffffffffffffffffffffffffffffffffffffffff038211156154585761545761560d565b5b828201905092915050565b600061546e8261554c565b91506154798361554c565b9250817fffffffffffffffffffffffffffffffffffffffffffffffffffffffffffffffff04831182151516156154b2576154b161560d565b5b828202905092915050565b60006154c88261554c565b91506154d38361554c565b9250828210156154e6576154e561560d565b5b828203905092915050565b60006154fc8261552c565b9050919050565b60008115159050919050565b6000819050919050565b60008190506155278261569a565b919050565b600073ffffffffffffffffffffffffffffffffffffffff82169050919050565b6000819050919050565b600061556182615519565b9050919050565b60006155738261554c565b915060008214156155875761558661560d565b5b600182039050919050565b600060028204905060018216806155aa57607f821691505b602082108114156155be576155bd61566b565b5b50919050565b60006155cf8261554c565b91507fffffffffffffffffffffffffffffffffffffffffffffffffffffffffffffffff8214156156025761560161560d565b5b600182019050919050565b7f4e487b7100000000000000000000000000000000000000000000000000000000600052601160045260246000fd5b7f4e487b7100000000000000000000000000000000000000000000000000000000600052602160045260246000fd5b7f4e487b7100000000000000000000000000000000000000000000000000000000600052602260045260246000fd5b600281106156ab576156aa61563c565b5b50565b6156b7816154f1565b81146156c257600080fd5b50565b6156ce81615503565b81146156d957600080fd5b50565b6156e58161550f565b81146156f057600080fd5b50565b6002811061570057600080fd5b50565b61570c8161554c565b811461571757600080fd5b5056fea2646970667358221220270e926fb5f6db60ccc8a9a68cf305f9d1ce55c22f1eb3aa1b0c089b3d0a537e64736f6c63430008000033",
  "immutableReferences": {},
  "source": "pragma solidity ^0.8.0;\r\npragma experimental ABIEncoderV2;\r\n\r\nimport \"./DEXWallet.sol\";\r\nimport \"./DEXGetters.sol\";\r\nimport \"../node_modules/@openzeppelin/contracts/utils/math/SafeMath.sol\";\r\n\r\ncontract DEX is DEXWallet, DEXGetters {\r\n  using SafeMath for uint256;\r\n\r\n  function CreateLimitOrder(bytes32 _ticker, SIDE _side, uint _amount, uint _price) external {\r\n    if (_side == SIDE.SELL){\r\n      require(balances[msg.sender][_ticker] >= _amount, \"Insufficient tokens\");\r\n    }\r\n    else if (_side == SIDE.BUY){\r\n      require(balances[msg.sender][ETH] >= _amount.mul(_price), \"Insufficient ETH\");\r\n    }\r\n      _newLimitOrder(_ticker, _side, _amount, _price);\r\n  }\r\n\r\n  function _newLimitOrder(bytes32 _ticker, SIDE _side, uint _amount, uint _price) internal {\r\n    Order memory newOrder = Order(orderID, msg.sender, _side, _ticker, _amount, _price);\r\n    orderBook[_ticker][_side].push(newOrder);\r\n    orderID++;\r\n    _orderRemoved = false;\r\n    _sort(_ticker, _side, _orderRemoved);\r\n  }\r\n\r\n  function CreateMarketOrder(bytes32 _ticker, SIDE _side, uint256 _amount) external {\r\n    SIDE limitSide;\r\n    if(_side == SIDE.SELL){\r\n      require(balances[msg.sender][_ticker] >= _amount, \"Insufficient token balance\");\r\n      require(orderBook[_ticker][SIDE.BUY].length > 0, \"No orders exist\");\r\n      limitSide = SIDE.BUY;\r\n    }\r\n    else if(_side == SIDE.BUY){\r\n      require(balances[msg.sender][ETH] >= _marketBuyCost(_ticker, _amount), \"Insufficient ETH\");\r\n      require(orderBook[_ticker][SIDE.SELL].length > 0, \"No orders exist\");\r\n      limitSide = SIDE.SELL;\r\n    }\r\n\r\n    _fillOrder(_ticker, limitSide, _amount);\r\n\r\n  }\r\n\r\n  function _fillOrder(bytes32 _ticker, SIDE limitSide, uint _amount) internal {\r\n\r\n    uint orderRemaining = _amount;\r\n    address seller;\r\n    address buyer;\r\n    uint i;\r\n\r\n    Order[] storage _order = orderBook[_ticker][limitSide];\r\n\r\n    if (limitSide == SIDE.BUY){\r\n      seller = msg.sender;\r\n      buyer = _order[i].trader;\r\n    }\r\n    else {\r\n      seller = _order[i].trader;\r\n      buyer = msg.sender;\r\n    }\r\n\r\n    for (i = 0; i <= _order.length - 1; i++) {\r\n      uint limitAmount = _order[i].amount;\r\n\r\n      //orderRemaining < limitAmount\r\n      if (orderRemaining < limitAmount && orderRemaining > 0) {\r\n        uint limitPrice = _order[i].price;\r\n        uint remainingPrice = orderRemaining.mul(limitPrice);\r\n        _trade(_ticker, seller, buyer, remainingPrice, orderRemaining);\r\n        _order[i].amount = limitAmount.sub(orderRemaining);\r\n        orderRemaining = 0;\r\n        break;\r\n      }\r\n\r\n      //orderRemaining >= limitAmount\r\n      if (orderRemaining >= limitAmount && limitAmount > 0) {\r\n\r\n        uint limitPrice = _order[i].price;\r\n        uint orderPrice = limitAmount.mul(limitPrice);\r\n        _trade(_ticker, seller, buyer, orderPrice, limitAmount);\r\n        orderRemaining = orderRemaining.sub(limitAmount);\r\n        _order[i].amount = 0;\r\n\r\n        }\r\n        if (i == _order.length - 1 && orderRemaining > 0) {\r\n          orderRemaining = 0;\r\n          break;\r\n          }\r\n        }\r\n\r\n        for (i = _order.length - 1; i > 0; i--) {\r\n          if (_order[i].amount == 0) {\r\n            _removeOrder(_ticker, limitSide, i);\r\n          }\r\n          if (i == 1) {\r\n            _removeOrder(_ticker, limitSide, 0);\r\n          }\r\n        }\r\n  }\r\n\r\n\r\n\r\n  function _trade(bytes32 _ticker, address _seller, address _buyer, uint _price, uint _amount) internal {\r\n    balances[_seller][ETH] = balances[_seller][ETH].add(_price);\r\n    balances[_seller][_ticker] = balances[_seller][_ticker].sub(_amount);\r\n    balances[_buyer][ETH] = balances[_buyer][ETH].sub(_price);\r\n    balances[_buyer][_ticker] = balances[_buyer][_ticker].add(_amount);\r\n  }\r\n\r\n  function RemoveOrder(bytes32 _ticker, SIDE _side, uint _ID) external {\r\n    Order[] memory removedOrder = orderBook[_ticker][_side];\r\n    uint _index = _findOrderIndex(_ID, _ticker, _side);\r\n\r\n    require(removedOrder[_index].trader == msg.sender, \"Only trader can remove\");\r\n    _removeOrder(_ticker, _side, _index);\r\n  }\r\n\r\n  function _removeOrder(bytes32 _ticker, SIDE _side, uint _index) internal {\r\n    Order[] storage _orderBook = orderBook[_ticker][_side];\r\n\r\n    if (_index == _orderBook.length - 1) {\r\n      _orderBook.pop();\r\n    }\r\n\r\n    else if (_index < _orderBook.length - 1){\r\n      Order memory newEntry = _orderBook[_orderBook.length - 1];\r\n      _orderBook[_index] = newEntry;\r\n      _orderBook.pop();\r\n      _orderRemoved = true;\r\n      _sort(_ticker, _side, _orderRemoved);\r\n    }\r\n  }\r\n\r\n  function _sort(bytes32 _ticker, SIDE _side, bool _orderRemoved) internal {\r\n    Order[] storage ORDER = orderBook[_ticker][_side];\r\n    uint ORDERLength = ORDER.length - 1;\r\n\r\n    if (_orderRemoved == true){\r\n      if (_side == SIDE.BUY) {\r\n        for (uint i = 0; i < ORDERLength; i += 1) {\r\n          if (ORDER[i].price < ORDER[i + 1].price) {\r\n            _swapOrders( _ticker, _side, i, _orderRemoved);\r\n          }\r\n        }\r\n      }\r\n      if (_side == SIDE.SELL) {\r\n        for (uint i = 0; i < ORDERLength; i += 1) {\r\n          if (ORDER[i].price > ORDER[i + 1].price) {\r\n            _swapOrders(_ticker, _side, i, _orderRemoved);\r\n          }\r\n        }\r\n      }\r\n    }\r\n\r\n    else if (_orderRemoved == false){\r\n      if (_side == SIDE.BUY) {\r\n        for (uint i = ORDERLength; i >= 1; i--) {\r\n          if (ORDER[i].price > ORDER[i - 1].price) {\r\n            _swapOrders(_ticker, _side, i, _orderRemoved);\r\n          }\r\n        }\r\n      }\r\n      else if (_side == SIDE.SELL) {\r\n        for (uint i = ORDERLength; i >= 1; i--) {\r\n          if (ORDER[i].price < ORDER[i - 1].price) {\r\n            _swapOrders(_ticker, _side, i, _orderRemoved);\r\n          }\r\n          else break;\r\n          }\r\n        }\r\n      }\r\n    }\r\n\r\n  function _swapOrders(bytes32 _ticker, SIDE _side, uint _index, bool _orderRemoved) internal {\r\n    uint nextIndex;\r\n    if (_orderRemoved == false){\r\n      nextIndex = _index - 1;\r\n    }\r\n    else {\r\n      nextIndex = _index + 1;\r\n    }\r\n    Order[] storage ORDER = orderBook[_ticker][_side];\r\n    Order memory newOrder = ORDER[_index];\r\n    Order memory oldOrder = ORDER[nextIndex];\r\n    ORDER[nextIndex] = newOrder;\r\n    ORDER[_index] = oldOrder;\r\n  }\r\n}\r\n",
  "sourcePath": "C:\\Users\\solus\\documents\\solidity\\dex\\contracts\\DEX.sol",
  "compiler": {
    "name": "solc",
    "version": "0.8.0+commit.c7dfd78e.Emscripten.clang"
  },
  "schemaVersion": "3.4.1",
  "updatedAt": "2021-06-21T19:16:36.142Z",
  "networkType": "ethereum",
  "devdoc": {
    "kind": "dev",
    "methods": {
      "owner()": {
        "details": "Returns the address of the current owner."
      },
      "renounceOwnership()": {
        "details": "Leaves the contract without owner. It will not be possible to call `onlyOwner` functions anymore. Can only be called by the current owner. NOTE: Renouncing ownership will leave the contract without an owner, thereby removing any functionality that is only available to the owner."
      },
      "transferOwnership(address)": {
        "details": "Transfers ownership of the contract to a new account (`newOwner`). Can only be called by the current owner."
      }
    },
    "version": 1
  },
  "userdoc": {
    "kind": "user",
    "methods": {},
    "version": 1
  }
}