{
  "contractName": "DEXGetters",
  "abi": [
    {
      "inputs": [
        {
          "internalType": "bytes32",
          "name": "",
          "type": "bytes32"
        },
        {
          "internalType": "enum DEXGetters.SIDE",
          "name": "",
          "type": "uint8"
        },
        {
          "internalType": "uint256",
          "name": "",
          "type": "uint256"
        }
      ],
      "name": "orderBook",
      "outputs": [
        {
          "internalType": "uint256",
          "name": "id",
          "type": "uint256"
        },
        {
          "internalType": "address",
          "name": "trader",
          "type": "address"
        },
        {
          "internalType": "enum DEXGetters.SIDE",
          "name": "side",
          "type": "uint8"
        },
        {
          "internalType": "bytes32",
          "name": "ticker",
          "type": "bytes32"
        },
        {
          "internalType": "uint256",
          "name": "amount",
          "type": "uint256"
        },
        {
          "internalType": "uint256",
          "name": "price",
          "type": "uint256"
        }
      ],
      "stateMutability": "view",
      "type": "function",
      "constant": true
    },
    {
      "inputs": [],
      "name": "orderID",
      "outputs": [
        {
          "internalType": "uint256",
          "name": "",
          "type": "uint256"
        }
      ],
      "stateMutability": "view",
      "type": "function",
      "constant": true
    },
    {
      "inputs": [
        {
          "internalType": "bytes32",
          "name": "_ticker",
          "type": "bytes32"
        },
        {
          "internalType": "enum DEXGetters.SIDE",
          "name": "_side",
          "type": "uint8"
        }
      ],
      "name": "getOrderBook",
      "outputs": [
        {
          "components": [
            {
              "internalType": "uint256",
              "name": "id",
              "type": "uint256"
            },
            {
              "internalType": "address",
              "name": "trader",
              "type": "address"
            },
            {
              "internalType": "enum DEXGetters.SIDE",
              "name": "side",
              "type": "uint8"
            },
            {
              "internalType": "bytes32",
              "name": "ticker",
              "type": "bytes32"
            },
            {
              "internalType": "uint256",
              "name": "amount",
              "type": "uint256"
            },
            {
              "internalType": "uint256",
              "name": "price",
              "type": "uint256"
            }
          ],
          "internalType": "struct DEXGetters.Order[]",
          "name": "",
          "type": "tuple[]"
        }
      ],
      "stateMutability": "view",
      "type": "function",
      "constant": true
    },
    {
      "inputs": [
        {
          "internalType": "bytes32",
          "name": "_ticker",
          "type": "bytes32"
        },
        {
          "internalType": "enum DEXGetters.SIDE",
          "name": "_side",
          "type": "uint8"
        },
        {
          "internalType": "uint256",
          "name": "_index",
          "type": "uint256"
        }
      ],
      "name": "getOrderID",
      "outputs": [
        {
          "internalType": "uint256",
          "name": "",
          "type": "uint256"
        }
      ],
      "stateMutability": "view",
      "type": "function",
      "constant": true
    },
    {
      "inputs": [
        {
          "internalType": "bytes32",
          "name": "_ticker",
          "type": "bytes32"
        },
        {
          "internalType": "enum DEXGetters.SIDE",
          "name": "_side",
          "type": "uint8"
        }
      ],
      "name": "getOrderBookLength",
      "outputs": [
        {
          "internalType": "uint256",
          "name": "",
          "type": "uint256"
        }
      ],
      "stateMutability": "view",
      "type": "function",
      "constant": true
    },
    {
      "inputs": [
        {
          "internalType": "bytes32",
          "name": "_ticker",
          "type": "bytes32"
        },
        {
          "internalType": "enum DEXGetters.SIDE",
          "name": "_side",
          "type": "uint8"
        },
        {
          "internalType": "uint256",
          "name": "_index",
          "type": "uint256"
        }
      ],
      "name": "getOrderAmount",
      "outputs": [
        {
          "internalType": "uint256",
          "name": "",
          "type": "uint256"
        }
      ],
      "stateMutability": "view",
      "type": "function",
      "constant": true
    },
    {
      "inputs": [
        {
          "internalType": "bytes32",
          "name": "_ticker",
          "type": "bytes32"
        },
        {
          "internalType": "enum DEXGetters.SIDE",
          "name": "_side",
          "type": "uint8"
        },
        {
          "internalType": "uint256",
          "name": "_index",
          "type": "uint256"
        }
      ],
      "name": "getLimitPrice",
      "outputs": [
        {
          "internalType": "uint256",
          "name": "",
          "type": "uint256"
        }
      ],
      "stateMutability": "view",
      "type": "function",
      "constant": true
    },
    {
      "inputs": [
        {
          "internalType": "bytes32",
          "name": "_ticker",
          "type": "bytes32"
        },
        {
          "internalType": "enum DEXGetters.SIDE",
          "name": "_side",
          "type": "uint8"
        },
        {
          "internalType": "uint256",
          "name": "_index",
          "type": "uint256"
        }
      ],
      "name": "getOrderPrice",
      "outputs": [
        {
          "internalType": "uint256",
          "name": "",
          "type": "uint256"
        }
      ],
      "stateMutability": "view",
      "type": "function",
      "constant": true
    },
    {
      "inputs": [
        {
          "internalType": "bytes32",
          "name": "_ticker",
          "type": "bytes32"
        },
        {
          "internalType": "uint256",
          "name": "_amount",
          "type": "uint256"
        }
      ],
      "name": "_marketBuyCost",
      "outputs": [
        {
          "internalType": "uint256",
          "name": "orderCost",
          "type": "uint256"
        }
      ],
      "stateMutability": "view",
      "type": "function",
      "constant": true
    }
  ],
  "bytecode": "0x608060405260006001556040518060400160405280600f81526020017f4f72646572626f6f6b20656d707479000000000000000000000000000000000081525060059080519060200190620000569291906200006b565b503480156200006457600080fd5b5062000180565b82805462000079906200011b565b90600052602060002090601f0160209004810192826200009d5760008555620000e9565b82601f10620000b857805160ff1916838001178555620000e9565b82800160010185558215620000e9579182015b82811115620000e8578251825591602001919060010190620000cb565b5b509050620000f89190620000fc565b5090565b5b8082111562000117576000816000905550600101620000fd565b5090565b600060028204905060018216806200013457607f821691505b602082108114156200014b576200014a62000151565b5b50919050565b7f4e487b7100000000000000000000000000000000000000000000000000000000600052602260045260246000fd5b611aef80620001906000396000f3fe608060405234801561001057600080fd5b50600436106100935760003560e01c80638c29bec0116100665780638c29bec0146101465780638df2af061461017b578063a0a9773d146101ab578063ba58ea68146101db578063eb2d37a61461020b57610093565b8063166beeaf146100985780631ff901a8146100c85780637db295a6146100f857806381203d0314610128575b600080fd5b6100b260048036038101906100ad9190611441565b61023b565b6040516100bf9190611735565b60405180910390f35b6100e260048036038101906100dd919061147d565b6102dd565b6040516100ef9190611735565b60405180910390f35b610112600480360381019061010d91906114cc565b6105ff565b60405161011f9190611735565b60405180910390f35b6101306109ce565b60405161013d9190611735565b60405180910390f35b610160600480360381019061015b919061147d565b6109d4565b60405161017296959493929190611750565b60405180910390f35b6101956004803603810190610190919061147d565b610a67565b6040516101a29190611735565b60405180910390f35b6101c560048036038101906101c0919061147d565b610caa565b6040516101d29190611735565b60405180910390f35b6101f560048036038101906101f09190611441565b610fcc565b60405161020291906116f1565b60405180910390f35b6102256004803603810190610220919061147d565b6112a4565b6040516102329190611735565b60405180910390f35b600060046000848152602001908152602001600020600083600181111561028b577f4e487b7100000000000000000000000000000000000000000000000000000000600052602160045260246000fd5b60018111156102c3577f4e487b7100000000000000000000000000000000000000000000000000000000600052602160045260246000fd5b815260200190815260200160002080549050905092915050565b60008060046000868152602001908152602001600020600085600181111561032e577f4e487b7100000000000000000000000000000000000000000000000000000000600052602160045260246000fd5b6001811115610366577f4e487b7100000000000000000000000000000000000000000000000000000000600052602160045260246000fd5b815260200190815260200160002080549050116005906103bc576040517f08c379a00000000000000000000000000000000000000000000000000000000081526004016103b39190611713565b60405180910390fd5b50600060046000868152602001908152602001600020600085600181111561040d577f4e487b7100000000000000000000000000000000000000000000000000000000600052602160045260246000fd5b6001811115610445577f4e487b7100000000000000000000000000000000000000000000000000000000600052602160045260246000fd5b8152602001908152602001600020805480602002602001604051908101604052809291908181526020016000905b828210156105aa57838290600052602060002090600502016040518060c0016040529081600082015481526020016001820160009054906101000a900473ffffffffffffffffffffffffffffffffffffffff1673ffffffffffffffffffffffffffffffffffffffff1673ffffffffffffffffffffffffffffffffffffffff1681526020016001820160149054906101000a900460ff166001811115610541577f4e487b7100000000000000000000000000000000000000000000000000000000600052602160045260246000fd5b6001811115610579577f4e487b7100000000000000000000000000000000000000000000000000000000600052602160045260246000fd5b8152602001600282015481526020016003820154815260200160048201548152505081526020019060010190610473565b5050505090508083815181106105e9577f4e487b7100000000000000000000000000000000000000000000000000000000600052603260045260246000fd5b602002602001015160a001519150509392505050565b600080600460008581526020019081526020016000206000600180811115610650577f4e487b7100000000000000000000000000000000000000000000000000000000600052602160045260246000fd5b6001811115610688577f4e487b7100000000000000000000000000000000000000000000000000000000600052602160045260246000fd5b8152602001908152602001600020805480602002602001604051908101604052809291908181526020016000905b828210156107ed57838290600052602060002090600502016040518060c0016040529081600082015481526020016001820160009054906101000a900473ffffffffffffffffffffffffffffffffffffffff1673ffffffffffffffffffffffffffffffffffffffff1673ffffffffffffffffffffffffffffffffffffffff1681526020016001820160149054906101000a900460ff166001811115610784577f4e487b7100000000000000000000000000000000000000000000000000000000600052602160045260246000fd5b60018111156107bc577f4e487b7100000000000000000000000000000000000000000000000000000000600052602160045260246000fd5b81526020016002820154815260200160038201548152602001600482015481525050815260200190600101906106b6565b5050505090506000915060008151141561080757506109c8565b60005b600084106109c55781818151811061084b577f4e487b7100000000000000000000000000000000000000000000000000000000600052603260045260246000fd5b60200260200101516080015184106108dd57600061086b866001846112a4565b905061088081856113c090919063ffffffff16565b93506108d98383815181106108be577f4e487b7100000000000000000000000000000000000000000000000000000000600052603260045260246000fd5b602002602001015160800151866113d690919063ffffffff16565b9450505b818181518110610916577f4e487b7100000000000000000000000000000000000000000000000000000000600052603260045260246000fd5b602002602001015160800151841080156109305750600084115b156109a4576000828281518110610970577f4e487b7100000000000000000000000000000000000000000000000000000000600052603260045260246000fd5b602002602001015160a00151856109879190611866565b905061099c81856113c090919063ffffffff16565b9350506109c5565b60008414156109b2576109c5565b80806109bd90611991565b91505061080a565b50505b92915050565b60015481565b600460205282600052604060002060205281600052604060002081815481106109fc57600080fd5b906000526020600020906005020160009250925050508060000154908060010160009054906101000a900473ffffffffffffffffffffffffffffffffffffffff16908060010160149054906101000a900460ff16908060020154908060030154908060040154905086565b600080600460008681526020019081526020016000206000856001811115610ab8577f4e487b7100000000000000000000000000000000000000000000000000000000600052602160045260246000fd5b6001811115610af0577f4e487b7100000000000000000000000000000000000000000000000000000000600052602160045260246000fd5b8152602001908152602001600020805480602002602001604051908101604052809291908181526020016000905b82821015610c5557838290600052602060002090600502016040518060c0016040529081600082015481526020016001820160009054906101000a900473ffffffffffffffffffffffffffffffffffffffff1673ffffffffffffffffffffffffffffffffffffffff1673ffffffffffffffffffffffffffffffffffffffff1681526020016001820160149054906101000a900460ff166001811115610bec577f4e487b7100000000000000000000000000000000000000000000000000000000600052602160045260246000fd5b6001811115610c24577f4e487b7100000000000000000000000000000000000000000000000000000000600052602160045260246000fd5b8152602001600282015481526020016003820154815260200160048201548152505081526020019060010190610b1e565b505050509050808381518110610c94577f4e487b7100000000000000000000000000000000000000000000000000000000600052603260045260246000fd5b6020026020010151600001519150509392505050565b600080600460008681526020019081526020016000206000856001811115610cfb577f4e487b7100000000000000000000000000000000000000000000000000000000600052602160045260246000fd5b6001811115610d33577f4e487b7100000000000000000000000000000000000000000000000000000000600052602160045260246000fd5b81526020019081526020016000208054905011600590610d89576040517f08c379a0000000000000000000000000000000000000000000000000000000008152600401610d809190611713565b60405180910390fd5b506000600460008681526020019081526020016000206000856001811115610dda577f4e487b7100000000000000000000000000000000000000000000000000000000600052602160045260246000fd5b6001811115610e12577f4e487b7100000000000000000000000000000000000000000000000000000000600052602160045260246000fd5b8152602001908152602001600020805480602002602001604051908101604052809291908181526020016000905b82821015610f7757838290600052602060002090600502016040518060c0016040529081600082015481526020016001820160009054906101000a900473ffffffffffffffffffffffffffffffffffffffff1673ffffffffffffffffffffffffffffffffffffffff1673ffffffffffffffffffffffffffffffffffffffff1681526020016001820160149054906101000a900460ff166001811115610f0e577f4e487b7100000000000000000000000000000000000000000000000000000000600052602160045260246000fd5b6001811115610f46577f4e487b7100000000000000000000000000000000000000000000000000000000600052602160045260246000fd5b8152602001600282015481526020016003820154815260200160048201548152505081526020019060010190610e40565b505050509050808381518110610fb6577f4e487b7100000000000000000000000000000000000000000000000000000000600052603260045260246000fd5b6020026020010151608001519150509392505050565b6060600060046000858152602001908152602001600020600084600181111561101e577f4e487b7100000000000000000000000000000000000000000000000000000000600052602160045260246000fd5b6001811115611056577f4e487b7100000000000000000000000000000000000000000000000000000000600052602160045260246000fd5b815260200190815260200160002080549050116005906110ac576040517f08c379a00000000000000000000000000000000000000000000000000000000081526004016110a39190611713565b60405180910390fd5b506004600084815260200190815260200160002060008360018111156110fb577f4e487b7100000000000000000000000000000000000000000000000000000000600052602160045260246000fd5b6001811115611133577f4e487b7100000000000000000000000000000000000000000000000000000000600052602160045260246000fd5b8152602001908152602001600020805480602002602001604051908101604052809291908181526020016000905b8282101561129857838290600052602060002090600502016040518060c0016040529081600082015481526020016001820160009054906101000a900473ffffffffffffffffffffffffffffffffffffffff1673ffffffffffffffffffffffffffffffffffffffff1673ffffffffffffffffffffffffffffffffffffffff1681526020016001820160149054906101000a900460ff16600181111561122f577f4e487b7100000000000000000000000000000000000000000000000000000000600052602160045260246000fd5b6001811115611267577f4e487b7100000000000000000000000000000000000000000000000000000000600052602160045260246000fd5b8152602001600282015481526020016003820154815260200160048201548152505081526020019060010190611161565b50505050905092915050565b6000806004600086815260200190815260200160002060008560018111156112f5577f4e487b7100000000000000000000000000000000000000000000000000000000600052602160045260246000fd5b600181111561132d577f4e487b7100000000000000000000000000000000000000000000000000000000600052602160045260246000fd5b81526020019081526020016000208054905011600590611383576040517f08c379a000000000000000000000000000000000000000000000000000000000815260040161137a9190611713565b60405180910390fd5b5060006113918585856102dd565b905060006113a0868686610caa565b90506113b581836113ec90919063ffffffff16565b925050509392505050565b600081836113ce9190611810565b905092915050565b600081836113e491906118c0565b905092915050565b600081836113fa9190611866565b905092915050565b60008135905061141181611a7b565b92915050565b60008135905061142681611a92565b92915050565b60008135905061143b81611aa2565b92915050565b6000806040838503121561145457600080fd5b600061146285828601611402565b925050602061147385828601611417565b9150509250929050565b60008060006060848603121561149257600080fd5b60006114a086828701611402565b93505060206114b186828701611417565b92505060406114c28682870161142c565b9150509250925092565b600080604083850312156114df57600080fd5b60006114ed85828601611402565b92505060206114fe8582860161142c565b9150509250929050565b60006115148383611658565b60c08301905092915050565b611529816118f4565b82525050565b611538816118f4565b82525050565b6000611549826117d6565b61155381856117ee565b935061155e836117b1565b8060005b8381101561158f5781516115768882611508565b9750611581836117e1565b925050600181019050611562565b5085935050505092915050565b6115a581611906565b82525050565b6115b481611906565b82525050565b6115c38161194d565b82525050565b6115d28161194d565b82525050565b600081546115e58161195f565b6115ef81866117ff565b9450600182166000811461160a576001811461161c5761164f565b60ff198316865260208601935061164f565b611625856117c1565b60005b8381101561164757815481890152600182019150602081019050611628565b808801955050505b50505092915050565b60c08201600082015161166e60008501826116d3565b5060208201516116816020850182611520565b50604082015161169460408501826115ba565b5060608201516116a7606085018261159c565b5060808201516116ba60808501826116d3565b5060a08201516116cd60a08501826116d3565b50505050565b6116dc81611943565b82525050565b6116eb81611943565b82525050565b6000602082019050818103600083015261170b818461153e565b905092915050565b6000602082019050818103600083015261172d81846115d8565b905092915050565b600060208201905061174a60008301846116e2565b92915050565b600060c08201905061176560008301896116e2565b611772602083018861152f565b61177f60408301876115c9565b61178c60608301866115ab565b61179960808301856116e2565b6117a660a08301846116e2565b979650505050505050565b6000819050602082019050919050565b60008190508160005260206000209050919050565b600081519050919050565b6000602082019050919050565b600082825260208201905092915050565b600082825260208201905092915050565b600061181b82611943565b915061182683611943565b9250827fffffffffffffffffffffffffffffffffffffffffffffffffffffffffffffffff0382111561185b5761185a6119da565b5b828201905092915050565b600061187182611943565b915061187c83611943565b9250817fffffffffffffffffffffffffffffffffffffffffffffffffffffffffffffffff04831182151516156118b5576118b46119da565b5b828202905092915050565b60006118cb82611943565b91506118d683611943565b9250828210156118e9576118e86119da565b5b828203905092915050565b60006118ff82611923565b9050919050565b6000819050919050565b600081905061191e82611a67565b919050565b600073ffffffffffffffffffffffffffffffffffffffff82169050919050565b6000819050919050565b600061195882611910565b9050919050565b6000600282049050600182168061197757607f821691505b6020821081141561198b5761198a611a38565b5b50919050565b600061199c82611943565b91507fffffffffffffffffffffffffffffffffffffffffffffffffffffffffffffffff8214156119cf576119ce6119da565b5b600182019050919050565b7f4e487b7100000000000000000000000000000000000000000000000000000000600052601160045260246000fd5b7f4e487b7100000000000000000000000000000000000000000000000000000000600052602160045260246000fd5b7f4e487b7100000000000000000000000000000000000000000000000000000000600052602260045260246000fd5b60028110611a7857611a77611a09565b5b50565b611a8481611906565b8114611a8f57600080fd5b50565b60028110611a9f57600080fd5b50565b611aab81611943565b8114611ab657600080fd5b5056fea2646970667358221220c776afa1f19436bf5a59c58555fbda78d147e76c8f29ed96602c569ff97edb4564736f6c63430008000033",
  "immutableReferences": {},
  "source": "pragma solidity ^0.8.0;\r\n\r\nimport \"./DEXWallet.sol\";\r\nimport \"./DEX.sol\";\r\nimport \"../node_modules/@openzeppelin/contracts/utils/math/SafeMath.sol\";\r\n\r\ncontract DEXGetters {\r\n  using SafeMath for uint256;\r\n\r\n  enum SIDE { BUY, SELL }\r\n  SIDE side;\r\n\r\n  struct Order {\r\n    uint id;\r\n    address trader;\r\n    SIDE side;\r\n    bytes32 ticker;\r\n    uint amount;\r\n    uint price;\r\n}\r\n\r\nuint public orderID = 0;\r\nbool _orderRemoved;\r\n\r\nOrder[] orderbook;\r\n\r\n//Each asset has two orderbooks, one for buying and one for selling;\r\n//bytes32 is ticker symbol, and SIDE is BUY/SELL enum;\r\n  mapping(bytes32 => mapping(SIDE => Order[])) public orderBook;\r\n  string errorMsg = \"Orderbook empty\";\r\n\r\n  //Getter function to retrieve orderbook for ticker/side;\r\n    function getOrderBook(bytes32 _ticker, SIDE _side) public view returns(Order[] memory) {\r\n      require(orderBook[_ticker][_side].length > 0, errorMsg);\r\n      return orderBook[_ticker][_side];\r\n    }\r\n    function getOrderID(bytes32 _ticker, SIDE _side, uint _index) public view returns(uint) {\r\n      Order[] memory _order = orderBook[_ticker][_side];\r\n      return _order[_index].id;\r\n    }\r\n\r\n    function getOrderBookLength(bytes32 _ticker, SIDE _side) public view returns(uint) {\r\n      return orderBook[_ticker][_side].length;\r\n    }\r\n\r\n  //Getter function to retrieve order token amount;\r\n    function getOrderAmount(bytes32 _ticker, SIDE _side, uint _index) public view returns(uint256) {\r\n      require(orderBook[_ticker][_side].length > 0, errorMsg);\r\n      Order[] memory ORDER = orderBook[_ticker][_side];\r\n      return ORDER[_index].amount;\r\n    }\r\n\r\n  //Getter function to retrieve order's ETH price per token;\r\n    function getLimitPrice(bytes32 _ticker, SIDE _side, uint _index) public view returns(uint256) {\r\n      require(orderBook[_ticker][_side].length > 0, errorMsg);\r\n      Order[] memory ORDER = orderBook[_ticker][_side];\r\n      return ORDER[_index].price;\r\n    }\r\n\r\n  //Getter function to retrieve order's total ETH price;\r\n    function getOrderPrice(bytes32 _ticker, SIDE _side, uint _index) public view returns(uint256) {\r\n      require(orderBook[_ticker][_side].length > 0, errorMsg);\r\n      uint limitPrice = getLimitPrice(_ticker, _side, _index);\r\n      uint orderAmount = getOrderAmount(_ticker, _side, _index);\r\n      return limitPrice.mul(orderAmount);\r\n      }\r\n\r\n  //Getter function for calculating total ETH cost of a market order;\r\n    function _marketBuyCost(bytes32 _ticker, uint256 _amount) public view returns (uint orderCost) {\r\n      Order[] memory tempORDER = orderBook[_ticker][SIDE.SELL];\r\n      orderCost = 0;\r\n      if(tempORDER.length == 0) {\r\n        return orderCost;\r\n      }\r\n      else {\r\n        for (uint i = 0; _amount >= 0; i++) {\r\n          //tempORDER[i];\r\n          if (_amount >= tempORDER[i].amount) {\r\n            uint fillPrice = getOrderPrice(_ticker, SIDE.SELL, i);\r\n            orderCost = orderCost.add(fillPrice);\r\n            _amount = _amount.sub(tempORDER[i].amount);\r\n          }\r\n\r\n          if (_amount < tempORDER[i].amount && _amount > 0) {\r\n            uint partialFillPrice = _amount * tempORDER[i].price;\r\n            orderCost = orderCost.add(partialFillPrice);\r\n            break;\r\n          }\r\n          if (_amount == 0) { break; }\r\n        }\r\n        return orderCost;\r\n      }\r\n    }\r\n\r\n  //Getter function that translates order ID to orderbook index;\r\n    function _findOrderIndex(uint _ID, bytes32 _ticker, SIDE _side) internal view returns(uint i) {\r\n      Order[] memory findOrder = orderBook[_ticker][_side];\r\n\r\n      for (i = 0; i < findOrder.length; i++) {\r\n        if (findOrder[i].id == _ID) {\r\n          return i;\r\n        }\r\n      }\r\n    }\r\n\r\n\r\n}\r\n",
  "sourcePath": "C:\\Users\\solus\\documents\\solidity\\dex\\contracts\\DEXGetters.sol",
  "compiler": {
    "name": "solc",
    "version": "0.8.0+commit.c7dfd78e.Emscripten.clang"
  },
  "schemaVersion": "3.4.1",
  "updatedAt": "2021-06-21T19:16:36.168Z",
  "networkType": "ethereum",
  "devdoc": {
    "kind": "dev",
    "methods": {},
    "version": 1
  },
  "userdoc": {
    "kind": "user",
    "methods": {},
    "version": 1
  }
}