{
  "contractName": "DEXInterface",
  "abi": [
    {
      "anonymous": false,
      "inputs": [
        {
          "indexed": true,
          "internalType": "address",
          "name": "previousOwner",
          "type": "address"
        },
        {
          "indexed": true,
          "internalType": "address",
          "name": "newOwner",
          "type": "address"
        }
      ],
      "name": "OwnershipTransferred",
      "type": "event"
    },
    {
      "inputs": [
        {
          "internalType": "bytes32",
          "name": "_ticker",
          "type": "bytes32"
        },
        {
          "internalType": "address",
          "name": "_tokenAddress",
          "type": "address"
        }
      ],
      "name": "addToken",
      "outputs": [],
      "stateMutability": "nonpayable",
      "type": "function"
    },
    {
      "inputs": [
        {
          "internalType": "address",
          "name": "",
          "type": "address"
        },
        {
          "internalType": "bytes32",
          "name": "",
          "type": "bytes32"
        }
      ],
      "name": "balances",
      "outputs": [
        {
          "internalType": "uint256",
          "name": "",
          "type": "uint256"
        }
      ],
      "stateMutability": "view",
      "type": "function"
    },
    {
      "inputs": [
        {
          "internalType": "uint256",
          "name": "_amount",
          "type": "uint256"
        },
        {
          "internalType": "bytes32",
          "name": "_ticker",
          "type": "bytes32"
        }
      ],
      "name": "deposit",
      "outputs": [],
      "stateMutability": "nonpayable",
      "type": "function"
    },
    {
      "inputs": [],
      "name": "depositETH",
      "outputs": [],
      "stateMutability": "payable",
      "type": "function"
    },
    {
      "inputs": [
        {
          "internalType": "bytes32",
          "name": "_ticker",
          "type": "bytes32"
        }
      ],
      "name": "getBalance",
      "outputs": [
        {
          "internalType": "uint256",
          "name": "",
          "type": "uint256"
        }
      ],
      "stateMutability": "view",
      "type": "function"
    },
    {
      "inputs": [
        {
          "internalType": "bytes32",
          "name": "_ticker",
          "type": "bytes32"
        },
        {
          "internalType": "enum DEXGetters.SIDE",
          "name": "_side",
          "type": "uint8"
        }
      ],
      "name": "getOrderBook",
      "outputs": [
        {
          "components": [
            {
              "internalType": "uint256",
              "name": "id",
              "type": "uint256"
            },
            {
              "internalType": "address",
              "name": "trader",
              "type": "address"
            },
            {
              "internalType": "enum DEXGetters.SIDE",
              "name": "side",
              "type": "uint8"
            },
            {
              "internalType": "bytes32",
              "name": "ticker",
              "type": "bytes32"
            },
            {
              "internalType": "uint256",
              "name": "amount",
              "type": "uint256"
            },
            {
              "internalType": "uint256",
              "name": "price",
              "type": "uint256"
            }
          ],
          "internalType": "struct DEXGetters.Order[]",
          "name": "",
          "type": "tuple[]"
        }
      ],
      "stateMutability": "view",
      "type": "function"
    },
    {
      "inputs": [
        {
          "internalType": "bytes32",
          "name": "",
          "type": "bytes32"
        },
        {
          "internalType": "enum DEXGetters.SIDE",
          "name": "",
          "type": "uint8"
        },
        {
          "internalType": "uint256",
          "name": "",
          "type": "uint256"
        }
      ],
      "name": "orderBook",
      "outputs": [
        {
          "internalType": "uint256",
          "name": "id",
          "type": "uint256"
        },
        {
          "internalType": "address",
          "name": "trader",
          "type": "address"
        },
        {
          "internalType": "enum DEXGetters.SIDE",
          "name": "side",
          "type": "uint8"
        },
        {
          "internalType": "bytes32",
          "name": "ticker",
          "type": "bytes32"
        },
        {
          "internalType": "uint256",
          "name": "amount",
          "type": "uint256"
        },
        {
          "internalType": "uint256",
          "name": "price",
          "type": "uint256"
        }
      ],
      "stateMutability": "view",
      "type": "function"
    },
    {
      "inputs": [],
      "name": "orderID",
      "outputs": [
        {
          "internalType": "uint256",
          "name": "",
          "type": "uint256"
        }
      ],
      "stateMutability": "view",
      "type": "function"
    },
    {
      "inputs": [],
      "name": "owner",
      "outputs": [
        {
          "internalType": "address",
          "name": "",
          "type": "address"
        }
      ],
      "stateMutability": "view",
      "type": "function"
    },
    {
      "inputs": [],
      "name": "renounceOwnership",
      "outputs": [],
      "stateMutability": "nonpayable",
      "type": "function"
    },
    {
      "inputs": [
        {
          "internalType": "uint256",
          "name": "",
          "type": "uint256"
        }
      ],
      "name": "tokenList",
      "outputs": [
        {
          "internalType": "bytes32",
          "name": "",
          "type": "bytes32"
        }
      ],
      "stateMutability": "view",
      "type": "function"
    },
    {
      "inputs": [
        {
          "internalType": "bytes32",
          "name": "",
          "type": "bytes32"
        }
      ],
      "name": "tokenMapping",
      "outputs": [
        {
          "internalType": "bytes32",
          "name": "ticker",
          "type": "bytes32"
        },
        {
          "internalType": "address",
          "name": "tokenAddress",
          "type": "address"
        }
      ],
      "stateMutability": "view",
      "type": "function"
    },
    {
      "inputs": [
        {
          "internalType": "address",
          "name": "newOwner",
          "type": "address"
        }
      ],
      "name": "transferOwnership",
      "outputs": [],
      "stateMutability": "nonpayable",
      "type": "function"
    },
    {
      "inputs": [
        {
          "internalType": "uint256",
          "name": "_amount",
          "type": "uint256"
        },
        {
          "internalType": "bytes32",
          "name": "_ticker",
          "type": "bytes32"
        }
      ],
      "name": "withdraw",
      "outputs": [],
      "stateMutability": "nonpayable",
      "type": "function"
    },
    {
      "inputs": [
        {
          "internalType": "enum DEXGetters.SIDE",
          "name": "_side",
          "type": "uint8"
        },
        {
          "internalType": "bytes32",
          "name": "_ticker",
          "type": "bytes32"
        },
        {
          "internalType": "uint256",
          "name": "_amount",
          "type": "uint256"
        },
        {
          "internalType": "uint256",
          "name": "_price",
          "type": "uint256"
        }
      ],
      "name": "createLimitOrder",
      "outputs": [],
      "stateMutability": "nonpayable",
      "type": "function"
    },
    {
      "inputs": [
        {
          "internalType": "bytes32",
          "name": "_ticker",
          "type": "bytes32"
        },
        {
          "internalType": "enum DEXGetters.SIDE",
          "name": "_side",
          "type": "uint8"
        },
        {
          "internalType": "uint256",
          "name": "_amount",
          "type": "uint256"
        }
      ],
      "name": "CreateMarketOrder",
      "outputs": [],
      "stateMutability": "nonpayable",
      "type": "function"
    },
    {
      "inputs": [
        {
          "internalType": "bytes32",
          "name": "_ticker",
          "type": "bytes32"
        },
        {
          "internalType": "enum DEXGetters.SIDE",
          "name": "_side",
          "type": "uint8"
        },
        {
          "internalType": "uint256",
          "name": "_ID",
          "type": "uint256"
        }
      ],
      "name": "RemoveOrder",
      "outputs": [],
      "stateMutability": "nonpayable",
      "type": "function"
    }
  ],
  "bytecode": "0x6080604052604051602001620000159062000141565b6040516020818303038152906040528051906020012060035560006005553480156200004057600080fd5b50600062000053620000f760201b60201c565b9050806000806101000a81548173ffffffffffffffffffffffffffffffffffffffff021916908373ffffffffffffffffffffffffffffffffffffffff1602179055508073ffffffffffffffffffffffffffffffffffffffff16600073ffffffffffffffffffffffffffffffffffffffff167f8be0079c531659141344cd1fd0a4f28419497f9722a3daafe3b4186f6b6457e060405160405180910390a35062000163565b600033905090565b60006200010e60038362000158565b91507f45544800000000000000000000000000000000000000000000000000000000006000830152600382019050919050565b60006200014e82620000ff565b9150819050919050565b600081905092915050565b61624f80620001736000396000f3fe6080604052600436106100fe5760003560e01c80638da5cb5b11610095578063a8d2021a11610064578063a8d2021a1461034b578063ba58ea6814610374578063c9630cb0146103b1578063f2fde38b146103da578063f6326fb314610403576100fe565b80638da5cb5b1461027d5780638e739461146102a85780639776aacf146102e55780639ead72221461030e576100fe565b80636f3b62f9116100d15780636f3b62f9146101d0578063715018a6146101f957806381203d03146102105780638c29bec01461023b576100fe565b80631f14df69146101035780632cbd88c21461014057806342a0ca9014610169578063667cb4ba14610192575b600080fd5b34801561010f57600080fd5b5061012a600480360381019061012591906156ba565b61040d565b6040516101379190615ea7565b60405180910390f35b34801561014c57600080fd5b50610167600480360381019061016291906157c0565b610432565b005b34801561017557600080fd5b50610190600480360381019061018b91906157c0565b61066f565b005b34801561019e57600080fd5b506101b960048036038101906101b4919061571f565b610935565b6040516101c7929190615d5e565b60405180910390f35b3480156101dc57600080fd5b506101f760048036038101906101f2919061580f565b610979565b005b34801561020557600080fd5b5061020e610dda565b005b34801561021c57600080fd5b50610225610f14565b6040516102329190615ea7565b60405180910390f35b34801561024757600080fd5b50610262600480360381019061025d91906157c0565b610f1a565b60405161027496959493929190615ec2565b60405180910390f35b34801561028957600080fd5b50610292610fad565b60405161029f9190615ca6565b60405180910390f35b3480156102b457600080fd5b506102cf60048036038101906102ca919061571f565b610fd6565b6040516102dc9190615ea7565b60405180910390f35b3480156102f157600080fd5b5061030c60048036038101906103079190615748565b611030565b005b34801561031a57600080fd5b5061033560048036038101906103309190615872565b61116b565b6040516103429190615d43565b60405180910390f35b34801561035757600080fd5b50610372600480360381019061036d919061589b565b61118f565b005b34801561038057600080fd5b5061039b60048036038101906103969190615784565b6114af565b6040516103a89190615d21565b60405180910390f35b3480156103bd57600080fd5b506103d860048036038101906103d3919061589b565b6116a8565b005b3480156103e657600080fd5b5061040160048036038101906103fc9190615691565b6118db565b005b61040b611a84565b005b6004602052816000526040600020602052806000526040600020600091509150505481565b60018081111561046b577f4e487b7100000000000000000000000000000000000000000000000000000000600052602160045260246000fd5b8260018111156104a4577f4e487b7100000000000000000000000000000000000000000000000000000000600052602160045260246000fd5b14156105485780600460003373ffffffffffffffffffffffffffffffffffffffff1673ffffffffffffffffffffffffffffffffffffffff168152602001908152602001600020600085815260200190815260200160002054101561053d576040517f08c379a000000000000000000000000000000000000000000000000000000000815260040161053490615e67565b60405180910390fd5b6105478382611b8b565b5b60006001811115610582577f4e487b7100000000000000000000000000000000000000000000000000000000600052602160045260246000fd5b8260018111156105bb577f4e487b7100000000000000000000000000000000000000000000000000000000600052602160045260246000fd5b141561066a576105cb8382612276565b600460003373ffffffffffffffffffffffffffffffffffffffff1673ffffffffffffffffffffffffffffffffffffffff1681526020019081526020016000206000600354815260200190815260200160002054101561065f576040517f08c379a000000000000000000000000000000000000000000000000000000000815260040161065690615d87565b60405180910390fd5b61066983826126f3565b5b505050565b60006007600085815260200190815260200160002060008460018111156106bf577f4e487b7100000000000000000000000000000000000000000000000000000000600052602160045260246000fd5b60018111156106f7577f4e487b7100000000000000000000000000000000000000000000000000000000600052602160045260246000fd5b8152602001908152602001600020805480602002602001604051908101604052809291908181526020016000905b8282101561085c57838290600052602060002090600502016040518060c0016040529081600082015481526020016001820160009054906101000a900473ffffffffffffffffffffffffffffffffffffffff1673ffffffffffffffffffffffffffffffffffffffff1673ffffffffffffffffffffffffffffffffffffffff1681526020016001820160149054906101000a900460ff1660018111156107f3577f4e487b7100000000000000000000000000000000000000000000000000000000600052602160045260246000fd5b600181111561082b577f4e487b7100000000000000000000000000000000000000000000000000000000600052602160045260246000fd5b8152602001600282015481526020016003820154815260200160048201548152505081526020019060010190610725565b505050509050600061086f838686612dcf565b90503373ffffffffffffffffffffffffffffffffffffffff168282815181106108c1577f4e487b7100000000000000000000000000000000000000000000000000000000600052603260045260246000fd5b60200260200101516020015173ffffffffffffffffffffffffffffffffffffffff1614610923576040517f08c379a000000000000000000000000000000000000000000000000000000000815260040161091a90615e07565b60405180910390fd5b61092e858583613042565b5050505050565b60016020528060005260406000206000915090508060000154908060010160009054906101000a900473ffffffffffffffffffffffffffffffffffffffff16905082565b6001808111156109b2577f4e487b7100000000000000000000000000000000000000000000000000000000600052602160045260246000fd5b8460018111156109eb577f4e487b7100000000000000000000000000000000000000000000000000000000600052602160045260246000fd5b1415610a895781600460003373ffffffffffffffffffffffffffffffffffffffff1673ffffffffffffffffffffffffffffffffffffffff1681526020019081526020016000206000858152602001908152602001600020541015610a84576040517f08c379a0000000000000000000000000000000000000000000000000000000008152600401610a7b90615e87565b60405180910390fd5b610bab565b60006001811115610ac3577f4e487b7100000000000000000000000000000000000000000000000000000000600052602160045260246000fd5b846001811115610afc577f4e487b7100000000000000000000000000000000000000000000000000000000600052602160045260246000fd5b1415610baa57610b15818361341190919063ffffffff16565b600460003373ffffffffffffffffffffffffffffffffffffffff1673ffffffffffffffffffffffffffffffffffffffff16815260200190815260200160002060006003548152602001908152602001600020541015610ba9576040517f08c379a0000000000000000000000000000000000000000000000000000000008152600401610ba090615d87565b60405180910390fd5b5b5b60006040518060c0016040528060055481526020013373ffffffffffffffffffffffffffffffffffffffff168152602001866001811115610c15577f4e487b7100000000000000000000000000000000000000000000000000000000600052602160045260246000fd5b8152602001858152602001848152602001838152509050600760008581526020019081526020016000206000866001811115610c7a577f4e487b7100000000000000000000000000000000000000000000000000000000600052602160045260246000fd5b6001811115610cb2577f4e487b7100000000000000000000000000000000000000000000000000000000600052602160045260246000fd5b81526020019081526020016000208190806001815401808255809150506001900390600052602060002090600502016000909190919091506000820151816000015560208201518160010160006101000a81548173ffffffffffffffffffffffffffffffffffffffff021916908373ffffffffffffffffffffffffffffffffffffffff16021790555060408201518160010160146101000a81548160ff02191690836001811115610d8c577f4e487b7100000000000000000000000000000000000000000000000000000000600052602160045260246000fd5b0217905550606082015181600201556080820151816003015560a08201518160040155505060056000815480929190610dc4906160f2565b9190505550610dd38585613427565b5050505050565b610de26142b1565b73ffffffffffffffffffffffffffffffffffffffff16610e00610fad565b73ffffffffffffffffffffffffffffffffffffffff1614610e56576040517f08c379a0000000000000000000000000000000000000000000000000000000008152600401610e4d90615e27565b60405180910390fd5b600073ffffffffffffffffffffffffffffffffffffffff1660008054906101000a900473ffffffffffffffffffffffffffffffffffffffff1673ffffffffffffffffffffffffffffffffffffffff167f8be0079c531659141344cd1fd0a4f28419497f9722a3daafe3b4186f6b6457e060405160405180910390a360008060006101000a81548173ffffffffffffffffffffffffffffffffffffffff021916908373ffffffffffffffffffffffffffffffffffffffff160217905550565b60055481565b60076020528260005260406000206020528160005260406000208181548110610f4257600080fd5b906000526020600020906005020160009250925050508060000154908060010160009054906101000a900473ffffffffffffffffffffffffffffffffffffffff16908060010160149054906101000a900460ff16908060020154908060030154908060040154905086565b60008060009054906101000a900473ffffffffffffffffffffffffffffffffffffffff16905090565b6000600460003373ffffffffffffffffffffffffffffffffffffffff1673ffffffffffffffffffffffffffffffffffffffff1681526020019081526020016000206000838152602001908152602001600020549050919050565b6110386142b1565b73ffffffffffffffffffffffffffffffffffffffff16611056610fad565b73ffffffffffffffffffffffffffffffffffffffff16146110ac576040517f08c379a00000000000000000000000000000000000000000000000000000000081526004016110a390615e27565b60405180910390fd5b60405180604001604052808381526020018273ffffffffffffffffffffffffffffffffffffffff16815250600160008481526020019081526020016000206000820151816000015560208201518160010160006101000a81548173ffffffffffffffffffffffffffffffffffffffff021916908373ffffffffffffffffffffffffffffffffffffffff16021790555090505060028290806001815401808255809150506001900390600052602060002001600090919091909150555050565b6002818154811061117b57600080fd5b906000526020600020016000915090505481565b80600354811461124057600073ffffffffffffffffffffffffffffffffffffffff166001600083815260200190815260200160002060010160009054906101000a900473ffffffffffffffffffffffffffffffffffffffff1673ffffffffffffffffffffffffffffffffffffffff16141561123f576040517f08c379a000000000000000000000000000000000000000000000000000000000815260040161123690615de7565b60405180910390fd5b5b82600460003373ffffffffffffffffffffffffffffffffffffffff1673ffffffffffffffffffffffffffffffffffffffff16815260200190815260200160002060008481526020019081526020016000205410156112d3576040517f08c379a00000000000000000000000000000000000000000000000000000000081526004016112ca90615dc7565b60405180910390fd5b61133683600460003373ffffffffffffffffffffffffffffffffffffffff1673ffffffffffffffffffffffffffffffffffffffff1681526020019081526020016000206000858152602001908152602001600020546142b990919063ffffffff16565b600460003373ffffffffffffffffffffffffffffffffffffffff1673ffffffffffffffffffffffffffffffffffffffff1681526020019081526020016000206000848152602001908152602001600020819055506003548214611458576001600083815260200190815260200160002060010160009054906101000a900473ffffffffffffffffffffffffffffffffffffffff1673ffffffffffffffffffffffffffffffffffffffff1663a9059cbb33856040518363ffffffff1660e01b8152600401611404929190615cf8565b602060405180830381600087803b15801561141e57600080fd5b505af1158015611432573d6000803e3d6000fd5b505050506040513d601f19601f8201168201806040525081019061145691906156f6565b505b6003548214156114aa573373ffffffffffffffffffffffffffffffffffffffff166108fc849081150290604051600060405180830381858888f193505050501580156114a8573d6000803e3d6000fd5b505b505050565b60606007600084815260200190815260200160002060008360018111156114ff577f4e487b7100000000000000000000000000000000000000000000000000000000600052602160045260246000fd5b6001811115611537577f4e487b7100000000000000000000000000000000000000000000000000000000600052602160045260246000fd5b8152602001908152602001600020805480602002602001604051908101604052809291908181526020016000905b8282101561169c57838290600052602060002090600502016040518060c0016040529081600082015481526020016001820160009054906101000a900473ffffffffffffffffffffffffffffffffffffffff1673ffffffffffffffffffffffffffffffffffffffff1673ffffffffffffffffffffffffffffffffffffffff1681526020016001820160149054906101000a900460ff166001811115611633577f4e487b7100000000000000000000000000000000000000000000000000000000600052602160045260246000fd5b600181111561166b577f4e487b7100000000000000000000000000000000000000000000000000000000600052602160045260246000fd5b8152602001600282015481526020016003820154815260200160048201548152505081526020019060010190611565565b50505050905092915050565b80600354811461175957600073ffffffffffffffffffffffffffffffffffffffff166001600083815260200190815260200160002060010160009054906101000a900473ffffffffffffffffffffffffffffffffffffffff1673ffffffffffffffffffffffffffffffffffffffff161415611758576040517f08c379a000000000000000000000000000000000000000000000000000000000815260040161174f90615de7565b60405180910390fd5b5b6117bc83600460003373ffffffffffffffffffffffffffffffffffffffff1673ffffffffffffffffffffffffffffffffffffffff1681526020019081526020016000206000858152602001908152602001600020546142cf90919063ffffffff16565b600460003373ffffffffffffffffffffffffffffffffffffffff1673ffffffffffffffffffffffffffffffffffffffff1681526020019081526020016000206000848152602001908152602001600020819055506001600083815260200190815260200160002060010160009054906101000a900473ffffffffffffffffffffffffffffffffffffffff1673ffffffffffffffffffffffffffffffffffffffff166323b872dd3330866040518463ffffffff1660e01b815260040161188393929190615cc1565b602060405180830381600087803b15801561189d57600080fd5b505af11580156118b1573d6000803e3d6000fd5b505050506040513d601f19601f820116820180604052508101906118d591906156f6565b50505050565b6118e36142b1565b73ffffffffffffffffffffffffffffffffffffffff16611901610fad565b73ffffffffffffffffffffffffffffffffffffffff1614611957576040517f08c379a000000000000000000000000000000000000000000000000000000000815260040161194e90615e27565b60405180910390fd5b600073ffffffffffffffffffffffffffffffffffffffff168173ffffffffffffffffffffffffffffffffffffffff1614156119c7576040517f08c379a00000000000000000000000000000000000000000000000000000000081526004016119be90615da7565b60405180910390fd5b8073ffffffffffffffffffffffffffffffffffffffff1660008054906101000a900473ffffffffffffffffffffffffffffffffffffffff1673ffffffffffffffffffffffffffffffffffffffff167f8be0079c531659141344cd1fd0a4f28419497f9722a3daafe3b4186f6b6457e060405160405180910390a3806000806101000a81548173ffffffffffffffffffffffffffffffffffffffff021916908373ffffffffffffffffffffffffffffffffffffffff16021790555050565b6000341015611ac8576040517f08c379a0000000000000000000000000000000000000000000000000000000008152600401611abf90615e47565b60405180910390fd5b6000349050611b3281600460003373ffffffffffffffffffffffffffffffffffffffff1673ffffffffffffffffffffffffffffffffffffffff16815260200190815260200160002060006003548152602001908152602001600020546142cf90919063ffffffff16565b600460003373ffffffffffffffffffffffffffffffffffffffff1673ffffffffffffffffffffffffffffffffffffffff168152602001908152602001600020600060035481526020019081526020016000208190555050565b600081905060005b6000821115612270576000600760008681526020019081526020016000206000806001811115611bec577f4e487b7100000000000000000000000000000000000000000000000000000000600052602160045260246000fd5b6001811115611c24577f4e487b7100000000000000000000000000000000000000000000000000000000600052602160045260246000fd5b81526020019081526020016000209050808281548110611c6d577f4e487b7100000000000000000000000000000000000000000000000000000000600052603260045260246000fd5b9060005260206000209050506000818381548110611cb4577f4e487b7100000000000000000000000000000000000000000000000000000000600052603260045260246000fd5b906000526020600020906005020160010160009054906101000a900473ffffffffffffffffffffffffffffffffffffffff169050818381548110611d21577f4e487b7100000000000000000000000000000000000000000000000000000000600052603260045260246000fd5b9060005260206000209060050201600301548410611f6a57611d45866000856142e5565b600460003373ffffffffffffffffffffffffffffffffffffffff1673ffffffffffffffffffffffffffffffffffffffff168152602001908152602001600020600060035481526020019081526020016000206000828254611da69190615f6d565b92505081905550611db986600085614322565b600460003373ffffffffffffffffffffffffffffffffffffffff1673ffffffffffffffffffffffffffffffffffffffff16815260200190815260200160002060008881526020019081526020016000206000828254611e18919061601d565b92505081905550611e2b866000856142e5565b600460008373ffffffffffffffffffffffffffffffffffffffff1673ffffffffffffffffffffffffffffffffffffffff168152602001908152602001600020600060035481526020019081526020016000206000828254611e8c919061601d565b92505081905550611e9f86600085614322565b600460008373ffffffffffffffffffffffffffffffffffffffff1673ffffffffffffffffffffffffffffffffffffffff16815260200190815260200160002060008881526020019081526020016000206000828254611efe9190615f6d565b92505081905550818381548110611f3e577f4e487b7100000000000000000000000000000000000000000000000000000000600052603260045260246000fd5b90600052602060002090600502016003015484611f5b919061601d565b9350611f6986600085613042565b5b818381548110611fa3577f4e487b7100000000000000000000000000000000000000000000000000000000600052603260045260246000fd5b90600052602060002090600502016003015484108015611fc4575060008414155b1561225b5783828481548110612003577f4e487b7100000000000000000000000000000000000000000000000000000000600052603260045260246000fd5b90600052602060002090600502016003016000828254612023919061601d565b925050819055506000828481548110612065577f4e487b7100000000000000000000000000000000000000000000000000000000600052603260045260246000fd5b906000526020600020906005020160030154905061209761208888600087614565565b8261341190919063ffffffff16565b600460003373ffffffffffffffffffffffffffffffffffffffff1673ffffffffffffffffffffffffffffffffffffffff1681526020019081526020016000206000600354815260200190815260200160002060008282546120f89190615f6d565b9250508190555080600460003373ffffffffffffffffffffffffffffffffffffffff1673ffffffffffffffffffffffffffffffffffffffff1681526020019081526020016000206000898152602001908152602001600020600082825461215f919061601d565b9250508190555061218461217588600087614565565b8261341190919063ffffffff16565b600460008473ffffffffffffffffffffffffffffffffffffffff1673ffffffffffffffffffffffffffffffffffffffff1681526020019081526020016000206000600354815260200190815260200160002060008282546121e5919061601d565b9250508190555080600460008473ffffffffffffffffffffffffffffffffffffffff1673ffffffffffffffffffffffffffffffffffffffff1681526020019081526020016000206000898152602001908152602001600020600082825461224c9190615f6d565b92505081905550505050612270565b50508080612268906160f2565b915050611b93565b50505050565b6000808290506000915060005b60008211156126eb5760006007600087815260200190815260200160002060006001808111156122dc577f4e487b7100000000000000000000000000000000000000000000000000000000600052602160045260246000fd5b6001811115612314577f4e487b7100000000000000000000000000000000000000000000000000000000600052602160045260246000fd5b8152602001908152602001600020805480602002602001604051908101604052809291908181526020016000905b8282101561247957838290600052602060002090600502016040518060c0016040529081600082015481526020016001820160009054906101000a900473ffffffffffffffffffffffffffffffffffffffff1673ffffffffffffffffffffffffffffffffffffffff1673ffffffffffffffffffffffffffffffffffffffff1681526020016001820160149054906101000a900460ff166001811115612410577f4e487b7100000000000000000000000000000000000000000000000000000000600052602160045260246000fd5b6001811115612448577f4e487b7100000000000000000000000000000000000000000000000000000000600052602160045260246000fd5b8152602001600282015481526020016003820154815260200160048201548152505081526020019060010190612342565b5050505090508082815181106124b8577f4e487b7100000000000000000000000000000000000000000000000000000000600052603260045260246000fd5b6020026020010151508082815181106124fa577f4e487b7100000000000000000000000000000000000000000000000000000000600052603260045260246000fd5b602002602001015160800151831061257e57600061251a876001856142e5565b905080856125289190615f6d565b9450818381518110612563577f4e487b7100000000000000000000000000000000000000000000000000000000600052603260045260246000fd5b6020026020010151608001518461257a919061601d565b9350505b8082815181106125b7577f4e487b7100000000000000000000000000000000000000000000000000000000600052603260045260246000fd5b602002602001015160800151831080156125d2575060008314155b156126d75782818381518110612611577f4e487b7100000000000000000000000000000000000000000000000000000000600052603260045260246000fd5b6020026020010151608001818151612629919061601d565b91508181525050808281518110612669577f4e487b7100000000000000000000000000000000000000000000000000000000600052603260045260246000fd5b602002602001015160a001518183815181106126ae577f4e487b7100000000000000000000000000000000000000000000000000000000600052603260045260246000fd5b6020026020010151608001516126c49190615fc3565b846126cf9190615f6d565b9350506126eb565b5080806126e3906160f2565b915050612283565b505092915050565b600081905060005b6000821115612dc9576000600760008681526020019081526020016000206000600180811115612754577f4e487b7100000000000000000000000000000000000000000000000000000000600052602160045260246000fd5b600181111561278c577f4e487b7100000000000000000000000000000000000000000000000000000000600052602160045260246000fd5b815260200190815260200160002090508082815481106127d5577f4e487b7100000000000000000000000000000000000000000000000000000000600052603260045260246000fd5b906000526020600020905050600081838154811061281c577f4e487b7100000000000000000000000000000000000000000000000000000000600052603260045260246000fd5b906000526020600020906005020160010160009054906101000a900473ffffffffffffffffffffffffffffffffffffffff169050818381548110612889577f4e487b7100000000000000000000000000000000000000000000000000000000600052603260045260246000fd5b9060005260206000209060050201600301548410612ac85760006128af876001866142e5565b905060006128bf88600187614322565b905081600460008573ffffffffffffffffffffffffffffffffffffffff1673ffffffffffffffffffffffffffffffffffffffff1681526020019081526020016000206000600354815260200190815260200160002060008282546129239190615f6d565b9250508190555080600460008573ffffffffffffffffffffffffffffffffffffffff1673ffffffffffffffffffffffffffffffffffffffff16815260200190815260200160002060008a8152602001908152602001600020600082825461298a919061601d565b9250508190555081600460003373ffffffffffffffffffffffffffffffffffffffff1673ffffffffffffffffffffffffffffffffffffffff1681526020019081526020016000206000600354815260200190815260200160002060008282546129f3919061601d565b9250508190555080600460003373ffffffffffffffffffffffffffffffffffffffff1673ffffffffffffffffffffffffffffffffffffffff16815260200190815260200160002060008a81526020019081526020016000206000828254612a5a9190615f6d565b92505081905550838581548110612a9a577f4e487b7100000000000000000000000000000000000000000000000000000000600052603260045260246000fd5b90600052602060002090600502016003015486612ab7919061601d565b9550612ac588600187613042565b50505b818381548110612b01577f4e487b7100000000000000000000000000000000000000000000000000000000600052603260045260246000fd5b90600052602060002090600502016003015484108015612b22575060008414155b15612db45783828481548110612b61577f4e487b7100000000000000000000000000000000000000000000000000000000600052603260045260246000fd5b90600052602060002090600502016003016000828254612b81919061601d565b925050819055506000828481548110612bc3577f4e487b7100000000000000000000000000000000000000000000000000000000600052603260045260246000fd5b90600052602060002090600502016003015490506000612be588600187614565565b9050612bfa818361341190919063ffffffff16565b600460008573ffffffffffffffffffffffffffffffffffffffff1673ffffffffffffffffffffffffffffffffffffffff168152602001908152602001600020600060035481526020019081526020016000206000828254612c5b9190615f6d565b9250508190555081600460008573ffffffffffffffffffffffffffffffffffffffff1673ffffffffffffffffffffffffffffffffffffffff16815260200190815260200160002060008a81526020019081526020016000206000828254612cc2919061601d565b92505081905550612cdc818361341190919063ffffffff16565b600460003373ffffffffffffffffffffffffffffffffffffffff1673ffffffffffffffffffffffffffffffffffffffff168152602001908152602001600020600060035481526020019081526020016000206000828254612d3d919061601d565b9250508190555081600460003373ffffffffffffffffffffffffffffffffffffffff1673ffffffffffffffffffffffffffffffffffffffff16815260200190815260200160002060008a81526020019081526020016000206000828254612da49190615f6d565b9250508190555050505050612dc9565b50508080612dc1906160f2565b9150506126fb565b50505050565b600080600760008581526020019081526020016000206000846001811115612e20577f4e487b7100000000000000000000000000000000000000000000000000000000600052602160045260246000fd5b6001811115612e58577f4e487b7100000000000000000000000000000000000000000000000000000000600052602160045260246000fd5b8152602001908152602001600020805480602002602001604051908101604052809291908181526020016000905b82821015612fbd57838290600052602060002090600502016040518060c0016040529081600082015481526020016001820160009054906101000a900473ffffffffffffffffffffffffffffffffffffffff1673ffffffffffffffffffffffffffffffffffffffff1673ffffffffffffffffffffffffffffffffffffffff1681526020016001820160149054906101000a900460ff166001811115612f54577f4e487b7100000000000000000000000000000000000000000000000000000000600052602160045260246000fd5b6001811115612f8c577f4e487b7100000000000000000000000000000000000000000000000000000000600052602160045260246000fd5b8152602001600282015481526020016003820154815260200160048201548152505081526020019060010190612e86565b50505050905060005b81518110156130385785828281518110613009577f4e487b7100000000000000000000000000000000000000000000000000000000600052603260045260246000fd5b602002602001015160000151141561302557809250505061303b565b8080613030906160f2565b915050612fc6565b50505b9392505050565b6000600760008581526020019081526020016000206000846001811115613092577f4e487b7100000000000000000000000000000000000000000000000000000000600052602160045260246000fd5b60018111156130ca577f4e487b7100000000000000000000000000000000000000000000000000000000600052602160045260246000fd5b81526020019081526020016000209050600081600183805490506130ee919061601d565b81548110613125577f4e487b7100000000000000000000000000000000000000000000000000000000600052603260045260246000fd5b90600052602060002090600502016040518060c0016040529081600082015481526020016001820160009054906101000a900473ffffffffffffffffffffffffffffffffffffffff1673ffffffffffffffffffffffffffffffffffffffff1673ffffffffffffffffffffffffffffffffffffffff1681526020016001820160149054906101000a900460ff1660018111156131e9577f4e487b7100000000000000000000000000000000000000000000000000000000600052602160045260246000fd5b6001811115613221577f4e487b7100000000000000000000000000000000000000000000000000000000600052602160045260246000fd5b8152602001600282015481526020016003820154815260200160048201548152505090508082848154811061327f577f4e487b7100000000000000000000000000000000000000000000000000000000600052603260045260246000fd5b90600052602060002090600502016000820151816000015560208201518160010160006101000a81548173ffffffffffffffffffffffffffffffffffffffff021916908373ffffffffffffffffffffffffffffffffffffffff16021790555060408201518160010160146101000a81548160ff0219169083600181111561332f577f4e487b7100000000000000000000000000000000000000000000000000000000600052602160045260246000fd5b0217905550606082015181600201556080820151816003015560a082015181600401559050508180548061338c577f4e487b7100000000000000000000000000000000000000000000000000000000600052603160045260246000fd5b60019003818190600052602060002090600502016000808201600090556001820160006101000a81549073ffffffffffffffffffffffffffffffffffffffff02191690556001820160146101000a81549060ff02191690556002820160009055600382016000905560048201600090555050905561340a84866147a8565b5050505050565b6000818361341f9190615fc3565b905092915050565b6000600760008381526020019081526020016000206000846001811115613477577f4e487b7100000000000000000000000000000000000000000000000000000000600052602160045260246000fd5b60018111156134af577f4e487b7100000000000000000000000000000000000000000000000000000000600052602160045260246000fd5b81526020019081526020016000209050600060018111156134f9577f4e487b7100000000000000000000000000000000000000000000000000000000600052602160045260246000fd5b836001811115613532577f4e487b7100000000000000000000000000000000000000000000000000000000600052602160045260246000fd5b1415613bb65760006001828054905061354b919061601d565b90505b60018110613bb45781600182613564919061601d565b8154811061359b577f4e487b7100000000000000000000000000000000000000000000000000000000600052603260045260246000fd5b9060005260206000209060050201600401548282815481106135e6577f4e487b7100000000000000000000000000000000000000000000000000000000600052603260045260246000fd5b9060005260206000209060050201600401541115613af3576000828281548110613639577f4e487b7100000000000000000000000000000000000000000000000000000000600052603260045260246000fd5b90600052602060002090600502016040518060c0016040529081600082015481526020016001820160009054906101000a900473ffffffffffffffffffffffffffffffffffffffff1673ffffffffffffffffffffffffffffffffffffffff1673ffffffffffffffffffffffffffffffffffffffff1681526020016001820160149054906101000a900460ff1660018111156136fd577f4e487b7100000000000000000000000000000000000000000000000000000000600052602160045260246000fd5b6001811115613735577f4e487b7100000000000000000000000000000000000000000000000000000000600052602160045260246000fd5b815260200160028201548152602001600382015481526020016004820154815250509050600083600184613769919061601d565b815481106137a0577f4e487b7100000000000000000000000000000000000000000000000000000000600052603260045260246000fd5b90600052602060002090600502016040518060c0016040529081600082015481526020016001820160009054906101000a900473ffffffffffffffffffffffffffffffffffffffff1673ffffffffffffffffffffffffffffffffffffffff1673ffffffffffffffffffffffffffffffffffffffff1681526020016001820160149054906101000a900460ff166001811115613864577f4e487b7100000000000000000000000000000000000000000000000000000000600052602160045260246000fd5b600181111561389c577f4e487b7100000000000000000000000000000000000000000000000000000000600052602160045260246000fd5b81526020016002820154815260200160038201548152602001600482015481525050905081846001856138cf919061601d565b81548110613906577f4e487b7100000000000000000000000000000000000000000000000000000000600052603260045260246000fd5b90600052602060002090600502016000820151816000015560208201518160010160006101000a81548173ffffffffffffffffffffffffffffffffffffffff021916908373ffffffffffffffffffffffffffffffffffffffff16021790555060408201518160010160146101000a81548160ff021916908360018111156139b6577f4e487b7100000000000000000000000000000000000000000000000000000000600052602160045260246000fd5b0217905550606082015181600201556080820151816003015560a0820151816004015590505080848481548110613a16577f4e487b7100000000000000000000000000000000000000000000000000000000600052603260045260246000fd5b90600052602060002090600502016000820151816000015560208201518160010160006101000a81548173ffffffffffffffffffffffffffffffffffffffff021916908373ffffffffffffffffffffffffffffffffffffffff16021790555060408201518160010160146101000a81548160ff02191690836001811115613ac6577f4e487b7100000000000000000000000000000000000000000000000000000000600052602160045260246000fd5b0217905550606082015181600201556080820151816003015560a082015181600401559050505050613ba1565b81600182613b01919061601d565b81548110613b38577f4e487b7100000000000000000000000000000000000000000000000000000000600052603260045260246000fd5b906000526020600020906005020160040154828281548110613b83577f4e487b7100000000000000000000000000000000000000000000000000000000600052603260045260246000fd5b9060005260206000209060050201600401541015613ba057613bb4565b5b8080613bac906160c8565b91505061354e565b505b600180811115613bef577f4e487b7100000000000000000000000000000000000000000000000000000000600052602160045260246000fd5b836001811115613c28577f4e487b7100000000000000000000000000000000000000000000000000000000600052602160045260246000fd5b14156142ac57600060018280549050613c41919061601d565b90505b600181106142aa5781600182613c5a919061601d565b81548110613c91577f4e487b7100000000000000000000000000000000000000000000000000000000600052603260045260246000fd5b906000526020600020906005020160040154828281548110613cdc577f4e487b7100000000000000000000000000000000000000000000000000000000600052603260045260246000fd5b90600052602060002090600502016004015410156141e9576000828281548110613d2f577f4e487b7100000000000000000000000000000000000000000000000000000000600052603260045260246000fd5b90600052602060002090600502016040518060c0016040529081600082015481526020016001820160009054906101000a900473ffffffffffffffffffffffffffffffffffffffff1673ffffffffffffffffffffffffffffffffffffffff1673ffffffffffffffffffffffffffffffffffffffff1681526020016001820160149054906101000a900460ff166001811115613df3577f4e487b7100000000000000000000000000000000000000000000000000000000600052602160045260246000fd5b6001811115613e2b577f4e487b7100000000000000000000000000000000000000000000000000000000600052602160045260246000fd5b815260200160028201548152602001600382015481526020016004820154815250509050600083600184613e5f919061601d565b81548110613e96577f4e487b7100000000000000000000000000000000000000000000000000000000600052603260045260246000fd5b90600052602060002090600502016040518060c0016040529081600082015481526020016001820160009054906101000a900473ffffffffffffffffffffffffffffffffffffffff1673ffffffffffffffffffffffffffffffffffffffff1673ffffffffffffffffffffffffffffffffffffffff1681526020016001820160149054906101000a900460ff166001811115613f5a577f4e487b7100000000000000000000000000000000000000000000000000000000600052602160045260246000fd5b6001811115613f92577f4e487b7100000000000000000000000000000000000000000000000000000000600052602160045260246000fd5b8152602001600282015481526020016003820154815260200160048201548152505090508184600185613fc5919061601d565b81548110613ffc577f4e487b7100000000000000000000000000000000000000000000000000000000600052603260045260246000fd5b90600052602060002090600502016000820151816000015560208201518160010160006101000a81548173ffffffffffffffffffffffffffffffffffffffff021916908373ffffffffffffffffffffffffffffffffffffffff16021790555060408201518160010160146101000a81548160ff021916908360018111156140ac577f4e487b7100000000000000000000000000000000000000000000000000000000600052602160045260246000fd5b0217905550606082015181600201556080820151816003015560a082015181600401559050508084848154811061410c577f4e487b7100000000000000000000000000000000000000000000000000000000600052603260045260246000fd5b90600052602060002090600502016000820151816000015560208201518160010160006101000a81548173ffffffffffffffffffffffffffffffffffffffff021916908373ffffffffffffffffffffffffffffffffffffffff16021790555060408201518160010160146101000a81548160ff021916908360018111156141bc577f4e487b7100000000000000000000000000000000000000000000000000000000600052602160045260246000fd5b0217905550606082015181600201556080820151816003015560a082015181600401559050505050614297565b816001826141f7919061601d565b8154811061422e577f4e487b7100000000000000000000000000000000000000000000000000000000600052603260045260246000fd5b906000526020600020906005020160040154828281548110614279577f4e487b7100000000000000000000000000000000000000000000000000000000600052603260045260246000fd5b9060005260206000209060050201600401541015614296576142aa565b5b80806142a2906160c8565b915050613c44565b505b505050565b600033905090565b600081836142c7919061601d565b905092915050565b600081836142dd9190615f6d565b905092915050565b6000806142f3858585614565565b90506000614302868686614322565b9050614317818361341190919063ffffffff16565b925050509392505050565b600080600760008681526020019081526020016000206000856001811115614373577f4e487b7100000000000000000000000000000000000000000000000000000000600052602160045260246000fd5b60018111156143ab577f4e487b7100000000000000000000000000000000000000000000000000000000600052602160045260246000fd5b8152602001908152602001600020805480602002602001604051908101604052809291908181526020016000905b8282101561451057838290600052602060002090600502016040518060c0016040529081600082015481526020016001820160009054906101000a900473ffffffffffffffffffffffffffffffffffffffff1673ffffffffffffffffffffffffffffffffffffffff1673ffffffffffffffffffffffffffffffffffffffff1681526020016001820160149054906101000a900460ff1660018111156144a7577f4e487b7100000000000000000000000000000000000000000000000000000000600052602160045260246000fd5b60018111156144df577f4e487b7100000000000000000000000000000000000000000000000000000000600052602160045260246000fd5b81526020016002820154815260200160038201548152602001600482015481525050815260200190600101906143d9565b50505050905080838151811061454f577f4e487b7100000000000000000000000000000000000000000000000000000000600052603260045260246000fd5b6020026020010151608001519150509392505050565b6000806007600086815260200190815260200160002060008560018111156145b6577f4e487b7100000000000000000000000000000000000000000000000000000000600052602160045260246000fd5b60018111156145ee577f4e487b7100000000000000000000000000000000000000000000000000000000600052602160045260246000fd5b8152602001908152602001600020805480602002602001604051908101604052809291908181526020016000905b8282101561475357838290600052602060002090600502016040518060c0016040529081600082015481526020016001820160009054906101000a900473ffffffffffffffffffffffffffffffffffffffff1673ffffffffffffffffffffffffffffffffffffffff1673ffffffffffffffffffffffffffffffffffffffff1681526020016001820160149054906101000a900460ff1660018111156146ea577f4e487b7100000000000000000000000000000000000000000000000000000000600052602160045260246000fd5b6001811115614722577f4e487b7100000000000000000000000000000000000000000000000000000000600052602160045260246000fd5b815260200160028201548152602001600382015481526020016004820154815250508152602001906001019061461c565b505050509050808381518110614792577f4e487b7100000000000000000000000000000000000000000000000000000000600052603260045260246000fd5b602002602001015160a001519150509392505050565b60006007600083815260200190815260200160002060008460018111156147f8577f4e487b7100000000000000000000000000000000000000000000000000000000600052602160045260246000fd5b6001811115614830577f4e487b7100000000000000000000000000000000000000000000000000000000600052602160045260246000fd5b815260200190815260200160002090506000600181111561487a577f4e487b7100000000000000000000000000000000000000000000000000000000600052602160045260246000fd5b8360018111156148b3577f4e487b7100000000000000000000000000000000000000000000000000000000600052602160045260246000fd5b1415614f325760005b600182805490506148cd919061601d565b8111614f3057816001826148e19190615f6d565b81548110614918577f4e487b7100000000000000000000000000000000000000000000000000000000600052603260045260246000fd5b906000526020600020906005020160040154828281548110614963577f4e487b7100000000000000000000000000000000000000000000000000000000600052603260045260246000fd5b9060005260206000209060050201600401541015614e705760008282815481106149b6577f4e487b7100000000000000000000000000000000000000000000000000000000600052603260045260246000fd5b90600052602060002090600502016040518060c0016040529081600082015481526020016001820160009054906101000a900473ffffffffffffffffffffffffffffffffffffffff1673ffffffffffffffffffffffffffffffffffffffff1673ffffffffffffffffffffffffffffffffffffffff1681526020016001820160149054906101000a900460ff166001811115614a7a577f4e487b7100000000000000000000000000000000000000000000000000000000600052602160045260246000fd5b6001811115614ab2577f4e487b7100000000000000000000000000000000000000000000000000000000600052602160045260246000fd5b815260200160028201548152602001600382015481526020016004820154815250509050600083600184614ae69190615f6d565b81548110614b1d577f4e487b7100000000000000000000000000000000000000000000000000000000600052603260045260246000fd5b90600052602060002090600502016040518060c0016040529081600082015481526020016001820160009054906101000a900473ffffffffffffffffffffffffffffffffffffffff1673ffffffffffffffffffffffffffffffffffffffff1673ffffffffffffffffffffffffffffffffffffffff1681526020016001820160149054906101000a900460ff166001811115614be1577f4e487b7100000000000000000000000000000000000000000000000000000000600052602160045260246000fd5b6001811115614c19577f4e487b7100000000000000000000000000000000000000000000000000000000600052602160045260246000fd5b8152602001600282015481526020016003820154815260200160048201548152505090508184600185614c4c9190615f6d565b81548110614c83577f4e487b7100000000000000000000000000000000000000000000000000000000600052603260045260246000fd5b90600052602060002090600502016000820151816000015560208201518160010160006101000a81548173ffffffffffffffffffffffffffffffffffffffff021916908373ffffffffffffffffffffffffffffffffffffffff16021790555060408201518160010160146101000a81548160ff02191690836001811115614d33577f4e487b7100000000000000000000000000000000000000000000000000000000600052602160045260246000fd5b0217905550606082015181600201556080820151816003015560a0820151816004015590505080848481548110614d93577f4e487b7100000000000000000000000000000000000000000000000000000000600052603260045260246000fd5b90600052602060002090600502016000820151816000015560208201518160010160006101000a81548173ffffffffffffffffffffffffffffffffffffffff021916908373ffffffffffffffffffffffffffffffffffffffff16021790555060408201518160010160146101000a81548160ff02191690836001811115614e43577f4e487b7100000000000000000000000000000000000000000000000000000000600052602160045260246000fd5b0217905550606082015181600201556080820151816003015560a082015181600401559050505050614f1d565b81600182614e7e9190615f6d565b81548110614eb5577f4e487b7100000000000000000000000000000000000000000000000000000000600052603260045260246000fd5b906000526020600020906005020160040154828281548110614f00577f4e487b7100000000000000000000000000000000000000000000000000000000600052603260045260246000fd5b90600052602060002090600502016004015410614f1c57614f30565b5b8080614f28906160f2565b9150506148bc565b505b600180811115614f6b577f4e487b7100000000000000000000000000000000000000000000000000000000600052602160045260246000fd5b836001811115614fa4577f4e487b7100000000000000000000000000000000000000000000000000000000600052602160045260246000fd5b14156156235760005b60018280549050614fbe919061601d565b81116156215781600182614fd29190615f6d565b81548110615009577f4e487b7100000000000000000000000000000000000000000000000000000000600052603260045260246000fd5b906000526020600020906005020160040154828281548110615054577f4e487b7100000000000000000000000000000000000000000000000000000000600052603260045260246000fd5b90600052602060002090600502016004015411156155615760008282815481106150a7577f4e487b7100000000000000000000000000000000000000000000000000000000600052603260045260246000fd5b90600052602060002090600502016040518060c0016040529081600082015481526020016001820160009054906101000a900473ffffffffffffffffffffffffffffffffffffffff1673ffffffffffffffffffffffffffffffffffffffff1673ffffffffffffffffffffffffffffffffffffffff1681526020016001820160149054906101000a900460ff16600181111561516b577f4e487b7100000000000000000000000000000000000000000000000000000000600052602160045260246000fd5b60018111156151a3577f4e487b7100000000000000000000000000000000000000000000000000000000600052602160045260246000fd5b8152602001600282015481526020016003820154815260200160048201548152505090506000836001846151d79190615f6d565b8154811061520e577f4e487b7100000000000000000000000000000000000000000000000000000000600052603260045260246000fd5b90600052602060002090600502016040518060c0016040529081600082015481526020016001820160009054906101000a900473ffffffffffffffffffffffffffffffffffffffff1673ffffffffffffffffffffffffffffffffffffffff1673ffffffffffffffffffffffffffffffffffffffff1681526020016001820160149054906101000a900460ff1660018111156152d2577f4e487b7100000000000000000000000000000000000000000000000000000000600052602160045260246000fd5b600181111561530a577f4e487b7100000000000000000000000000000000000000000000000000000000600052602160045260246000fd5b815260200160028201548152602001600382015481526020016004820154815250509050818460018561533d9190615f6d565b81548110615374577f4e487b7100000000000000000000000000000000000000000000000000000000600052603260045260246000fd5b90600052602060002090600502016000820151816000015560208201518160010160006101000a81548173ffffffffffffffffffffffffffffffffffffffff021916908373ffffffffffffffffffffffffffffffffffffffff16021790555060408201518160010160146101000a81548160ff02191690836001811115615424577f4e487b7100000000000000000000000000000000000000000000000000000000600052602160045260246000fd5b0217905550606082015181600201556080820151816003015560a0820151816004015590505080848481548110615484577f4e487b7100000000000000000000000000000000000000000000000000000000600052603260045260246000fd5b90600052602060002090600502016000820151816000015560208201518160010160006101000a81548173ffffffffffffffffffffffffffffffffffffffff021916908373ffffffffffffffffffffffffffffffffffffffff16021790555060408201518160010160146101000a81548160ff02191690836001811115615534577f4e487b7100000000000000000000000000000000000000000000000000000000600052602160045260246000fd5b0217905550606082015181600201556080820151816003015560a08201518160040155905050505061560e565b8160018261556f9190615f6d565b815481106155a6577f4e487b7100000000000000000000000000000000000000000000000000000000600052603260045260246000fd5b9060005260206000209060050201600401548282815481106155f1577f4e487b7100000000000000000000000000000000000000000000000000000000600052603260045260246000fd5b9060005260206000209060050201600401541161560d57615621565b5b8080615619906160f2565b915050614fad565b505b505050565b600081359050615637816161ad565b92915050565b60008151905061564c816161c4565b92915050565b600081359050615661816161db565b92915050565b600081359050615676816161f2565b92915050565b60008135905061568b81616202565b92915050565b6000602082840312156156a357600080fd5b60006156b184828501615628565b91505092915050565b600080604083850312156156cd57600080fd5b60006156db85828601615628565b92505060206156ec85828601615652565b9150509250929050565b60006020828403121561570857600080fd5b60006157168482850161563d565b91505092915050565b60006020828403121561573157600080fd5b600061573f84828501615652565b91505092915050565b6000806040838503121561575b57600080fd5b600061576985828601615652565b925050602061577a85828601615628565b9150509250929050565b6000806040838503121561579757600080fd5b60006157a585828601615652565b92505060206157b685828601615667565b9150509250929050565b6000806000606084860312156157d557600080fd5b60006157e386828701615652565b93505060206157f486828701615667565b92505060406158058682870161567c565b9150509250925092565b6000806000806080858703121561582557600080fd5b600061583387828801615667565b945050602061584487828801615652565b93505060406158558782880161567c565b92505060606158668782880161567c565b91505092959194509250565b60006020828403121561588457600080fd5b60006158928482850161567c565b91505092915050565b600080604083850312156158ae57600080fd5b60006158bc8582860161567c565b92505060206158cd85828601615652565b9150509250929050565b60006158e38383615c0d565b60c08301905092915050565b6158f881616051565b82525050565b61590781616051565b82525050565b600061591882615f33565b6159228185615f4b565b935061592d83615f23565b8060005b8381101561595e57815161594588826158d7565b975061595083615f3e565b925050600181019050615931565b5085935050505092915050565b6159748161606f565b82525050565b6159838161606f565b82525050565b615992816160b6565b82525050565b6159a1816160b6565b82525050565b60006159b4601083615f5c565b91507f496e73756666696369656e7420455448000000000000000000000000000000006000830152602082019050919050565b60006159f4602683615f5c565b91507f4f776e61626c653a206e6577206f776e657220697320746865207a65726f206160008301527f64647265737300000000000000000000000000000000000000000000000000006020830152604082019050919050565b6000615a5a601483615f5c565b91507f42616c616e636520696e73756666696369656e740000000000000000000000006000830152602082019050919050565b6000615a9a601483615f5c565b91507f546f6b656e20646f6573206e6f742065786973740000000000000000000000006000830152602082019050919050565b6000615ada601c83615f5c565b91507f4f6e6c79207472616465722063616e2072656d6f7665206f72646572000000006000830152602082019050919050565b6000615b1a602083615f5c565b91507f4f776e61626c653a2063616c6c6572206973206e6f7420746865206f776e65726000830152602082019050919050565b6000615b5a601b83615f5c565b91507f506c6561736520696e636c7564652076616c756520616d6f756e7400000000006000830152602082019050919050565b6000615b9a601a83615f5c565b91507f496e73756666696369656e7420746f6b656e2062616c616e63650000000000006000830152602082019050919050565b6000615bda601383615f5c565b91507f496e73756666696369656e7420746f6b656e73000000000000000000000000006000830152602082019050919050565b60c082016000820151615c236000850182615c88565b506020820151615c3660208501826158ef565b506040820151615c496040850182615989565b506060820151615c5c606085018261596b565b506080820151615c6f6080850182615c88565b5060a0820151615c8260a0850182615c88565b50505050565b615c91816160ac565b82525050565b615ca0816160ac565b82525050565b6000602082019050615cbb60008301846158fe565b92915050565b6000606082019050615cd660008301866158fe565b615ce360208301856158fe565b615cf06040830184615c97565b949350505050565b6000604082019050615d0d60008301856158fe565b615d1a6020830184615c97565b9392505050565b60006020820190508181036000830152615d3b818461590d565b905092915050565b6000602082019050615d58600083018461597a565b92915050565b6000604082019050615d73600083018561597a565b615d8060208301846158fe565b9392505050565b60006020820190508181036000830152615da0816159a7565b9050919050565b60006020820190508181036000830152615dc0816159e7565b9050919050565b60006020820190508181036000830152615de081615a4d565b9050919050565b60006020820190508181036000830152615e0081615a8d565b9050919050565b60006020820190508181036000830152615e2081615acd565b9050919050565b60006020820190508181036000830152615e4081615b0d565b9050919050565b60006020820190508181036000830152615e6081615b4d565b9050919050565b60006020820190508181036000830152615e8081615b8d565b9050919050565b60006020820190508181036000830152615ea081615bcd565b9050919050565b6000602082019050615ebc6000830184615c97565b92915050565b600060c082019050615ed76000830189615c97565b615ee460208301886158fe565b615ef16040830187615998565b615efe606083018661597a565b615f0b6080830185615c97565b615f1860a0830184615c97565b979650505050505050565b6000819050602082019050919050565b600081519050919050565b6000602082019050919050565b600082825260208201905092915050565b600082825260208201905092915050565b6000615f78826160ac565b9150615f83836160ac565b9250827fffffffffffffffffffffffffffffffffffffffffffffffffffffffffffffffff03821115615fb857615fb761613b565b5b828201905092915050565b6000615fce826160ac565b9150615fd9836160ac565b9250817fffffffffffffffffffffffffffffffffffffffffffffffffffffffffffffffff04831182151516156160125761601161613b565b5b828202905092915050565b6000616028826160ac565b9150616033836160ac565b9250828210156160465761604561613b565b5b828203905092915050565b600061605c8261608c565b9050919050565b60008115159050919050565b6000819050919050565b600081905061608782616199565b919050565b600073ffffffffffffffffffffffffffffffffffffffff82169050919050565b6000819050919050565b60006160c182616079565b9050919050565b60006160d3826160ac565b915060008214156160e7576160e661613b565b5b600182039050919050565b60006160fd826160ac565b91507fffffffffffffffffffffffffffffffffffffffffffffffffffffffffffffffff8214156161305761612f61613b565b5b600182019050919050565b7f4e487b7100000000000000000000000000000000000000000000000000000000600052601160045260246000fd5b7f4e487b7100000000000000000000000000000000000000000000000000000000600052602160045260246000fd5b600281106161aa576161a961616a565b5b50565b6161b681616051565b81146161c157600080fd5b50565b6161cd81616063565b81146161d857600080fd5b50565b6161e48161606f565b81146161ef57600080fd5b50565b600281106161ff57600080fd5b50565b61620b816160ac565b811461621657600080fd5b5056fea264697066735822122055c942cfe2a2ecd7cc692c07b796420aa2a1585d0a77616a0c31dab917e5261964736f6c63430008000033",
  "immutableReferences": {},
  "source": "pragma solidity ^0.8.0;\r\n\r\nimport \"./DEXWallet.sol\";\r\nimport \"./DEXGetters.sol\";\r\nimport \"./DEX.sol\";\r\nimport \"../node_modules/@openzeppelin/contracts/utils/math/SafeMath.sol\";\r\n\r\ncontract DEXInterface is DEX {\r\n  using SafeMath for uint256;\r\n\r\n\r\n//MODIFY createLimitOrder() to deduct from user's account when limit order is placed;\r\n//MODIFY RemoveOrder() to add to user's account when limit order is cancelled;\r\n//CREATE system so overlapping buy/sell orders will automatically fill each other;\r\n\r\n  //User facing function for creating limit orders;\r\n    function createLimitOrder(SIDE _side, bytes32 _ticker, uint _amount, uint _price) external {\r\n      if (_side == SIDE.SELL){\r\n        require(balances[msg.sender][_ticker] >= _amount, \"Insufficient tokens\");\r\n      }\r\n      else if (_side == SIDE.BUY){\r\n        require(balances[msg.sender][ETH] >= _amount.mul(_price), \"Insufficient ETH\");\r\n      }\r\n\r\n      Order memory newOrder = Order(orderID, msg.sender, _side, _ticker, _amount, _price);\r\n      orderBook[_ticker][_side].push(newOrder);\r\n      orderID++;\r\n\r\n      _sort(_side, _ticker);\r\n\r\n    }\r\n\r\n  //User-facing function for creating market order;\r\n    function CreateMarketOrder(bytes32 _ticker, SIDE _side, uint256 _amount) external {\r\n      if(_side == SIDE.SELL){\r\n        require(balances[msg.sender][_ticker] >= _amount, \"Insufficient token balance\");\r\n        _fillSellOrder(_ticker, _amount);\r\n      }\r\n      if(_side == SIDE.BUY){\r\n        require(balances[msg.sender][ETH] >= _marketBuyCost(_ticker, _amount), \"Insufficient ETH\");\r\n        _fillBuyOrder(_ticker, _amount);\r\n      }\r\n    }\r\n\r\n  //User facing remove function;\r\n    function RemoveOrder(bytes32 _ticker, SIDE _side, uint _ID) external {\r\n      Order[] memory removedOrder = orderBook[_ticker][_side];\r\n      uint _index = _findOrderIndex(_ID, _ticker, _side);\r\n\r\n      require(removedOrder[_index].trader == msg.sender, \"Only trader can remove order\");\r\n      _removeOrder(_ticker, _side, _index);\r\n    }\r\n\r\n\r\n\r\n}\r\n",
  "sourcePath": "c:/Users/Raychel Angel/Truffle/DEX/contracts/DEXInterface.sol",
  "compiler": {
    "name": "solc",
    "version": "0.8.0+commit.c7dfd78e.Emscripten.clang"
  },
  "schemaVersion": "3.3.4",
  "updatedAt": "2021-06-17T05:06:08.371Z",
  "devdoc": {
    "kind": "dev",
    "methods": {
      "owner()": {
        "details": "Returns the address of the current owner."
      },
      "renounceOwnership()": {
        "details": "Leaves the contract without owner. It will not be possible to call `onlyOwner` functions anymore. Can only be called by the current owner. NOTE: Renouncing ownership will leave the contract without an owner, thereby removing any functionality that is only available to the owner."
      },
      "transferOwnership(address)": {
        "details": "Transfers ownership of the contract to a new account (`newOwner`). Can only be called by the current owner."
      }
    },
    "version": 1
  },
  "userdoc": {
    "kind": "user",
    "methods": {},
    "version": 1
  }
}