{
  "contractName": "DEXWallet",
  "abi": [
    {
      "anonymous": false,
      "inputs": [
        {
          "indexed": true,
          "internalType": "address",
          "name": "previousOwner",
          "type": "address"
        },
        {
          "indexed": true,
          "internalType": "address",
          "name": "newOwner",
          "type": "address"
        }
      ],
      "name": "OwnershipTransferred",
      "type": "event"
    },
    {
      "inputs": [
        {
          "internalType": "address",
          "name": "",
          "type": "address"
        },
        {
          "internalType": "bytes32",
          "name": "",
          "type": "bytes32"
        }
      ],
      "name": "balances",
      "outputs": [
        {
          "internalType": "uint256",
          "name": "",
          "type": "uint256"
        }
      ],
      "stateMutability": "view",
      "type": "function",
      "constant": true
    },
    {
      "inputs": [],
      "name": "owner",
      "outputs": [
        {
          "internalType": "address",
          "name": "",
          "type": "address"
        }
      ],
      "stateMutability": "view",
      "type": "function",
      "constant": true
    },
    {
      "inputs": [],
      "name": "renounceOwnership",
      "outputs": [],
      "stateMutability": "nonpayable",
      "type": "function"
    },
    {
      "inputs": [
        {
          "internalType": "uint256",
          "name": "",
          "type": "uint256"
        }
      ],
      "name": "tokenList",
      "outputs": [
        {
          "internalType": "bytes32",
          "name": "",
          "type": "bytes32"
        }
      ],
      "stateMutability": "view",
      "type": "function",
      "constant": true
    },
    {
      "inputs": [
        {
          "internalType": "bytes32",
          "name": "",
          "type": "bytes32"
        }
      ],
      "name": "tokenMapping",
      "outputs": [
        {
          "internalType": "bytes32",
          "name": "ticker",
          "type": "bytes32"
        },
        {
          "internalType": "address",
          "name": "tokenAddress",
          "type": "address"
        }
      ],
      "stateMutability": "view",
      "type": "function",
      "constant": true
    },
    {
      "inputs": [
        {
          "internalType": "address",
          "name": "newOwner",
          "type": "address"
        }
      ],
      "name": "transferOwnership",
      "outputs": [],
      "stateMutability": "nonpayable",
      "type": "function"
    },
    {
      "inputs": [
        {
          "internalType": "bytes32",
          "name": "_ticker",
          "type": "bytes32"
        },
        {
          "internalType": "address",
          "name": "_tokenAddress",
          "type": "address"
        }
      ],
      "name": "addToken",
      "outputs": [],
      "stateMutability": "nonpayable",
      "type": "function"
    },
    {
      "inputs": [
        {
          "internalType": "bytes32",
          "name": "_ticker",
          "type": "bytes32"
        },
        {
          "internalType": "uint256",
          "name": "_amount",
          "type": "uint256"
        }
      ],
      "name": "deposit",
      "outputs": [],
      "stateMutability": "nonpayable",
      "type": "function"
    },
    {
      "inputs": [],
      "name": "depositETH",
      "outputs": [],
      "stateMutability": "payable",
      "type": "function",
      "payable": true
    },
    {
      "inputs": [
        {
          "internalType": "bytes32",
          "name": "_ticker",
          "type": "bytes32"
        },
        {
          "internalType": "uint256",
          "name": "_amount",
          "type": "uint256"
        }
      ],
      "name": "withdraw",
      "outputs": [],
      "stateMutability": "nonpayable",
      "type": "function"
    },
    {
      "inputs": [
        {
          "internalType": "bytes32",
          "name": "_ticker",
          "type": "bytes32"
        }
      ],
      "name": "getBalance",
      "outputs": [
        {
          "internalType": "uint256",
          "name": "",
          "type": "uint256"
        }
      ],
      "stateMutability": "view",
      "type": "function",
      "constant": true
    }
  ],
  "bytecode": "0x608060405260405160200161001390610134565b6040516020818303038152906040528051906020012060045534801561003857600080fd5b5060006100496100ec60201b60201c565b9050806000806101000a81548173ffffffffffffffffffffffffffffffffffffffff021916908373ffffffffffffffffffffffffffffffffffffffff1602179055508073ffffffffffffffffffffffffffffffffffffffff16600073ffffffffffffffffffffffffffffffffffffffff167f8be0079c531659141344cd1fd0a4f28419497f9722a3daafe3b4186f6b6457e060405160405180910390a350610154565b600033905090565b6000610101600383610149565b91507f45544800000000000000000000000000000000000000000000000000000000006000830152600382019050919050565b600061013f826100f4565b9150819050919050565b600081905092915050565b6114a8806101636000396000f3fe60806040526004361061009c5760003560e01c80638da5cb5b116100645780638da5cb5b146101855780638e739461146101b05780639776aacf146101ed5780639ead722214610216578063f2fde38b14610253578063f6326fb31461027c5761009c565b8063040cf020146100a15780631de26e16146100ca5780631f14df69146100f3578063667cb4ba14610130578063715018a61461016e575b600080fd5b3480156100ad57600080fd5b506100c860048036038101906100c39190610f88565b610286565b005b3480156100d657600080fd5b506100f160048036038101906100ec9190610f88565b6105a6565b005b3480156100ff57600080fd5b5061011a60048036038101906101159190610ebe565b6107d9565b60405161012791906112df565b60405180910390f35b34801561013c57600080fd5b5061015760048036038101906101529190610f23565b6107fe565b604051610165929190611216565b60405180910390f35b34801561017a57600080fd5b50610183610842565b005b34801561019157600080fd5b5061019a61097c565b6040516101a79190611180565b60405180910390f35b3480156101bc57600080fd5b506101d760048036038101906101d29190610f23565b6109a5565b6040516101e491906112df565b60405180910390f35b3480156101f957600080fd5b50610214600480360381019061020f9190610f4c565b6109ff565b005b34801561022257600080fd5b5061023d60048036038101906102389190610fc4565b610b3a565b60405161024a91906111fb565b60405180910390f35b34801561025f57600080fd5b5061027a60048036038101906102759190610e95565b610b5e565b005b610284610d07565b005b81600454811461033757600073ffffffffffffffffffffffffffffffffffffffff166001600083815260200190815260200160002060010160009054906101000a900473ffffffffffffffffffffffffffffffffffffffff1673ffffffffffffffffffffffffffffffffffffffff161415610336576040517f08c379a000000000000000000000000000000000000000000000000000000000815260040161032d9061125f565b60405180910390fd5b5b81600260003373ffffffffffffffffffffffffffffffffffffffff1673ffffffffffffffffffffffffffffffffffffffff16815260200190815260200160002060008581526020019081526020016000205410156103ca576040517f08c379a00000000000000000000000000000000000000000000000000000000081526004016103c19061129f565b60405180910390fd5b61042d82600260003373ffffffffffffffffffffffffffffffffffffffff1673ffffffffffffffffffffffffffffffffffffffff168152602001908152602001600020600086815260200190815260200160002054610e0d90919063ffffffff16565b600260003373ffffffffffffffffffffffffffffffffffffffff1673ffffffffffffffffffffffffffffffffffffffff168152602001908152602001600020600085815260200190815260200160002081905550600454831461054f576001600084815260200190815260200160002060010160009054906101000a900473ffffffffffffffffffffffffffffffffffffffff1673ffffffffffffffffffffffffffffffffffffffff1663a9059cbb33846040518363ffffffff1660e01b81526004016104fb9291906111d2565b602060405180830381600087803b15801561051557600080fd5b505af1158015610529573d6000803e3d6000fd5b505050506040513d601f19601f8201168201806040525081019061054d9190610efa565b505b6004548314156105a1573373ffffffffffffffffffffffffffffffffffffffff166108fc839081150290604051600060405180830381858888f1935050505015801561059f573d6000803e3d6000fd5b505b505050565b81600454811461065757600073ffffffffffffffffffffffffffffffffffffffff166001600083815260200190815260200160002060010160009054906101000a900473ffffffffffffffffffffffffffffffffffffffff1673ffffffffffffffffffffffffffffffffffffffff161415610656576040517f08c379a000000000000000000000000000000000000000000000000000000000815260040161064d9061125f565b60405180910390fd5b5b6106ba82600260003373ffffffffffffffffffffffffffffffffffffffff1673ffffffffffffffffffffffffffffffffffffffff168152602001908152602001600020600086815260200190815260200160002054610e2390919063ffffffff16565b600260003373ffffffffffffffffffffffffffffffffffffffff1673ffffffffffffffffffffffffffffffffffffffff1681526020019081526020016000206000858152602001908152602001600020819055506001600084815260200190815260200160002060010160009054906101000a900473ffffffffffffffffffffffffffffffffffffffff1673ffffffffffffffffffffffffffffffffffffffff166323b872dd3330856040518463ffffffff1660e01b81526004016107819392919061119b565b602060405180830381600087803b15801561079b57600080fd5b505af11580156107af573d6000803e3d6000fd5b505050506040513d601f19601f820116820180604052508101906107d39190610efa565b50505050565b6002602052816000526040600020602052806000526040600020600091509150505481565b60016020528060005260406000206000915090508060000154908060010160009054906101000a900473ffffffffffffffffffffffffffffffffffffffff16905082565b61084a610e39565b73ffffffffffffffffffffffffffffffffffffffff1661086861097c565b73ffffffffffffffffffffffffffffffffffffffff16146108be576040517f08c379a00000000000000000000000000000000000000000000000000000000081526004016108b5906112bf565b60405180910390fd5b600073ffffffffffffffffffffffffffffffffffffffff1660008054906101000a900473ffffffffffffffffffffffffffffffffffffffff1673ffffffffffffffffffffffffffffffffffffffff167f8be0079c531659141344cd1fd0a4f28419497f9722a3daafe3b4186f6b6457e060405160405180910390a360008060006101000a81548173ffffffffffffffffffffffffffffffffffffffff021916908373ffffffffffffffffffffffffffffffffffffffff160217905550565b60008060009054906101000a900473ffffffffffffffffffffffffffffffffffffffff16905090565b6000600260003373ffffffffffffffffffffffffffffffffffffffff1673ffffffffffffffffffffffffffffffffffffffff1681526020019081526020016000206000838152602001908152602001600020549050919050565b610a07610e39565b73ffffffffffffffffffffffffffffffffffffffff16610a2561097c565b73ffffffffffffffffffffffffffffffffffffffff1614610a7b576040517f08c379a0000000000000000000000000000000000000000000000000000000008152600401610a72906112bf565b60405180910390fd5b60405180604001604052808381526020018273ffffffffffffffffffffffffffffffffffffffff16815250600160008481526020019081526020016000206000820151816000015560208201518160010160006101000a81548173ffffffffffffffffffffffffffffffffffffffff021916908373ffffffffffffffffffffffffffffffffffffffff16021790555090505060038290806001815401808255809150506001900390600052602060002001600090919091909150555050565b60038181548110610b4a57600080fd5b906000526020600020016000915090505481565b610b66610e39565b73ffffffffffffffffffffffffffffffffffffffff16610b8461097c565b73ffffffffffffffffffffffffffffffffffffffff1614610bda576040517f08c379a0000000000000000000000000000000000000000000000000000000008152600401610bd1906112bf565b60405180910390fd5b600073ffffffffffffffffffffffffffffffffffffffff168173ffffffffffffffffffffffffffffffffffffffff161415610c4a576040517f08c379a0000000000000000000000000000000000000000000000000000000008152600401610c419061123f565b60405180910390fd5b8073ffffffffffffffffffffffffffffffffffffffff1660008054906101000a900473ffffffffffffffffffffffffffffffffffffffff1673ffffffffffffffffffffffffffffffffffffffff167f8be0079c531659141344cd1fd0a4f28419497f9722a3daafe3b4186f6b6457e060405160405180910390a3806000806101000a81548173ffffffffffffffffffffffffffffffffffffffff021916908373ffffffffffffffffffffffffffffffffffffffff16021790555050565b60003411610d4a576040517f08c379a0000000000000000000000000000000000000000000000000000000008152600401610d419061127f565b60405180910390fd5b6000349050610db481600260003373ffffffffffffffffffffffffffffffffffffffff1673ffffffffffffffffffffffffffffffffffffffff1681526020019081526020016000206000600454815260200190815260200160002054610e2390919063ffffffff16565b600260003373ffffffffffffffffffffffffffffffffffffffff1673ffffffffffffffffffffffffffffffffffffffff168152602001908152602001600020600060045481526020019081526020016000208190555050565b60008183610e1b9190611361565b905092915050565b60008183610e31919061130b565b905092915050565b600033905090565b600081359050610e5081611416565b92915050565b600081519050610e658161142d565b92915050565b600081359050610e7a81611444565b92915050565b600081359050610e8f8161145b565b92915050565b600060208284031215610ea757600080fd5b6000610eb584828501610e41565b91505092915050565b60008060408385031215610ed157600080fd5b6000610edf85828601610e41565b9250506020610ef085828601610e6b565b9150509250929050565b600060208284031215610f0c57600080fd5b6000610f1a84828501610e56565b91505092915050565b600060208284031215610f3557600080fd5b6000610f4384828501610e6b565b91505092915050565b60008060408385031215610f5f57600080fd5b6000610f6d85828601610e6b565b9250506020610f7e85828601610e41565b9150509250929050565b60008060408385031215610f9b57600080fd5b6000610fa985828601610e6b565b9250506020610fba85828601610e80565b9150509250929050565b600060208284031215610fd657600080fd5b6000610fe484828501610e80565b91505092915050565b610ff681611395565b82525050565b611005816113b3565b82525050565b60006110186026836112fa565b91507f4f776e61626c653a206e6577206f776e657220697320746865207a65726f206160008301527f64647265737300000000000000000000000000000000000000000000000000006020830152604082019050919050565b600061107e6012836112fa565b91507f546f6b656e206e6f6e2d6578697374656e7400000000000000000000000000006000830152602082019050919050565b60006110be6011836112fa565b91507f4572726f723a2076616c7565203c3d20300000000000000000000000000000006000830152602082019050919050565b60006110fe6014836112fa565b91507f496e73756666696369656e742062616c616e63650000000000000000000000006000830152602082019050919050565b600061113e6020836112fa565b91507f4f776e61626c653a2063616c6c6572206973206e6f7420746865206f776e65726000830152602082019050919050565b61117a816113dd565b82525050565b60006020820190506111956000830184610fed565b92915050565b60006060820190506111b06000830186610fed565b6111bd6020830185610fed565b6111ca6040830184611171565b949350505050565b60006040820190506111e76000830185610fed565b6111f46020830184611171565b9392505050565b60006020820190506112106000830184610ffc565b92915050565b600060408201905061122b6000830185610ffc565b6112386020830184610fed565b9392505050565b600060208201905081810360008301526112588161100b565b9050919050565b6000602082019050818103600083015261127881611071565b9050919050565b60006020820190508181036000830152611298816110b1565b9050919050565b600060208201905081810360008301526112b8816110f1565b9050919050565b600060208201905081810360008301526112d881611131565b9050919050565b60006020820190506112f46000830184611171565b92915050565b600082825260208201905092915050565b6000611316826113dd565b9150611321836113dd565b9250827fffffffffffffffffffffffffffffffffffffffffffffffffffffffffffffffff03821115611356576113556113e7565b5b828201905092915050565b600061136c826113dd565b9150611377836113dd565b92508282101561138a576113896113e7565b5b828203905092915050565b60006113a0826113bd565b9050919050565b60008115159050919050565b6000819050919050565b600073ffffffffffffffffffffffffffffffffffffffff82169050919050565b6000819050919050565b7f4e487b7100000000000000000000000000000000000000000000000000000000600052601160045260246000fd5b61141f81611395565b811461142a57600080fd5b50565b611436816113a7565b811461144157600080fd5b50565b61144d816113b3565b811461145857600080fd5b50565b611464816113dd565b811461146f57600080fd5b5056fea26469706673582212204a6e743d9e981a2ba8328651c742b95afc658143a7d5036abbcbe996e9b350b064736f6c63430008000033",
  "immutableReferences": {},
  "source": "pragma solidity 0.8.0;\r\n\r\nimport \"./DEXGetters.sol\";\r\nimport \"./DEX.sol\";\r\n\r\nimport \"../node_modules/@openzeppelin/contracts/token/ERC20/IERC20.sol\";\r\nimport \"../node_modules/@openzeppelin/contracts/utils/math/SafeMath.sol\";\r\nimport \"../node_modules/@openzeppelin/contracts/access/Ownable.sol\";\r\n\r\n\r\n//Create event for transferring ETH to/from private address;\r\n\r\ncontract DEXWallet is Ownable {\r\n  using SafeMath for uint256;\r\n\r\n  struct Token {\r\n      bytes32 ticker;\r\n      address tokenAddress;\r\n    }\r\n\r\n  mapping(bytes32 => Token) public tokenMapping;\r\n  mapping(address => mapping(bytes32 => uint256)) public balances;\r\n\r\n  bytes32[] public tokenList;\r\n  bytes32 ETH = keccak256(abi.encodePacked(\"ETH\"));\r\n\r\n  modifier tokenExists(bytes32 ticker){\r\n    if (ticker != ETH){\r\n    require(tokenMapping[ticker].tokenAddress != address(0), \"Token non-existent\");\r\n    }\r\n    _;\r\n  }\r\n\r\n  function addToken(bytes32 _ticker, address _tokenAddress) external onlyOwner {\r\n    tokenMapping[_ticker] = Token(_ticker,_tokenAddress);\r\n    tokenList.push(_ticker);\r\n  }\r\n\r\n  function deposit(bytes32 _ticker, uint _amount) external tokenExists(_ticker) {\r\n    balances[msg.sender][_ticker] = balances[msg.sender][_ticker].add(_amount);\r\n    IERC20(tokenMapping[_ticker].tokenAddress).transferFrom(msg.sender, address(this), _amount);\r\n  }\r\n\r\n  function depositETH() external payable {\r\n    require(msg.value > 0, \"Error: value <= 0\");\r\n    uint _value = msg.value;\r\n    balances[msg.sender][ETH] = balances[msg.sender][ETH].add(_value);\r\n  }\r\n\r\n  function withdraw (bytes32 _ticker, uint _amount) external tokenExists(_ticker) {\r\n    require(balances[msg.sender][_ticker] >= _amount, \"Insufficient balance\");\r\n\r\n    balances[msg.sender][_ticker] = balances[msg.sender][_ticker].sub(_amount);\r\n\r\n    if (_ticker != ETH) {\r\n      IERC20(tokenMapping[_ticker].tokenAddress).transfer(msg.sender, _amount);\r\n    }\r\n    if (_ticker == ETH) {\r\n      payable(msg.sender).transfer(_amount);\r\n    }\r\n  }\r\n\r\n  function getBalance(bytes32 _ticker) public view returns(uint) {\r\n    return balances[msg.sender][_ticker];\r\n  }\r\n\r\n}\r\n",
  "sourcePath": "C:\\Users\\solus\\documents\\solidity\\dex\\contracts\\DEXWallet.sol",
  "compiler": {
    "name": "solc",
    "version": "0.8.0+commit.c7dfd78e.Emscripten.clang"
  },
  "schemaVersion": "3.4.1",
  "updatedAt": "2021-06-21T19:16:08.552Z",
  "networkType": "ethereum",
  "devdoc": {
    "kind": "dev",
    "methods": {
      "owner()": {
        "details": "Returns the address of the current owner."
      },
      "renounceOwnership()": {
        "details": "Leaves the contract without owner. It will not be possible to call `onlyOwner` functions anymore. Can only be called by the current owner. NOTE: Renouncing ownership will leave the contract without an owner, thereby removing any functionality that is only available to the owner."
      },
      "transferOwnership(address)": {
        "details": "Transfers ownership of the contract to a new account (`newOwner`). Can only be called by the current owner."
      }
    },
    "version": 1
  },
  "userdoc": {
    "kind": "user",
    "methods": {},
    "version": 1
  }
}