{
  "contractName": "ETHWallet",
  "abi": [
    {
      "anonymous": false,
      "inputs": [
        {
          "indexed": true,
          "internalType": "address",
          "name": "previousOwner",
          "type": "address"
        },
        {
          "indexed": true,
          "internalType": "address",
          "name": "newOwner",
          "type": "address"
        }
      ],
      "name": "OwnershipTransferred",
      "type": "event"
    },
    {
      "inputs": [
        {
          "internalType": "address",
          "name": "",
          "type": "address"
        },
        {
          "internalType": "bytes32",
          "name": "",
          "type": "bytes32"
        }
      ],
      "name": "balances",
      "outputs": [
        {
          "internalType": "uint256",
          "name": "",
          "type": "uint256"
        }
      ],
      "stateMutability": "view",
      "type": "function",
      "constant": true
    },
    {
      "inputs": [],
      "name": "owner",
      "outputs": [
        {
          "internalType": "address",
          "name": "",
          "type": "address"
        }
      ],
      "stateMutability": "view",
      "type": "function",
      "constant": true
    },
    {
      "inputs": [],
      "name": "renounceOwnership",
      "outputs": [],
      "stateMutability": "nonpayable",
      "type": "function"
    },
    {
      "inputs": [
        {
          "internalType": "uint256",
          "name": "",
          "type": "uint256"
        }
      ],
      "name": "tokenList",
      "outputs": [
        {
          "internalType": "bytes32",
          "name": "",
          "type": "bytes32"
        }
      ],
      "stateMutability": "view",
      "type": "function",
      "constant": true
    },
    {
      "inputs": [
        {
          "internalType": "bytes32",
          "name": "",
          "type": "bytes32"
        }
      ],
      "name": "tokenMapping",
      "outputs": [
        {
          "internalType": "bytes32",
          "name": "ticker",
          "type": "bytes32"
        },
        {
          "internalType": "address",
          "name": "tokenAddress",
          "type": "address"
        }
      ],
      "stateMutability": "view",
      "type": "function",
      "constant": true
    },
    {
      "inputs": [
        {
          "internalType": "address",
          "name": "newOwner",
          "type": "address"
        }
      ],
      "name": "transferOwnership",
      "outputs": [],
      "stateMutability": "nonpayable",
      "type": "function"
    },
    {
      "inputs": [
        {
          "internalType": "bytes32",
          "name": "_ticker",
          "type": "bytes32"
        },
        {
          "internalType": "address",
          "name": "_tokenAddress",
          "type": "address"
        }
      ],
      "name": "addToken",
      "outputs": [],
      "stateMutability": "nonpayable",
      "type": "function"
    },
    {
      "inputs": [
        {
          "internalType": "uint256",
          "name": "_amount",
          "type": "uint256"
        },
        {
          "internalType": "bytes32",
          "name": "_ticker",
          "type": "bytes32"
        }
      ],
      "name": "deposit",
      "outputs": [],
      "stateMutability": "nonpayable",
      "type": "function"
    },
    {
      "inputs": [],
      "name": "depositETH",
      "outputs": [],
      "stateMutability": "payable",
      "type": "function",
      "payable": true
    },
    {
      "inputs": [
        {
          "internalType": "uint256",
          "name": "_amount",
          "type": "uint256"
        },
        {
          "internalType": "bytes32",
          "name": "_ticker",
          "type": "bytes32"
        }
      ],
      "name": "withdraw",
      "outputs": [],
      "stateMutability": "nonpayable",
      "type": "function"
    },
    {
      "inputs": [
        {
          "internalType": "bytes32",
          "name": "_ticker",
          "type": "bytes32"
        }
      ],
      "name": "getBalance",
      "outputs": [
        {
          "internalType": "uint256",
          "name": "",
          "type": "uint256"
        }
      ],
      "stateMutability": "view",
      "type": "function",
      "constant": true
    }
  ],
  "bytecode": "0x608060405260405160200161001390610134565b6040516020818303038152906040528051906020012060035534801561003857600080fd5b5060006100496100ec60201b60201c565b9050806000806101000a81548173ffffffffffffffffffffffffffffffffffffffff021916908373ffffffffffffffffffffffffffffffffffffffff1602179055508073ffffffffffffffffffffffffffffffffffffffff16600073ffffffffffffffffffffffffffffffffffffffff167f8be0079c531659141344cd1fd0a4f28419497f9722a3daafe3b4186f6b6457e060405160405180910390a350610154565b600033905090565b6000610101600383610149565b91507f45544800000000000000000000000000000000000000000000000000000000006000830152600382019050919050565b600061013f826100f4565b9150819050919050565b600081905092915050565b6114a9806101636000396000f3fe60806040526004361061009c5760003560e01c80639776aacf116100645780639776aacf1461019b5780639ead7222146101c4578063a8d2021a14610201578063c9630cb01461022a578063f2fde38b14610253578063f6326fb31461027c5761009c565b80631f14df69146100a1578063667cb4ba146100de578063715018a61461011c5780638da5cb5b146101335780638e7394611461015e575b600080fd5b3480156100ad57600080fd5b506100c860048036038101906100c39190610ebf565b610286565b6040516100d591906112e0565b60405180910390f35b3480156100ea57600080fd5b5061010560048036038101906101009190610f24565b6102ab565b604051610113929190611217565b60405180910390f35b34801561012857600080fd5b506101316102ef565b005b34801561013f57600080fd5b50610148610429565b6040516101559190611181565b60405180910390f35b34801561016a57600080fd5b5061018560048036038101906101809190610f24565b610452565b60405161019291906112e0565b60405180910390f35b3480156101a757600080fd5b506101c260048036038101906101bd9190610f4d565b6104ac565b005b3480156101d057600080fd5b506101eb60048036038101906101e69190610f89565b6105e7565b6040516101f891906111fc565b60405180910390f35b34801561020d57600080fd5b5061022860048036038101906102239190610fb2565b61060b565b005b34801561023657600080fd5b50610251600480360381019061024c9190610fb2565b61092b565b005b34801561025f57600080fd5b5061027a60048036038101906102759190610e96565b610b5e565b005b610284610d07565b005b6004602052816000526040600020602052806000526040600020600091509150505481565b60016020528060005260406000206000915090508060000154908060010160009054906101000a900473ffffffffffffffffffffffffffffffffffffffff16905082565b6102f7610e0e565b73ffffffffffffffffffffffffffffffffffffffff16610315610429565b73ffffffffffffffffffffffffffffffffffffffff161461036b576040517f08c379a0000000000000000000000000000000000000000000000000000000008152600401610362906112a0565b60405180910390fd5b600073ffffffffffffffffffffffffffffffffffffffff1660008054906101000a900473ffffffffffffffffffffffffffffffffffffffff1673ffffffffffffffffffffffffffffffffffffffff167f8be0079c531659141344cd1fd0a4f28419497f9722a3daafe3b4186f6b6457e060405160405180910390a360008060006101000a81548173ffffffffffffffffffffffffffffffffffffffff021916908373ffffffffffffffffffffffffffffffffffffffff160217905550565b60008060009054906101000a900473ffffffffffffffffffffffffffffffffffffffff16905090565b6000600460003373ffffffffffffffffffffffffffffffffffffffff1673ffffffffffffffffffffffffffffffffffffffff1681526020019081526020016000206000838152602001908152602001600020549050919050565b6104b4610e0e565b73ffffffffffffffffffffffffffffffffffffffff166104d2610429565b73ffffffffffffffffffffffffffffffffffffffff1614610528576040517f08c379a000000000000000000000000000000000000000000000000000000000815260040161051f906112a0565b60405180910390fd5b60405180604001604052808381526020018273ffffffffffffffffffffffffffffffffffffffff16815250600160008481526020019081526020016000206000820151816000015560208201518160010160006101000a81548173ffffffffffffffffffffffffffffffffffffffff021916908373ffffffffffffffffffffffffffffffffffffffff16021790555090505060028290806001815401808255809150506001900390600052602060002001600090919091909150555050565b600281815481106105f757600080fd5b906000526020600020016000915090505481565b8060035481146106bc57600073ffffffffffffffffffffffffffffffffffffffff166001600083815260200190815260200160002060010160009054906101000a900473ffffffffffffffffffffffffffffffffffffffff1673ffffffffffffffffffffffffffffffffffffffff1614156106bb576040517f08c379a00000000000000000000000000000000000000000000000000000000081526004016106b290611280565b60405180910390fd5b5b82600460003373ffffffffffffffffffffffffffffffffffffffff1673ffffffffffffffffffffffffffffffffffffffff168152602001908152602001600020600084815260200190815260200160002054101561074f576040517f08c379a000000000000000000000000000000000000000000000000000000000815260040161074690611260565b60405180910390fd5b6107b283600460003373ffffffffffffffffffffffffffffffffffffffff1673ffffffffffffffffffffffffffffffffffffffff168152602001908152602001600020600085815260200190815260200160002054610e1690919063ffffffff16565b600460003373ffffffffffffffffffffffffffffffffffffffff1673ffffffffffffffffffffffffffffffffffffffff16815260200190815260200160002060008481526020019081526020016000208190555060035482146108d4576001600083815260200190815260200160002060010160009054906101000a900473ffffffffffffffffffffffffffffffffffffffff1673ffffffffffffffffffffffffffffffffffffffff1663a9059cbb33856040518363ffffffff1660e01b81526004016108809291906111d3565b602060405180830381600087803b15801561089a57600080fd5b505af11580156108ae573d6000803e3d6000fd5b505050506040513d601f19601f820116820180604052508101906108d29190610efb565b505b600354821415610926573373ffffffffffffffffffffffffffffffffffffffff166108fc849081150290604051600060405180830381858888f19350505050158015610924573d6000803e3d6000fd5b505b505050565b8060035481146109dc57600073ffffffffffffffffffffffffffffffffffffffff166001600083815260200190815260200160002060010160009054906101000a900473ffffffffffffffffffffffffffffffffffffffff1673ffffffffffffffffffffffffffffffffffffffff1614156109db576040517f08c379a00000000000000000000000000000000000000000000000000000000081526004016109d290611280565b60405180910390fd5b5b610a3f83600460003373ffffffffffffffffffffffffffffffffffffffff1673ffffffffffffffffffffffffffffffffffffffff168152602001908152602001600020600085815260200190815260200160002054610e2c90919063ffffffff16565b600460003373ffffffffffffffffffffffffffffffffffffffff1673ffffffffffffffffffffffffffffffffffffffff1681526020019081526020016000206000848152602001908152602001600020819055506001600083815260200190815260200160002060010160009054906101000a900473ffffffffffffffffffffffffffffffffffffffff1673ffffffffffffffffffffffffffffffffffffffff166323b872dd3330866040518463ffffffff1660e01b8152600401610b069392919061119c565b602060405180830381600087803b158015610b2057600080fd5b505af1158015610b34573d6000803e3d6000fd5b505050506040513d601f19601f82011682018060405250810190610b589190610efb565b50505050565b610b66610e0e565b73ffffffffffffffffffffffffffffffffffffffff16610b84610429565b73ffffffffffffffffffffffffffffffffffffffff1614610bda576040517f08c379a0000000000000000000000000000000000000000000000000000000008152600401610bd1906112a0565b60405180910390fd5b600073ffffffffffffffffffffffffffffffffffffffff168173ffffffffffffffffffffffffffffffffffffffff161415610c4a576040517f08c379a0000000000000000000000000000000000000000000000000000000008152600401610c4190611240565b60405180910390fd5b8073ffffffffffffffffffffffffffffffffffffffff1660008054906101000a900473ffffffffffffffffffffffffffffffffffffffff1673ffffffffffffffffffffffffffffffffffffffff167f8be0079c531659141344cd1fd0a4f28419497f9722a3daafe3b4186f6b6457e060405160405180910390a3806000806101000a81548173ffffffffffffffffffffffffffffffffffffffff021916908373ffffffffffffffffffffffffffffffffffffffff16021790555050565b6000341015610d4b576040517f08c379a0000000000000000000000000000000000000000000000000000000008152600401610d42906112c0565b60405180910390fd5b6000349050610db581600460003373ffffffffffffffffffffffffffffffffffffffff1673ffffffffffffffffffffffffffffffffffffffff1681526020019081526020016000206000600354815260200190815260200160002054610e2c90919063ffffffff16565b600460003373ffffffffffffffffffffffffffffffffffffffff1673ffffffffffffffffffffffffffffffffffffffff168152602001908152602001600020600060035481526020019081526020016000208190555050565b600033905090565b60008183610e249190611362565b905092915050565b60008183610e3a919061130c565b905092915050565b600081359050610e5181611417565b92915050565b600081519050610e668161142e565b92915050565b600081359050610e7b81611445565b92915050565b600081359050610e908161145c565b92915050565b600060208284031215610ea857600080fd5b6000610eb684828501610e42565b91505092915050565b60008060408385031215610ed257600080fd5b6000610ee085828601610e42565b9250506020610ef185828601610e6c565b9150509250929050565b600060208284031215610f0d57600080fd5b6000610f1b84828501610e57565b91505092915050565b600060208284031215610f3657600080fd5b6000610f4484828501610e6c565b91505092915050565b60008060408385031215610f6057600080fd5b6000610f6e85828601610e6c565b9250506020610f7f85828601610e42565b9150509250929050565b600060208284031215610f9b57600080fd5b6000610fa984828501610e81565b91505092915050565b60008060408385031215610fc557600080fd5b6000610fd385828601610e81565b9250506020610fe485828601610e6c565b9150509250929050565b610ff781611396565b82525050565b611006816113b4565b82525050565b60006110196026836112fb565b91507f4f776e61626c653a206e6577206f776e657220697320746865207a65726f206160008301527f64647265737300000000000000000000000000000000000000000000000000006020830152604082019050919050565b600061107f6014836112fb565b91507f42616c616e636520696e73756666696369656e740000000000000000000000006000830152602082019050919050565b60006110bf6014836112fb565b91507f546f6b656e20646f6573206e6f742065786973740000000000000000000000006000830152602082019050919050565b60006110ff6020836112fb565b91507f4f776e61626c653a2063616c6c6572206973206e6f7420746865206f776e65726000830152602082019050919050565b600061113f601b836112fb565b91507f506c6561736520696e636c7564652076616c756520616d6f756e7400000000006000830152602082019050919050565b61117b816113de565b82525050565b60006020820190506111966000830184610fee565b92915050565b60006060820190506111b16000830186610fee565b6111be6020830185610fee565b6111cb6040830184611172565b949350505050565b60006040820190506111e86000830185610fee565b6111f56020830184611172565b9392505050565b60006020820190506112116000830184610ffd565b92915050565b600060408201905061122c6000830185610ffd565b6112396020830184610fee565b9392505050565b600060208201905081810360008301526112598161100c565b9050919050565b6000602082019050818103600083015261127981611072565b9050919050565b60006020820190508181036000830152611299816110b2565b9050919050565b600060208201905081810360008301526112b9816110f2565b9050919050565b600060208201905081810360008301526112d981611132565b9050919050565b60006020820190506112f56000830184611172565b92915050565b600082825260208201905092915050565b6000611317826113de565b9150611322836113de565b9250827fffffffffffffffffffffffffffffffffffffffffffffffffffffffffffffffff03821115611357576113566113e8565b5b828201905092915050565b600061136d826113de565b9150611378836113de565b92508282101561138b5761138a6113e8565b5b828203905092915050565b60006113a1826113be565b9050919050565b60008115159050919050565b6000819050919050565b600073ffffffffffffffffffffffffffffffffffffffff82169050919050565b6000819050919050565b7f4e487b7100000000000000000000000000000000000000000000000000000000600052601160045260246000fd5b61142081611396565b811461142b57600080fd5b50565b611437816113a8565b811461144257600080fd5b50565b61144e816113b4565b811461145957600080fd5b50565b611465816113de565b811461147057600080fd5b5056fea2646970667358221220e86bc2efb3947028d9b7e3ff7e3565ca884e5dd98fe7a44db587951fd72e3b5764736f6c63430008000033",
  "immutableReferences": {},
  "source": "pragma solidity 0.8.0;\r\npragma experimental ABIEncoderV2;\r\n\r\n//import \"./Wallet.sol\";\r\nimport \"../node_modules/@openzeppelin/contracts/token/ERC20/IERC20.sol\";\r\nimport \"../node_modules/@openzeppelin/contracts/utils/math/SafeMath.sol\";\r\nimport \"../node_modules/@openzeppelin/contracts/access/Ownable.sol\";\r\n\r\n\r\ncontract ETHWallet is Ownable {\r\n  using SafeMath for uint256;\r\n\r\n  struct Token {\r\n      bytes32 ticker;\r\n      address tokenAddress;\r\n    }\r\n\r\n  mapping(bytes32 => Token) public tokenMapping;\r\n\r\n  bytes32[] public tokenList;\r\n  bytes32 ETH = keccak256(abi.encodePacked(\"ETH\"));\r\n\r\n  mapping(address => mapping(bytes32 => uint256)) public balances;\r\n\r\n  modifier tokenExists(bytes32 ticker){\r\n    if (ticker != ETH){\r\n    require(tokenMapping[ticker].tokenAddress != address(0), \"Token does not exist\");\r\n    }\r\n    _;\r\n  }\r\n\r\n  function addToken(bytes32 _ticker, address _tokenAddress) external onlyOwner {\r\n    tokenMapping[_ticker] = Token(_ticker,_tokenAddress);\r\n    tokenList.push(_ticker);\r\n  }\r\n\r\n  function deposit(uint _amount, bytes32 _ticker) external tokenExists(_ticker) {\r\n    balances[msg.sender][_ticker] = balances[msg.sender][_ticker].add(_amount);\r\n    IERC20(tokenMapping[_ticker].tokenAddress).transferFrom(msg.sender, address(this), _amount);\r\n  }\r\n\r\n  function depositETH() external payable {\r\n    require(msg.value >= 0, \"Please include value amount\");\r\n    uint _value = msg.value;\r\n    balances[msg.sender][ETH] = balances[msg.sender][ETH].add(_value);\r\n  }\r\n\r\n  function withdraw (uint _amount, bytes32 _ticker) external tokenExists(_ticker) {\r\n    require(balances[msg.sender][_ticker] >= _amount, \"Balance insufficient\");\r\n\r\n    balances[msg.sender][_ticker] = balances[msg.sender][_ticker].sub(_amount);\r\n\r\n    if (_ticker != ETH) {\r\n      IERC20(tokenMapping[_ticker].tokenAddress).transfer(msg.sender, _amount);\r\n    }\r\n    if (_ticker == ETH) {\r\n      payable(msg.sender).transfer(_amount);\r\n    }\r\n  }\r\n\r\n  function getBalance(bytes32 _ticker) public view returns(uint) {\r\n    return balances[msg.sender][_ticker];\r\n  }\r\n\r\n/*\r\n  function withdrawETH(address payable _address, uint _amount) public returns(uint balance) {\r\n    require(_amount <= balances[msg.sender][ETH], \"Not enough ETH\");\r\n    balances[msg.sender][ETH] -= _amount;\r\n    _address.transfer(_amount);\r\n    return balances[msg.sender][ETH];\r\n  }\r\n*/\r\n}\r\n",
  "sourcePath": "c:/Users/Raychel Angel/Truffle/DEX/contracts/ETHWallet.sol",
  "compiler": {
    "name": "solc",
    "version": "0.8.0+commit.c7dfd78e.Emscripten.clang"
  },
  "schemaVersion": "3.3.4",
  "updatedAt": "2021-06-16T23:02:47.645Z",
  "networkType": "ethereum",
  "devdoc": {
    "kind": "dev",
    "methods": {
      "owner()": {
        "details": "Returns the address of the current owner."
      },
      "renounceOwnership()": {
        "details": "Leaves the contract without owner. It will not be possible to call `onlyOwner` functions anymore. Can only be called by the current owner. NOTE: Renouncing ownership will leave the contract without an owner, thereby removing any functionality that is only available to the owner."
      },
      "transferOwnership(address)": {
        "details": "Transfers ownership of the contract to a new account (`newOwner`). Can only be called by the current owner."
      }
    },
    "version": 1
  },
  "userdoc": {
    "kind": "user",
    "methods": {},
    "version": 1
  }
}