{
  "contractName": "Wallet",
  "abi": [
    {
      "anonymous": false,
      "inputs": [
        {
          "indexed": true,
          "internalType": "address",
          "name": "previousOwner",
          "type": "address"
        },
        {
          "indexed": true,
          "internalType": "address",
          "name": "newOwner",
          "type": "address"
        }
      ],
      "name": "OwnershipTransferred",
      "type": "event"
    },
    {
      "inputs": [
        {
          "internalType": "address",
          "name": "",
          "type": "address"
        },
        {
          "internalType": "bytes32",
          "name": "",
          "type": "bytes32"
        }
      ],
      "name": "balances",
      "outputs": [
        {
          "internalType": "uint256",
          "name": "",
          "type": "uint256"
        }
      ],
      "stateMutability": "view",
      "type": "function",
      "constant": true
    },
    {
      "inputs": [],
      "name": "owner",
      "outputs": [
        {
          "internalType": "address",
          "name": "",
          "type": "address"
        }
      ],
      "stateMutability": "view",
      "type": "function",
      "constant": true
    },
    {
      "inputs": [],
      "name": "renounceOwnership",
      "outputs": [],
      "stateMutability": "nonpayable",
      "type": "function"
    },
    {
      "inputs": [
        {
          "internalType": "uint256",
          "name": "",
          "type": "uint256"
        }
      ],
      "name": "tokenList",
      "outputs": [
        {
          "internalType": "bytes32",
          "name": "",
          "type": "bytes32"
        }
      ],
      "stateMutability": "view",
      "type": "function",
      "constant": true
    },
    {
      "inputs": [
        {
          "internalType": "bytes32",
          "name": "",
          "type": "bytes32"
        }
      ],
      "name": "tokenMapping",
      "outputs": [
        {
          "internalType": "bytes32",
          "name": "ticker",
          "type": "bytes32"
        },
        {
          "internalType": "address",
          "name": "tokenAddress",
          "type": "address"
        }
      ],
      "stateMutability": "view",
      "type": "function",
      "constant": true
    },
    {
      "inputs": [
        {
          "internalType": "address",
          "name": "newOwner",
          "type": "address"
        }
      ],
      "name": "transferOwnership",
      "outputs": [],
      "stateMutability": "nonpayable",
      "type": "function"
    },
    {
      "inputs": [
        {
          "internalType": "bytes32",
          "name": "ticker",
          "type": "bytes32"
        },
        {
          "internalType": "address",
          "name": "tokenAddress",
          "type": "address"
        }
      ],
      "name": "addToken",
      "outputs": [],
      "stateMutability": "nonpayable",
      "type": "function"
    },
    {
      "inputs": [
        {
          "internalType": "uint256",
          "name": "amount",
          "type": "uint256"
        },
        {
          "internalType": "bytes32",
          "name": "ticker",
          "type": "bytes32"
        }
      ],
      "name": "deposit",
      "outputs": [],
      "stateMutability": "nonpayable",
      "type": "function"
    },
    {
      "inputs": [
        {
          "internalType": "uint256",
          "name": "amount",
          "type": "uint256"
        },
        {
          "internalType": "bytes32",
          "name": "ticker",
          "type": "bytes32"
        }
      ],
      "name": "withdraw",
      "outputs": [],
      "stateMutability": "nonpayable",
      "type": "function"
    },
    {
      "inputs": [
        {
          "internalType": "bytes32",
          "name": "_ticker",
          "type": "bytes32"
        }
      ],
      "name": "getBalance",
      "outputs": [
        {
          "internalType": "uint256",
          "name": "",
          "type": "uint256"
        }
      ],
      "stateMutability": "view",
      "type": "function",
      "constant": true
    }
  ],
  "bytecode": "0x608060405234801561001057600080fd5b5060006100216100c460201b60201c565b9050806000806101000a81548173ffffffffffffffffffffffffffffffffffffffff021916908373ffffffffffffffffffffffffffffffffffffffff1602179055508073ffffffffffffffffffffffffffffffffffffffff16600073ffffffffffffffffffffffffffffffffffffffff167f8be0079c531659141344cd1fd0a4f28419497f9722a3daafe3b4186f6b6457e060405160405180910390a3506100cc565b600033905090565b611248806100db6000396000f3fe608060405234801561001057600080fd5b506004361061009e5760003560e01c80639776aacf116100665780639776aacf1461015c5780639ead722214610178578063a8d2021a146101a8578063c9630cb0146101c4578063f2fde38b146101e05761009e565b80631f14df69146100a3578063667cb4ba146100d3578063715018a6146101045780638da5cb5b1461010e5780638e7394611461012c575b600080fd5b6100bd60048036038101906100b89190610cbe565b6101fc565b6040516100ca919061107f565b60405180910390f35b6100ed60048036038101906100e89190610d23565b610221565b6040516100fb929190610fd6565b60405180910390f35b61010c610265565b005b61011661039f565b6040516101239190610f40565b60405180910390f35b61014660048036038101906101419190610d23565b6103c8565b604051610153919061107f565b60405180910390f35b61017660048036038101906101719190610d4c565b610422565b005b610192600480360381019061018d9190610d88565b61055d565b60405161019f9190610fbb565b60405180910390f35b6101c260048036038101906101bd9190610db1565b610581565b005b6101de60048036038101906101d99190610db1565b61083b565b005b6101fa60048036038101906101f59190610c95565b610a64565b005b6003602052816000526040600020602052806000526040600020600091509150505481565b60016020528060005260406000206000915090508060000154908060010160009054906101000a900473ffffffffffffffffffffffffffffffffffffffff16905082565b61026d610c0d565b73ffffffffffffffffffffffffffffffffffffffff1661028b61039f565b73ffffffffffffffffffffffffffffffffffffffff16146102e1576040517f08c379a00000000000000000000000000000000000000000000000000000000081526004016102d89061103f565b60405180910390fd5b600073ffffffffffffffffffffffffffffffffffffffff1660008054906101000a900473ffffffffffffffffffffffffffffffffffffffff1673ffffffffffffffffffffffffffffffffffffffff167f8be0079c531659141344cd1fd0a4f28419497f9722a3daafe3b4186f6b6457e060405160405180910390a360008060006101000a81548173ffffffffffffffffffffffffffffffffffffffff021916908373ffffffffffffffffffffffffffffffffffffffff160217905550565b60008060009054906101000a900473ffffffffffffffffffffffffffffffffffffffff16905090565b6000600360003373ffffffffffffffffffffffffffffffffffffffff1673ffffffffffffffffffffffffffffffffffffffff1681526020019081526020016000206000838152602001908152602001600020549050919050565b61042a610c0d565b73ffffffffffffffffffffffffffffffffffffffff1661044861039f565b73ffffffffffffffffffffffffffffffffffffffff161461049e576040517f08c379a00000000000000000000000000000000000000000000000000000000081526004016104959061103f565b60405180910390fd5b60405180604001604052808381526020018273ffffffffffffffffffffffffffffffffffffffff16815250600160008481526020019081526020016000206000820151816000015560208201518160010160006101000a81548173ffffffffffffffffffffffffffffffffffffffff021916908373ffffffffffffffffffffffffffffffffffffffff16021790555090505060028290806001815401808255809150506001900390600052602060002001600090919091909150555050565b6002818154811061056d57600080fd5b906000526020600020016000915090505481565b80600073ffffffffffffffffffffffffffffffffffffffff166001600083815260200190815260200160002060010160009054906101000a900473ffffffffffffffffffffffffffffffffffffffff1673ffffffffffffffffffffffffffffffffffffffff161415610628576040517f08c379a000000000000000000000000000000000000000000000000000000000815260040161061f9061101f565b60405180910390fd5b82600360003373ffffffffffffffffffffffffffffffffffffffff1673ffffffffffffffffffffffffffffffffffffffff16815260200190815260200160002060008481526020019081526020016000205410156106bb576040517f08c379a00000000000000000000000000000000000000000000000000000000081526004016106b29061105f565b60405180910390fd5b61071e83600360003373ffffffffffffffffffffffffffffffffffffffff1673ffffffffffffffffffffffffffffffffffffffff168152602001908152602001600020600085815260200190815260200160002054610c1590919063ffffffff16565b600360003373ffffffffffffffffffffffffffffffffffffffff1673ffffffffffffffffffffffffffffffffffffffff1681526020019081526020016000206000848152602001908152602001600020819055506001600083815260200190815260200160002060010160009054906101000a900473ffffffffffffffffffffffffffffffffffffffff1673ffffffffffffffffffffffffffffffffffffffff1663a9059cbb33856040518363ffffffff1660e01b81526004016107e3929190610f92565b602060405180830381600087803b1580156107fd57600080fd5b505af1158015610811573d6000803e3d6000fd5b505050506040513d601f19601f820116820180604052508101906108359190610cfa565b50505050565b80600073ffffffffffffffffffffffffffffffffffffffff166001600083815260200190815260200160002060010160009054906101000a900473ffffffffffffffffffffffffffffffffffffffff1673ffffffffffffffffffffffffffffffffffffffff1614156108e2576040517f08c379a00000000000000000000000000000000000000000000000000000000081526004016108d99061101f565b60405180910390fd5b61094583600360003373ffffffffffffffffffffffffffffffffffffffff1673ffffffffffffffffffffffffffffffffffffffff168152602001908152602001600020600085815260200190815260200160002054610c2b90919063ffffffff16565b600360003373ffffffffffffffffffffffffffffffffffffffff1673ffffffffffffffffffffffffffffffffffffffff1681526020019081526020016000206000848152602001908152602001600020819055506001600083815260200190815260200160002060010160009054906101000a900473ffffffffffffffffffffffffffffffffffffffff1673ffffffffffffffffffffffffffffffffffffffff166323b872dd3330866040518463ffffffff1660e01b8152600401610a0c93929190610f5b565b602060405180830381600087803b158015610a2657600080fd5b505af1158015610a3a573d6000803e3d6000fd5b505050506040513d601f19601f82011682018060405250810190610a5e9190610cfa565b50505050565b610a6c610c0d565b73ffffffffffffffffffffffffffffffffffffffff16610a8a61039f565b73ffffffffffffffffffffffffffffffffffffffff1614610ae0576040517f08c379a0000000000000000000000000000000000000000000000000000000008152600401610ad79061103f565b60405180910390fd5b600073ffffffffffffffffffffffffffffffffffffffff168173ffffffffffffffffffffffffffffffffffffffff161415610b50576040517f08c379a0000000000000000000000000000000000000000000000000000000008152600401610b4790610fff565b60405180910390fd5b8073ffffffffffffffffffffffffffffffffffffffff1660008054906101000a900473ffffffffffffffffffffffffffffffffffffffff1673ffffffffffffffffffffffffffffffffffffffff167f8be0079c531659141344cd1fd0a4f28419497f9722a3daafe3b4186f6b6457e060405160405180910390a3806000806101000a81548173ffffffffffffffffffffffffffffffffffffffff021916908373ffffffffffffffffffffffffffffffffffffffff16021790555050565b600033905090565b60008183610c239190611101565b905092915050565b60008183610c3991906110ab565b905092915050565b600081359050610c50816111b6565b92915050565b600081519050610c65816111cd565b92915050565b600081359050610c7a816111e4565b92915050565b600081359050610c8f816111fb565b92915050565b600060208284031215610ca757600080fd5b6000610cb584828501610c41565b91505092915050565b60008060408385031215610cd157600080fd5b6000610cdf85828601610c41565b9250506020610cf085828601610c6b565b9150509250929050565b600060208284031215610d0c57600080fd5b6000610d1a84828501610c56565b91505092915050565b600060208284031215610d3557600080fd5b6000610d4384828501610c6b565b91505092915050565b60008060408385031215610d5f57600080fd5b6000610d6d85828601610c6b565b9250506020610d7e85828601610c41565b9150509250929050565b600060208284031215610d9a57600080fd5b6000610da884828501610c80565b91505092915050565b60008060408385031215610dc457600080fd5b6000610dd285828601610c80565b9250506020610de385828601610c6b565b9150509250929050565b610df681611135565b82525050565b610e0581611153565b82525050565b6000610e1860268361109a565b91507f4f776e61626c653a206e6577206f776e657220697320746865207a65726f206160008301527f64647265737300000000000000000000000000000000000000000000000000006020830152604082019050919050565b6000610e7e60148361109a565b91507f546f6b656e20646f6573206e6f742065786973740000000000000000000000006000830152602082019050919050565b6000610ebe60208361109a565b91507f4f776e61626c653a2063616c6c6572206973206e6f7420746865206f776e65726000830152602082019050919050565b6000610efe60168361109a565b91507f42616c616e6365206e6f742073756666696369656e74000000000000000000006000830152602082019050919050565b610f3a8161117d565b82525050565b6000602082019050610f556000830184610ded565b92915050565b6000606082019050610f706000830186610ded565b610f7d6020830185610ded565b610f8a6040830184610f31565b949350505050565b6000604082019050610fa76000830185610ded565b610fb46020830184610f31565b9392505050565b6000602082019050610fd06000830184610dfc565b92915050565b6000604082019050610feb6000830185610dfc565b610ff86020830184610ded565b9392505050565b6000602082019050818103600083015261101881610e0b565b9050919050565b6000602082019050818103600083015261103881610e71565b9050919050565b6000602082019050818103600083015261105881610eb1565b9050919050565b6000602082019050818103600083015261107881610ef1565b9050919050565b60006020820190506110946000830184610f31565b92915050565b600082825260208201905092915050565b60006110b68261117d565b91506110c18361117d565b9250827fffffffffffffffffffffffffffffffffffffffffffffffffffffffffffffffff038211156110f6576110f5611187565b5b828201905092915050565b600061110c8261117d565b91506111178361117d565b92508282101561112a57611129611187565b5b828203905092915050565b60006111408261115d565b9050919050565b60008115159050919050565b6000819050919050565b600073ffffffffffffffffffffffffffffffffffffffff82169050919050565b6000819050919050565b7f4e487b7100000000000000000000000000000000000000000000000000000000600052601160045260246000fd5b6111bf81611135565b81146111ca57600080fd5b50565b6111d681611147565b81146111e157600080fd5b50565b6111ed81611153565b81146111f857600080fd5b50565b6112048161117d565b811461120f57600080fd5b5056fea2646970667358221220c953de4205a09234c7a28f85fb4fbb3718f87c4cf451b69980f09912586c044f64736f6c63430008000033",
  "immutableReferences": {},
  "source": "pragma solidity ^0.8.0;\r\n\r\n//Need to import ERC20 interface to interact with external contracts;\r\nimport \"../node_modules/@openzeppelin/contracts/token/ERC20/IERC20.sol\";\r\nimport \"../node_modules/@openzeppelin/contracts/utils/math/SafeMath.sol\";\r\nimport \"../node_modules/@openzeppelin/contracts/access/Ownable.sol\";\r\n\r\n//Let's do some OpenZeppelin stuff, such as Ownable\r\ncontract Wallet is Ownable {\r\n  using SafeMath for uint256;\r\n\r\n  struct Token {\r\n    bytes32 ticker;\r\n    address tokenAddress; //Need address to run transfer calls from token contracts\r\n  }\r\n\r\n  mapping(bytes32 => Token) public tokenMapping; //Each ticker points to a Token object\r\n  bytes32[] public tokenList; //For tickers, we can loop through all Token objects now\r\n\r\n  mapping(address => mapping(bytes32 => uint256)) public balances;\r\n\r\n  modifier tokenExists(bytes32 ticker){\r\n    require(tokenMapping[ticker].tokenAddress != address(0), \"Token does not exist\");\r\n    _;\r\n  }\r\n\r\n  function addToken(bytes32 ticker, address tokenAddress) external onlyOwner {\r\n    tokenMapping[ticker] = Token(ticker,tokenAddress);\r\n    tokenList.push(ticker);\r\n  }\r\n\r\n  function deposit(uint amount, bytes32 ticker) external tokenExists(ticker) {\r\n    balances[msg.sender][ticker] = balances[msg.sender][ticker].add(amount);\r\n    IERC20(tokenMapping[ticker].tokenAddress).transferFrom(msg.sender, address(this), amount);\r\n  }\r\n\r\n  function withdraw (uint amount, bytes32 ticker) external tokenExists(ticker) {\r\n    require(balances[msg.sender][ticker] >= amount, \"Balance not sufficient\");\r\n\r\n    balances[msg.sender][ticker] = balances[msg.sender][ticker].sub(amount);\r\n    IERC20(tokenMapping[ticker].tokenAddress).transfer(msg.sender, amount);\r\n  }\r\n\r\n  function getBalance(bytes32 _ticker) public view returns(uint) {\r\n    return balances[msg.sender][_ticker];\r\n  }\r\n\r\n}\r\n",
  "sourcePath": "c:/Users/Raychel Angel/Truffle/DEX/contracts/Wallet.sol",
  "compiler": {
    "name": "solc",
    "version": "0.8.0+commit.c7dfd78e.Emscripten.clang"
  },
  "schemaVersion": "3.3.4",
  "updatedAt": "2021-06-16T01:35:03.501Z",
  "networkType": "ethereum",
  "devdoc": {
    "kind": "dev",
    "methods": {
      "owner()": {
        "details": "Returns the address of the current owner."
      },
      "renounceOwnership()": {
        "details": "Leaves the contract without owner. It will not be possible to call `onlyOwner` functions anymore. Can only be called by the current owner. NOTE: Renouncing ownership will leave the contract without an owner, thereby removing any functionality that is only available to the owner."
      },
      "transferOwnership(address)": {
        "details": "Transfers ownership of the contract to a new account (`newOwner`). Can only be called by the current owner."
      }
    },
    "version": 1
  },
  "userdoc": {
    "kind": "user",
    "methods": {},
    "version": 1
  }
}