{
  "contractName": "Wallet2",
  "abi": [
    {
      "anonymous": false,
      "inputs": [
        {
          "indexed": true,
          "internalType": "address",
          "name": "previousOwner",
          "type": "address"
        },
        {
          "indexed": true,
          "internalType": "address",
          "name": "newOwner",
          "type": "address"
        }
      ],
      "name": "OwnershipTransferred",
      "type": "event"
    },
    {
      "inputs": [
        {
          "internalType": "address",
          "name": "",
          "type": "address"
        },
        {
          "internalType": "bytes32",
          "name": "",
          "type": "bytes32"
        }
      ],
      "name": "balances",
      "outputs": [
        {
          "internalType": "uint256",
          "name": "",
          "type": "uint256"
        }
      ],
      "stateMutability": "view",
      "type": "function"
    },
    {
      "inputs": [],
      "name": "owner",
      "outputs": [
        {
          "internalType": "address",
          "name": "",
          "type": "address"
        }
      ],
      "stateMutability": "view",
      "type": "function"
    },
    {
      "inputs": [],
      "name": "renounceOwnership",
      "outputs": [],
      "stateMutability": "nonpayable",
      "type": "function"
    },
    {
      "inputs": [
        {
          "internalType": "uint256",
          "name": "",
          "type": "uint256"
        }
      ],
      "name": "tokenList",
      "outputs": [
        {
          "internalType": "bytes32",
          "name": "",
          "type": "bytes32"
        }
      ],
      "stateMutability": "view",
      "type": "function"
    },
    {
      "inputs": [
        {
          "internalType": "bytes32",
          "name": "",
          "type": "bytes32"
        }
      ],
      "name": "tokenMapping",
      "outputs": [
        {
          "internalType": "bytes32",
          "name": "ticker",
          "type": "bytes32"
        },
        {
          "internalType": "address",
          "name": "tokenAddress",
          "type": "address"
        }
      ],
      "stateMutability": "view",
      "type": "function"
    },
    {
      "inputs": [
        {
          "internalType": "address",
          "name": "newOwner",
          "type": "address"
        }
      ],
      "name": "transferOwnership",
      "outputs": [],
      "stateMutability": "nonpayable",
      "type": "function"
    },
    {
      "inputs": [
        {
          "internalType": "bytes32",
          "name": "ticker",
          "type": "bytes32"
        },
        {
          "internalType": "address",
          "name": "tokenAddress",
          "type": "address"
        }
      ],
      "name": "addToken",
      "outputs": [],
      "stateMutability": "nonpayable",
      "type": "function"
    },
    {
      "inputs": [
        {
          "internalType": "uint256",
          "name": "amount",
          "type": "uint256"
        },
        {
          "internalType": "bytes32",
          "name": "ticker",
          "type": "bytes32"
        }
      ],
      "name": "deposit",
      "outputs": [],
      "stateMutability": "nonpayable",
      "type": "function"
    },
    {
      "inputs": [
        {
          "internalType": "uint256",
          "name": "amount",
          "type": "uint256"
        },
        {
          "internalType": "bytes32",
          "name": "ticker",
          "type": "bytes32"
        }
      ],
      "name": "withdraw",
      "outputs": [],
      "stateMutability": "nonpayable",
      "type": "function"
    },
    {
      "inputs": [
        {
          "internalType": "bytes32",
          "name": "_ticker",
          "type": "bytes32"
        }
      ],
      "name": "getBalance",
      "outputs": [
        {
          "internalType": "uint256",
          "name": "",
          "type": "uint256"
        }
      ],
      "stateMutability": "view",
      "type": "function"
    },
    {
      "inputs": [
        {
          "internalType": "uint256",
          "name": "_value",
          "type": "uint256"
        }
      ],
      "name": "depositEth",
      "outputs": [],
      "stateMutability": "payable",
      "type": "function"
    },
    {
      "inputs": [
        {
          "internalType": "address payable",
          "name": "_address",
          "type": "address"
        },
        {
          "internalType": "uint256",
          "name": "_amount",
          "type": "uint256"
        }
      ],
      "name": "withdrawEth",
      "outputs": [
        {
          "internalType": "uint256",
          "name": "balance",
          "type": "uint256"
        }
      ],
      "stateMutability": "nonpayable",
      "type": "function"
    },
    {
      "inputs": [],
      "name": "getETHBalance",
      "outputs": [
        {
          "internalType": "uint256",
          "name": "",
          "type": "uint256"
        }
      ],
      "stateMutability": "view",
      "type": "function"
    }
  ],
  "bytecode": "0x608060405260405160200161001390610134565b6040516020818303038152906040528051906020012060045534801561003857600080fd5b5060006100496100ec60201b60201c565b9050806000806101000a81548173ffffffffffffffffffffffffffffffffffffffff021916908373ffffffffffffffffffffffffffffffffffffffff1602179055508073ffffffffffffffffffffffffffffffffffffffff16600073ffffffffffffffffffffffffffffffffffffffff167f8be0079c531659141344cd1fd0a4f28419497f9722a3daafe3b4186f6b6457e060405160405180910390a350610154565b600033905090565b6000610101600383610149565b91507f45544800000000000000000000000000000000000000000000000000000000006000830152600382019050919050565b600061013f826100f4565b9150819050919050565b600081905092915050565b61171b80620001646000396000f3fe6080604052600436106100c25760003560e01c80638da5cb5b1161007f5780639ead7222116100595780639ead72221461026e578063a8d2021a146102ab578063c9630cb0146102d4578063f2fde38b146102fd576100c2565b80638da5cb5b146101dd5780638e739461146102085780639776aacf14610245576100c2565b80630f4d14e9146100c75780631b9a91a4146100e35780631f14df6914610120578063667cb4ba1461015d5780636e9472981461019b578063715018a6146101c6575b600080fd5b6100e160048036038101906100dc9190611172565b610326565b005b3480156100ef57600080fd5b5061010a6004803603810190610105919061106c565b6103d4565b6040516101179190611529565b60405180910390f35b34801561012c57600080fd5b50610147600480360381019061014291906110a8565b610576565b6040516101549190611529565b60405180910390f35b34801561016957600080fd5b50610184600480360381019061017f919061110d565b61059b565b604051610192929190611440565b60405180910390f35b3480156101a757600080fd5b506101b06105df565b6040516101bd9190611529565b60405180910390f35b3480156101d257600080fd5b506101db6105fe565b005b3480156101e957600080fd5b506101f2610738565b6040516101ff91906113aa565b60405180910390f35b34801561021457600080fd5b5061022f600480360381019061022a919061110d565b610761565b60405161023c9190611529565b60405180910390f35b34801561025157600080fd5b5061026c60048036038101906102679190611136565b6107bb565b005b34801561027a57600080fd5b5061029560048036038101906102909190611172565b6108f6565b6040516102a29190611425565b60405180910390f35b3480156102b757600080fd5b506102d260048036038101906102cd919061119b565b61091a565b005b3480156102e057600080fd5b506102fb60048036038101906102f6919061119b565b610bd4565b005b34801561030957600080fd5b50610324600480360381019061031f9190611043565b610dfd565b005b348114610368576040517f08c379a000000000000000000000000000000000000000000000000000000000815260040161035f906114e9565b60405180910390fd5b80600360003373ffffffffffffffffffffffffffffffffffffffff1673ffffffffffffffffffffffffffffffffffffffff1681526020019081526020016000206000600454815260200190815260200160002060008282546103ca9190611555565b9250508190555050565b6000600360003373ffffffffffffffffffffffffffffffffffffffff1673ffffffffffffffffffffffffffffffffffffffff168152602001908152602001600020600060045481526020019081526020016000205482111561046b576040517f08c379a0000000000000000000000000000000000000000000000000000000008152600401610462906114a9565b60405180910390fd5b81600360003373ffffffffffffffffffffffffffffffffffffffff1673ffffffffffffffffffffffffffffffffffffffff1681526020019081526020016000206000600454815260200190815260200160002060008282546104cd91906115ab565b925050819055508273ffffffffffffffffffffffffffffffffffffffff166108fc839081150290604051600060405180830381858888f1935050505015801561051a573d6000803e3d6000fd5b50600360003373ffffffffffffffffffffffffffffffffffffffff1673ffffffffffffffffffffffffffffffffffffffff1681526020019081526020016000206000600454815260200190815260200160002054905092915050565b6003602052816000526040600020602052806000526040600020600091509150505481565b60016020528060005260406000206000915090508060000154908060010160009054906101000a900473ffffffffffffffffffffffffffffffffffffffff16905082565b60003373ffffffffffffffffffffffffffffffffffffffff1631905090565b610606610fa6565b73ffffffffffffffffffffffffffffffffffffffff16610624610738565b73ffffffffffffffffffffffffffffffffffffffff161461067a576040517f08c379a0000000000000000000000000000000000000000000000000000000008152600401610671906114c9565b60405180910390fd5b600073ffffffffffffffffffffffffffffffffffffffff1660008054906101000a900473ffffffffffffffffffffffffffffffffffffffff1673ffffffffffffffffffffffffffffffffffffffff167f8be0079c531659141344cd1fd0a4f28419497f9722a3daafe3b4186f6b6457e060405160405180910390a360008060006101000a81548173ffffffffffffffffffffffffffffffffffffffff021916908373ffffffffffffffffffffffffffffffffffffffff160217905550565b60008060009054906101000a900473ffffffffffffffffffffffffffffffffffffffff16905090565b6000600360003373ffffffffffffffffffffffffffffffffffffffff1673ffffffffffffffffffffffffffffffffffffffff1681526020019081526020016000206000838152602001908152602001600020549050919050565b6107c3610fa6565b73ffffffffffffffffffffffffffffffffffffffff166107e1610738565b73ffffffffffffffffffffffffffffffffffffffff1614610837576040517f08c379a000000000000000000000000000000000000000000000000000000000815260040161082e906114c9565b60405180910390fd5b60405180604001604052808381526020018273ffffffffffffffffffffffffffffffffffffffff16815250600160008481526020019081526020016000206000820151816000015560208201518160010160006101000a81548173ffffffffffffffffffffffffffffffffffffffff021916908373ffffffffffffffffffffffffffffffffffffffff16021790555090505060028290806001815401808255809150506001900390600052602060002001600090919091909150555050565b6002818154811061090657600080fd5b906000526020600020016000915090505481565b80600073ffffffffffffffffffffffffffffffffffffffff166001600083815260200190815260200160002060010160009054906101000a900473ffffffffffffffffffffffffffffffffffffffff1673ffffffffffffffffffffffffffffffffffffffff1614156109c1576040517f08c379a00000000000000000000000000000000000000000000000000000000081526004016109b890611489565b60405180910390fd5b82600360003373ffffffffffffffffffffffffffffffffffffffff1673ffffffffffffffffffffffffffffffffffffffff1681526020019081526020016000206000848152602001908152602001600020541015610a54576040517f08c379a0000000000000000000000000000000000000000000000000000000008152600401610a4b90611509565b60405180910390fd5b610ab783600360003373ffffffffffffffffffffffffffffffffffffffff1673ffffffffffffffffffffffffffffffffffffffff168152602001908152602001600020600085815260200190815260200160002054610fae90919063ffffffff16565b600360003373ffffffffffffffffffffffffffffffffffffffff1673ffffffffffffffffffffffffffffffffffffffff1681526020019081526020016000206000848152602001908152602001600020819055506001600083815260200190815260200160002060010160009054906101000a900473ffffffffffffffffffffffffffffffffffffffff1673ffffffffffffffffffffffffffffffffffffffff1663a9059cbb33856040518363ffffffff1660e01b8152600401610b7c9291906113fc565b602060405180830381600087803b158015610b9657600080fd5b505af1158015610baa573d6000803e3d6000fd5b505050506040513d601f19601f82011682018060405250810190610bce91906110e4565b50505050565b80600073ffffffffffffffffffffffffffffffffffffffff166001600083815260200190815260200160002060010160009054906101000a900473ffffffffffffffffffffffffffffffffffffffff1673ffffffffffffffffffffffffffffffffffffffff161415610c7b576040517f08c379a0000000000000000000000000000000000000000000000000000000008152600401610c7290611489565b60405180910390fd5b610cde83600360003373ffffffffffffffffffffffffffffffffffffffff1673ffffffffffffffffffffffffffffffffffffffff168152602001908152602001600020600085815260200190815260200160002054610fc490919063ffffffff16565b600360003373ffffffffffffffffffffffffffffffffffffffff1673ffffffffffffffffffffffffffffffffffffffff1681526020019081526020016000206000848152602001908152602001600020819055506001600083815260200190815260200160002060010160009054906101000a900473ffffffffffffffffffffffffffffffffffffffff1673ffffffffffffffffffffffffffffffffffffffff166323b872dd3330866040518463ffffffff1660e01b8152600401610da5939291906113c5565b602060405180830381600087803b158015610dbf57600080fd5b505af1158015610dd3573d6000803e3d6000fd5b505050506040513d601f19601f82011682018060405250810190610df791906110e4565b50505050565b610e05610fa6565b73ffffffffffffffffffffffffffffffffffffffff16610e23610738565b73ffffffffffffffffffffffffffffffffffffffff1614610e79576040517f08c379a0000000000000000000000000000000000000000000000000000000008152600401610e70906114c9565b60405180910390fd5b600073ffffffffffffffffffffffffffffffffffffffff168173ffffffffffffffffffffffffffffffffffffffff161415610ee9576040517f08c379a0000000000000000000000000000000000000000000000000000000008152600401610ee090611469565b60405180910390fd5b8073ffffffffffffffffffffffffffffffffffffffff1660008054906101000a900473ffffffffffffffffffffffffffffffffffffffff1673ffffffffffffffffffffffffffffffffffffffff167f8be0079c531659141344cd1fd0a4f28419497f9722a3daafe3b4186f6b6457e060405160405180910390a3806000806101000a81548173ffffffffffffffffffffffffffffffffffffffff021916908373ffffffffffffffffffffffffffffffffffffffff16021790555050565b600033905090565b60008183610fbc91906115ab565b905092915050565b60008183610fd29190611555565b905092915050565b600081359050610fe981611672565b92915050565b600081359050610ffe81611689565b92915050565b600081519050611013816116a0565b92915050565b600081359050611028816116b7565b92915050565b60008135905061103d816116ce565b92915050565b60006020828403121561105557600080fd5b600061106384828501610fda565b91505092915050565b6000806040838503121561107f57600080fd5b600061108d85828601610fef565b925050602061109e8582860161102e565b9150509250929050565b600080604083850312156110bb57600080fd5b60006110c985828601610fda565b92505060206110da85828601611019565b9150509250929050565b6000602082840312156110f657600080fd5b600061110484828501611004565b91505092915050565b60006020828403121561111f57600080fd5b600061112d84828501611019565b91505092915050565b6000806040838503121561114957600080fd5b600061115785828601611019565b925050602061116885828601610fda565b9150509250929050565b60006020828403121561118457600080fd5b60006111928482850161102e565b91505092915050565b600080604083850312156111ae57600080fd5b60006111bc8582860161102e565b92505060206111cd85828601611019565b9150509250929050565b6111e0816115df565b82525050565b6111ef8161160f565b82525050565b6000611202602683611544565b91507f4f776e61626c653a206e6577206f776e657220697320746865207a65726f206160008301527f64647265737300000000000000000000000000000000000000000000000000006020830152604082019050919050565b6000611268601483611544565b91507f546f6b656e20646f6573206e6f742065786973740000000000000000000000006000830152602082019050919050565b60006112a8600e83611544565b91507f4e6f7420656e6f756768204554480000000000000000000000000000000000006000830152602082019050919050565b60006112e8602083611544565b91507f4f776e61626c653a2063616c6c6572206973206e6f7420746865206f776e65726000830152602082019050919050565b6000611328601b83611544565b91507f506c6561736520696e636c7564652076616c756520616d6f756e7400000000006000830152602082019050919050565b6000611368601683611544565b91507f42616c616e6365206e6f742073756666696369656e74000000000000000000006000830152602082019050919050565b6113a481611639565b82525050565b60006020820190506113bf60008301846111d7565b92915050565b60006060820190506113da60008301866111d7565b6113e760208301856111d7565b6113f4604083018461139b565b949350505050565b600060408201905061141160008301856111d7565b61141e602083018461139b565b9392505050565b600060208201905061143a60008301846111e6565b92915050565b600060408201905061145560008301856111e6565b61146260208301846111d7565b9392505050565b60006020820190508181036000830152611482816111f5565b9050919050565b600060208201905081810360008301526114a28161125b565b9050919050565b600060208201905081810360008301526114c28161129b565b9050919050565b600060208201905081810360008301526114e2816112db565b9050919050565b600060208201905081810360008301526115028161131b565b9050919050565b600060208201905081810360008301526115228161135b565b9050919050565b600060208201905061153e600083018461139b565b92915050565b600082825260208201905092915050565b600061156082611639565b915061156b83611639565b9250827fffffffffffffffffffffffffffffffffffffffffffffffffffffffffffffffff038211156115a05761159f611643565b5b828201905092915050565b60006115b682611639565b91506115c183611639565b9250828210156115d4576115d3611643565b5b828203905092915050565b60006115ea82611619565b9050919050565b60006115fc82611619565b9050919050565b60008115159050919050565b6000819050919050565b600073ffffffffffffffffffffffffffffffffffffffff82169050919050565b6000819050919050565b7f4e487b7100000000000000000000000000000000000000000000000000000000600052601160045260246000fd5b61167b816115df565b811461168657600080fd5b50565b611692816115f1565b811461169d57600080fd5b50565b6116a981611603565b81146116b457600080fd5b50565b6116c08161160f565b81146116cb57600080fd5b50565b6116d781611639565b81146116e257600080fd5b5056fea26469706673582212204c4d0a260999a36c8e0748c36c2ee91c0ddf61e5e212a9fed92a8f426fd26e9f64736f6c63430008000033",
  "immutableReferences": {},
  "source": "pragma solidity ^0.8.0;\r\n\r\n//Need to import ERC20 interface to interact with external contracts;\r\nimport \"../node_modules/@openzeppelin/contracts/token/ERC20/IERC20.sol\";\r\nimport \"../node_modules/@openzeppelin/contracts/utils/math/SafeMath.sol\";\r\nimport \"../node_modules/@openzeppelin/contracts/access/Ownable.sol\";\r\n\r\n\r\n//Let's do some OpenZeppelin stuff, such as Ownable\r\ncontract Wallet2 is Ownable {\r\n  using SafeMath for uint256;\r\n\r\n  struct Token {\r\n    bytes32 ticker;\r\n    address tokenAddress;\r\n  }\r\n\r\n  mapping(bytes32 => Token) public tokenMapping;\r\n  bytes32[] public tokenList;\r\n\r\n  mapping(address => mapping(bytes32 => uint256)) public balances;\r\n  bytes32 ETH = keccak256(abi.encodePacked(\"ETH\"));\r\n\r\n  modifier tokenExists(bytes32 ticker){\r\n    require(tokenMapping[ticker].tokenAddress != address(0), \"Token does not exist\");\r\n    _;\r\n  }\r\n\r\n  function addToken(bytes32 ticker, address tokenAddress) external onlyOwner {\r\n    tokenMapping[ticker] = Token(ticker,tokenAddress);\r\n    tokenList.push(ticker);\r\n  }\r\n\r\n  function deposit(uint amount, bytes32 ticker) external tokenExists(ticker) {\r\n    balances[msg.sender][ticker] = balances[msg.sender][ticker].add(amount);\r\n    IERC20(tokenMapping[ticker].tokenAddress).transferFrom(msg.sender, address(this), amount);\r\n  }\r\n\r\n  function withdraw (uint amount, bytes32 ticker) external tokenExists(ticker) {\r\n    require(balances[msg.sender][ticker] >= amount, \"Balance not sufficient\");\r\n\r\n    balances[msg.sender][ticker] = balances[msg.sender][ticker].sub(amount);\r\n    IERC20(tokenMapping[ticker].tokenAddress).transfer(msg.sender, amount);\r\n  }\r\n\r\n  function getBalance(bytes32 _ticker) public view returns(uint) {\r\n    return balances[msg.sender][_ticker];\r\n  }\r\n\r\n  function depositEth(uint _value) public payable {\r\n    require(_value == msg.value, \"Please include value amount\");\r\n    balances[msg.sender][ETH] += _value;\r\n  }\r\n\r\n  function withdrawEth(address payable _address, uint _amount) public returns(uint balance) {\r\n    require(_amount <= balances[msg.sender][ETH], \"Not enough ETH\");\r\n    balances[msg.sender][ETH] -= _amount;\r\n    _address.transfer(_amount);\r\n    return balances[msg.sender][ETH];\r\n  }\r\n\r\n  function getETHBalance () public view returns (uint) {\r\n    return msg.sender.balance;\r\n  }\r\n}\r\n",
  "sourcePath": "c:/Users/Raychel Angel/Truffle/DEX/contracts/Wallet.sol",
  "compiler": {
    "name": "solc",
    "version": "0.8.0+commit.c7dfd78e.Emscripten.clang"
  },
  "schemaVersion": "3.3.4",
  "updatedAt": "2021-06-16T00:24:26.318Z",
  "devdoc": {
    "kind": "dev",
    "methods": {
      "owner()": {
        "details": "Returns the address of the current owner."
      },
      "renounceOwnership()": {
        "details": "Leaves the contract without owner. It will not be possible to call `onlyOwner` functions anymore. Can only be called by the current owner. NOTE: Renouncing ownership will leave the contract without an owner, thereby removing any functionality that is only available to the owner."
      },
      "transferOwnership(address)": {
        "details": "Transfers ownership of the contract to a new account (`newOwner`). Can only be called by the current owner."
      }
    },
    "version": 1
  },
  "userdoc": {
    "kind": "user",
    "methods": {},
    "version": 1
  }
}